{
  "abi": [
    {
      "inputs": [],
      "stateMutability": "nonpayable",
      "type": "constructor"
    },
    {
      "anonymous": false,
      "inputs": [
        {
          "indexed": true,
          "internalType": "address",
          "name": "from",
          "type": "address"
        },
        {
          "indexed": true,
          "internalType": "address",
          "name": "to",
          "type": "address"
        },
        {
          "indexed": false,
          "internalType": "uint256",
          "name": "amount",
          "type": "uint256"
        }
      ],
      "name": "Approval",
      "type": "event"
    },
    {
      "anonymous": false,
      "inputs": [
        {
          "indexed": true,
          "internalType": "address",
          "name": "from",
          "type": "address"
        },
        {
          "indexed": true,
          "internalType": "address",
          "name": "to",
          "type": "address"
        },
        {
          "indexed": false,
          "internalType": "uint256",
          "name": "amount",
          "type": "uint256"
        }
      ],
      "name": "Transfer",
      "type": "event"
    },
    {
      "inputs": [
        {
          "internalType": "address",
          "name": "",
          "type": "address"
        },
        {
          "internalType": "address",
          "name": "",
          "type": "address"
        }
      ],
      "name": "allowance",
      "outputs": [
        {
          "internalType": "uint256",
          "name": "",
          "type": "uint256"
        }
      ],
      "stateMutability": "view",
      "type": "function"
    },
    {
      "inputs": [
        {
          "internalType": "address",
          "name": "spender",
          "type": "address"
        },
        {
          "internalType": "uint256",
          "name": "amount",
          "type": "uint256"
        }
      ],
      "name": "approve",
      "outputs": [
        {
          "internalType": "bool",
          "name": "",
          "type": "bool"
        }
      ],
      "stateMutability": "nonpayable",
      "type": "function"
    },
    {
      "inputs": [
        {
          "internalType": "address",
          "name": "",
          "type": "address"
        }
      ],
      "name": "balanceOf",
      "outputs": [
        {
          "internalType": "uint256",
          "name": "",
          "type": "uint256"
        }
      ],
      "stateMutability": "view",
      "type": "function"
    },
    {
      "inputs": [
        {
          "internalType": "uint256",
          "name": "amount",
          "type": "uint256"
        }
      ],
      "name": "burn",
      "outputs": [],
      "stateMutability": "nonpayable",
      "type": "function"
    },
    {
      "inputs": [],
      "name": "decimals",
      "outputs": [
        {
          "internalType": "uint8",
          "name": "",
          "type": "uint8"
        }
      ],
      "stateMutability": "view",
      "type": "function"
    },
    {
      "inputs": [
        {
          "internalType": "address",
          "name": "spender",
          "type": "address"
        },
        {
          "internalType": "uint256",
          "name": "subtractedValue",
          "type": "uint256"
        }
      ],
      "name": "decreaseAllowance",
      "outputs": [
        {
          "internalType": "bool",
          "name": "",
          "type": "bool"
        }
      ],
      "stateMutability": "nonpayable",
      "type": "function"
    },
    {
      "inputs": [],
      "name": "devTreasury",
      "outputs": [
        {
          "internalType": "uint256",
          "name": "",
          "type": "uint256"
        }
      ],
      "stateMutability": "view",
      "type": "function"
    },
    {
      "inputs": [
        {
          "internalType": "address",
          "name": "spender",
          "type": "address"
        },
        {
          "internalType": "uint256",
          "name": "addedValue",
          "type": "uint256"
        }
      ],
      "name": "increaseAllowance",
      "outputs": [
        {
          "internalType": "bool",
          "name": "",
          "type": "bool"
        }
      ],
      "stateMutability": "nonpayable",
      "type": "function"
    },
    {
      "inputs": [
        {
          "internalType": "address",
          "name": "account",
          "type": "address"
        },
        {
          "internalType": "uint256",
          "name": "amount",
          "type": "uint256"
        }
      ],
      "name": "mint",
      "outputs": [],
      "stateMutability": "nonpayable",
      "type": "function"
    },
    {
      "inputs": [],
      "name": "name",
      "outputs": [
        {
          "internalType": "string",
          "name": "",
          "type": "string"
        }
      ],
      "stateMutability": "view",
      "type": "function"
    },
    {
      "inputs": [],
      "name": "owner",
      "outputs": [
        {
          "internalType": "address",
          "name": "",
          "type": "address"
        }
      ],
      "stateMutability": "view",
      "type": "function"
    },
    {
      "inputs": [],
      "name": "symbol",
      "outputs": [
        {
          "internalType": "string",
          "name": "",
          "type": "string"
        }
      ],
      "stateMutability": "view",
      "type": "function"
    },
    {
      "inputs": [],
      "name": "totalSupply",
      "outputs": [
        {
          "internalType": "uint256",
          "name": "",
          "type": "uint256"
        }
      ],
      "stateMutability": "view",
      "type": "function"
    },
    {
      "inputs": [
        {
          "internalType": "address",
          "name": "recipient",
          "type": "address"
        },
        {
          "internalType": "uint256",
          "name": "amount",
          "type": "uint256"
        }
      ],
      "name": "transfer",
      "outputs": [
        {
          "internalType": "bool",
          "name": "",
          "type": "bool"
        }
      ],
      "stateMutability": "nonpayable",
      "type": "function"
    },
    {
      "inputs": [
        {
          "internalType": "address",
          "name": "sender",
          "type": "address"
        },
        {
          "internalType": "address",
          "name": "recipient",
          "type": "address"
        },
        {
          "internalType": "uint256",
          "name": "amount",
          "type": "uint256"
        }
      ],
      "name": "transferFrom",
      "outputs": [
        {
          "internalType": "bool",
          "name": "",
          "type": "bool"
        }
      ],
      "stateMutability": "nonpayable",
      "type": "function"
    }
  ],
  "devdoc": {
    "kind": "dev",
    "methods": {
      "approve(address,uint256)": {
        "details": "Requirements: - `spender` cannot be the zero address."
      },
      "burn(uint256)": {
        "details": "Destroys `amount` tokens from `account`, reducing the total supply. Emits a {Transfer} event with `to` set to the zero address. Requirements: - `account` cannot be the zero address. - `account` must have at least `amount` tokens."
      },
      "decreaseAllowance(address,uint256)": {
        "details": "Atomically decreases the allowance granted to `spender` by the caller. Emits an {Approval} event indicating the updated allowance. Requirements: - `spender` cannot be the zero address. - `spender` must have allowance for the caller of at least `subtractedValue`."
      },
      "increaseAllowance(address,uint256)": {
        "details": "Atomically increases the allowance granted to `spender` by the caller. Emits an {Approval} event indicating the updated allowance. Requirements: - `spender` cannot be the zero address."
      },
      "mint(address,uint256)": {
        "details": "Creates `amount` tokens and assigns them to `account`, increasing the total supply. Emits a {Transfer} event with `from` set to the zero address. Requirements: - `account` cannot be the zero address."
      },
      "transferFrom(address,address,uint256)": {
        "details": "Emits an {Approval} event indicating the updated allowance. This is not required by the EIP. Requirements: - `sender` and `recipient` cannot be the zero address. - `sender` must have a balance of at least `amount`. - the caller must have allowance for ``sender``'s tokens of at least `amount`."
      }
    },
    "version": 1
  },
  "evm": {
    "assembly": "    /* \"./contracts/BFLUX.sol\":58:6006  contract BFLUX  {... */\n  mstore(0x40, 0x80)\n    /* \"./contracts/BFLUX.sol\":748:833  constructor() public {... */\n  callvalue\n  dup1\n  iszero\n  tag_1\n  jumpi\n  0x00\n  dup1\n  revert\ntag_1:\n  pop\n    /* \"./contracts/BFLUX.sol\":783:793  msg.sender */\n  caller\n    /* \"./contracts/BFLUX.sol\":775:780  owner */\n  0x00\n  dup1\n    /* \"./contracts/BFLUX.sol\":775:793  owner = msg.sender */\n  0x0100\n  exp\n  dup2\n  sload\n  dup2\n  0xffffffffffffffffffffffffffffffffffffffff\n  mul\n  not\n  and\n  swap1\n  dup4\n  0xffffffffffffffffffffffffffffffffffffffff\n  and\n  mul\n  or\n  swap1\n  sstore\n  pop\n    /* \"./contracts/BFLUX.sol\":799:828  mint(msg.sender, devTreasury) */\n  tag_4\n    /* \"./contracts/BFLUX.sol\":804:814  msg.sender */\n  caller\n    /* \"./contracts/BFLUX.sol\":257:280  10000000000000000000000 */\n  0x021e19e0c9bab2400000\n    /* \"./contracts/BFLUX.sol\":799:803  mint */\n  shl(0x20, tag_5)\n    /* \"./contracts/BFLUX.sol\":799:828  mint(msg.sender, devTreasury) */\n  0x20\n  shr\n  jump\t// in\ntag_4:\n    /* \"./contracts/BFLUX.sol\":58:6006  contract BFLUX  {... */\n  jump(tag_6)\n    /* \"./contracts/BFLUX.sol\":4331:4580  function mint(address account, uint256 amount) public onlyOwner {... */\ntag_5:\n    /* \"./contracts/BFLUX.sol\":687:692  owner */\n  0x00\n  dup1\n  sload\n  swap1\n  0x0100\n  exp\n  swap1\n  div\n  0xffffffffffffffffffffffffffffffffffffffff\n  and\n    /* \"./contracts/BFLUX.sol\":673:692  msg.sender == owner */\n  0xffffffffffffffffffffffffffffffffffffffff\n  and\n    /* \"./contracts/BFLUX.sol\":673:683  msg.sender */\n  caller\n    /* \"./contracts/BFLUX.sol\":673:692  msg.sender == owner */\n  0xffffffffffffffffffffffffffffffffffffffff\n  and\n  eq\n    /* \"./contracts/BFLUX.sol\":665:730  require(msg.sender == owner, \"Only Owner can call this function\") */\n  tag_8\n  jumpi\n  mload(0x40)\n  0x08c379a000000000000000000000000000000000000000000000000000000000\n  dup2\n  mstore\n  0x04\n  add\n  tag_9\n  swap1\n  tag_10\n  jump\t// in\ntag_9:\n  mload(0x40)\n  dup1\n  swap2\n  sub\n  swap1\n  revert\ntag_8:\n    /* \"./contracts/BFLUX.sol\":4428:4429  0 */\n  0x00\n    /* \"./contracts/BFLUX.sol\":4409:4430  account != address(0) */\n  0xffffffffffffffffffffffffffffffffffffffff\n  and\n    /* \"./contracts/BFLUX.sol\":4409:4416  account */\n  dup3\n    /* \"./contracts/BFLUX.sol\":4409:4430  account != address(0) */\n  0xffffffffffffffffffffffffffffffffffffffff\n  and\n  eq\n  iszero\n    /* \"./contracts/BFLUX.sol\":4401:4466  require(account != address(0), \"CRC20: mint to the zero address\") */\n  tag_12\n  jumpi\n  mload(0x40)\n  0x08c379a000000000000000000000000000000000000000000000000000000000\n  dup2\n  mstore\n  0x04\n  add\n  tag_13\n  swap1\n  tag_14\n  jump\t// in\ntag_13:\n  mload(0x40)\n  dup1\n  swap2\n  sub\n  swap1\n  revert\ntag_12:\n    /* \"./contracts/BFLUX.sol\":4487:4493  amount */\n  dup1\n    /* \"./contracts/BFLUX.sol\":4472:4483  totalSupply */\n  0x03\n  0x00\n    /* \"./contracts/BFLUX.sol\":4472:4493  totalSupply += amount */\n  dup3\n  dup3\n  sload\n  tag_15\n  swap2\n  swap1\n  tag_16\n  jump\t// in\ntag_15:\n  swap3\n  pop\n  pop\n  dup2\n  swap1\n  sstore\n  pop\n    /* \"./contracts/BFLUX.sol\":4521:4527  amount */\n  dup1\n    /* \"./contracts/BFLUX.sol\":4499:4508  balanceOf */\n  0x01\n    /* \"./contracts/BFLUX.sol\":4499:4517  balanceOf[account] */\n  0x00\n    /* \"./contracts/BFLUX.sol\":4509:4516  account */\n  dup5\n    /* \"./contracts/BFLUX.sol\":4499:4517  balanceOf[account] */\n  0xffffffffffffffffffffffffffffffffffffffff\n  and\n  0xffffffffffffffffffffffffffffffffffffffff\n  and\n  dup2\n  mstore\n  0x20\n  add\n  swap1\n  dup2\n  mstore\n  0x20\n  add\n  0x00\n  keccak256\n  0x00\n    /* \"./contracts/BFLUX.sol\":4499:4527  balanceOf[account] += amount */\n  dup3\n  dup3\n  sload\n  tag_17\n  swap2\n  swap1\n  tag_16\n  jump\t// in\ntag_17:\n  swap3\n  pop\n  pop\n  dup2\n  swap1\n  sstore\n  pop\n    /* \"./contracts/BFLUX.sol\":4559:4566  account */\n  dup2\n    /* \"./contracts/BFLUX.sol\":4538:4575  Transfer(address(0), account, amount) */\n  0xffffffffffffffffffffffffffffffffffffffff\n  and\n    /* \"./contracts/BFLUX.sol\":4555:4556  0 */\n  0x00\n    /* \"./contracts/BFLUX.sol\":4538:4575  Transfer(address(0), account, amount) */\n  0xffffffffffffffffffffffffffffffffffffffff\n  and\n  0xddf252ad1be2c89b69c2b068fc378daa952ba7f163c4a11628f55a4df523b3ef\n    /* \"./contracts/BFLUX.sol\":4568:4574  amount */\n  dup4\n    /* \"./contracts/BFLUX.sol\":4538:4575  Transfer(address(0), account, amount) */\n  mload(0x40)\n  tag_18\n  swap2\n  swap1\n  tag_19\n  jump\t// in\ntag_18:\n  mload(0x40)\n  dup1\n  swap2\n  sub\n  swap1\n  log3\n    /* \"./contracts/BFLUX.sol\":4331:4580  function mint(address account, uint256 amount) public onlyOwner {... */\n  pop\n  pop\n  jump\t// out\n    /* \"#utility.yul\":7:336   */\ntag_21:\n  0x00\n    /* \"#utility.yul\":170:237   */\n  tag_23\n    /* \"#utility.yul\":234:236   */\n  0x1f\n    /* \"#utility.yul\":229:232   */\n  dup4\n    /* \"#utility.yul\":170:237   */\n  tag_24\n  jump\t// in\ntag_23:\n    /* \"#utility.yul\":163:237   */\n  swap2\n  pop\n    /* \"#utility.yul\":267:300   */\n  0x43524332303a206d696e7420746f20746865207a65726f206164647265737300\n    /* \"#utility.yul\":263:264   */\n  0x00\n    /* \"#utility.yul\":258:261   */\n  dup4\n    /* \"#utility.yul\":254:265   */\n  add\n    /* \"#utility.yul\":247:301   */\n  mstore\n    /* \"#utility.yul\":327:329   */\n  0x20\n    /* \"#utility.yul\":322:325   */\n  dup3\n    /* \"#utility.yul\":318:330   */\n  add\n    /* \"#utility.yul\":311:330   */\n  swap1\n  pop\n    /* \"#utility.yul\":153:336   */\n  swap2\n  swap1\n  pop\n  jump\t// out\n    /* \"#utility.yul\":342:707   */\ntag_25:\n  0x00\n    /* \"#utility.yul\":505:572   */\n  tag_27\n    /* \"#utility.yul\":569:571   */\n  0x21\n    /* \"#utility.yul\":564:567   */\n  dup4\n    /* \"#utility.yul\":505:572   */\n  tag_24\n  jump\t// in\ntag_27:\n    /* \"#utility.yul\":498:572   */\n  swap2\n  pop\n    /* \"#utility.yul\":602:636   */\n  0x4f6e6c79204f776e65722063616e2063616c6c20746869732066756e6374696f\n    /* \"#utility.yul\":598:599   */\n  0x00\n    /* \"#utility.yul\":593:596   */\n  dup4\n    /* \"#utility.yul\":589:600   */\n  add\n    /* \"#utility.yul\":582:637   */\n  mstore\n    /* \"#utility.yul\":668:671   */\n  0x6e00000000000000000000000000000000000000000000000000000000000000\n    /* \"#utility.yul\":663:665   */\n  0x20\n    /* \"#utility.yul\":658:661   */\n  dup4\n    /* \"#utility.yul\":654:666   */\n  add\n    /* \"#utility.yul\":647:672   */\n  mstore\n    /* \"#utility.yul\":698:700   */\n  0x40\n    /* \"#utility.yul\":693:696   */\n  dup3\n    /* \"#utility.yul\":689:701   */\n  add\n    /* \"#utility.yul\":682:701   */\n  swap1\n  pop\n    /* \"#utility.yul\":488:707   */\n  swap2\n  swap1\n  pop\n  jump\t// out\n    /* \"#utility.yul\":713:831   */\ntag_28:\n    /* \"#utility.yul\":800:824   */\n  tag_30\n    /* \"#utility.yul\":818:823   */\n  dup2\n    /* \"#utility.yul\":800:824   */\n  tag_31\n  jump\t// in\ntag_30:\n    /* \"#utility.yul\":795:798   */\n  dup3\n    /* \"#utility.yul\":788:825   */\n  mstore\n    /* \"#utility.yul\":778:831   */\n  pop\n  pop\n  jump\t// out\n    /* \"#utility.yul\":837:1256   */\ntag_14:\n  0x00\n    /* \"#utility.yul\":1041:1043   */\n  0x20\n    /* \"#utility.yul\":1030:1039   */\n  dup3\n    /* \"#utility.yul\":1026:1044   */\n  add\n    /* \"#utility.yul\":1018:1044   */\n  swap1\n  pop\n    /* \"#utility.yul\":1090:1099   */\n  dup2\n    /* \"#utility.yul\":1084:1088   */\n  dup2\n    /* \"#utility.yul\":1080:1100   */\n  sub\n    /* \"#utility.yul\":1076:1077   */\n  0x00\n    /* \"#utility.yul\":1065:1074   */\n  dup4\n    /* \"#utility.yul\":1061:1078   */\n  add\n    /* \"#utility.yul\":1054:1101   */\n  mstore\n    /* \"#utility.yul\":1118:1249   */\n  tag_33\n    /* \"#utility.yul\":1244:1248   */\n  dup2\n    /* \"#utility.yul\":1118:1249   */\n  tag_21\n  jump\t// in\ntag_33:\n    /* \"#utility.yul\":1110:1249   */\n  swap1\n  pop\n    /* \"#utility.yul\":1008:1256   */\n  swap2\n  swap1\n  pop\n  jump\t// out\n    /* \"#utility.yul\":1262:1681   */\ntag_10:\n  0x00\n    /* \"#utility.yul\":1466:1468   */\n  0x20\n    /* \"#utility.yul\":1455:1464   */\n  dup3\n    /* \"#utility.yul\":1451:1469   */\n  add\n    /* \"#utility.yul\":1443:1469   */\n  swap1\n  pop\n    /* \"#utility.yul\":1515:1524   */\n  dup2\n    /* \"#utility.yul\":1509:1513   */\n  dup2\n    /* \"#utility.yul\":1505:1525   */\n  sub\n    /* \"#utility.yul\":1501:1502   */\n  0x00\n    /* \"#utility.yul\":1490:1499   */\n  dup4\n    /* \"#utility.yul\":1486:1503   */\n  add\n    /* \"#utility.yul\":1479:1526   */\n  mstore\n    /* \"#utility.yul\":1543:1674   */\n  tag_35\n    /* \"#utility.yul\":1669:1673   */\n  dup2\n    /* \"#utility.yul\":1543:1674   */\n  tag_25\n  jump\t// in\ntag_35:\n    /* \"#utility.yul\":1535:1674   */\n  swap1\n  pop\n    /* \"#utility.yul\":1433:1681   */\n  swap2\n  swap1\n  pop\n  jump\t// out\n    /* \"#utility.yul\":1687:1909   */\ntag_19:\n  0x00\n    /* \"#utility.yul\":1818:1820   */\n  0x20\n    /* \"#utility.yul\":1807:1816   */\n  dup3\n    /* \"#utility.yul\":1803:1821   */\n  add\n    /* \"#utility.yul\":1795:1821   */\n  swap1\n  pop\n    /* \"#utility.yul\":1831:1902   */\n  tag_37\n    /* \"#utility.yul\":1899:1900   */\n  0x00\n    /* \"#utility.yul\":1888:1897   */\n  dup4\n    /* \"#utility.yul\":1884:1901   */\n  add\n    /* \"#utility.yul\":1875:1881   */\n  dup5\n    /* \"#utility.yul\":1831:1902   */\n  tag_28\n  jump\t// in\ntag_37:\n    /* \"#utility.yul\":1785:1909   */\n  swap3\n  swap2\n  pop\n  pop\n  jump\t// out\n    /* \"#utility.yul\":1915:2084   */\ntag_24:\n  0x00\n    /* \"#utility.yul\":2033:2039   */\n  dup3\n    /* \"#utility.yul\":2028:2031   */\n  dup3\n    /* \"#utility.yul\":2021:2040   */\n  mstore\n    /* \"#utility.yul\":2073:2077   */\n  0x20\n    /* \"#utility.yul\":2068:2071   */\n  dup3\n    /* \"#utility.yul\":2064:2078   */\n  add\n    /* \"#utility.yul\":2049:2078   */\n  swap1\n  pop\n    /* \"#utility.yul\":2011:2084   */\n  swap3\n  swap2\n  pop\n  pop\n  jump\t// out\n    /* \"#utility.yul\":2090:2395   */\ntag_16:\n  0x00\n    /* \"#utility.yul\":2149:2169   */\n  tag_40\n    /* \"#utility.yul\":2167:2168   */\n  dup3\n    /* \"#utility.yul\":2149:2169   */\n  tag_31\n  jump\t// in\ntag_40:\n    /* \"#utility.yul\":2144:2169   */\n  swap2\n  pop\n    /* \"#utility.yul\":2183:2203   */\n  tag_41\n    /* \"#utility.yul\":2201:2202   */\n  dup4\n    /* \"#utility.yul\":2183:2203   */\n  tag_31\n  jump\t// in\ntag_41:\n    /* \"#utility.yul\":2178:2203   */\n  swap3\n  pop\n    /* \"#utility.yul\":2337:2338   */\n  dup3\n    /* \"#utility.yul\":2269:2335   */\n  0xffffffffffffffffffffffffffffffffffffffffffffffffffffffffffffffff\n    /* \"#utility.yul\":2265:2339   */\n  sub\n    /* \"#utility.yul\":2262:2263   */\n  dup3\n    /* \"#utility.yul\":2259:2340   */\n  gt\n    /* \"#utility.yul\":2256:2258   */\n  iszero\n  tag_42\n  jumpi\n    /* \"#utility.yul\":2343:2361   */\n  tag_43\n  tag_44\n  jump\t// in\ntag_43:\n    /* \"#utility.yul\":2256:2258   */\ntag_42:\n    /* \"#utility.yul\":2387:2388   */\n  dup3\n    /* \"#utility.yul\":2384:2385   */\n  dup3\n    /* \"#utility.yul\":2380:2389   */\n  add\n    /* \"#utility.yul\":2373:2389   */\n  swap1\n  pop\n    /* \"#utility.yul\":2134:2395   */\n  swap3\n  swap2\n  pop\n  pop\n  jump\t// out\n    /* \"#utility.yul\":2401:2478   */\ntag_31:\n  0x00\n    /* \"#utility.yul\":2467:2472   */\n  dup2\n    /* \"#utility.yul\":2456:2472   */\n  swap1\n  pop\n    /* \"#utility.yul\":2446:2478   */\n  swap2\n  swap1\n  pop\n  jump\t// out\n    /* \"#utility.yul\":2484:2664   */\ntag_44:\n    /* \"#utility.yul\":2532:2609   */\n  0x4e487b7100000000000000000000000000000000000000000000000000000000\n    /* \"#utility.yul\":2529:2530   */\n  0x00\n    /* \"#utility.yul\":2522:2610   */\n  mstore\n    /* \"#utility.yul\":2629:2633   */\n  0x11\n    /* \"#utility.yul\":2626:2627   */\n  0x04\n    /* \"#utility.yul\":2619:2634   */\n  mstore\n    /* \"#utility.yul\":2653:2657   */\n  0x24\n    /* \"#utility.yul\":2650:2651   */\n  0x00\n    /* \"#utility.yul\":2643:2658   */\n  revert\n    /* \"./contracts/BFLUX.sol\":58:6006  contract BFLUX  {... */\ntag_6:\n  dataSize(sub_0)\n  dup1\n  dataOffset(sub_0)\n  0x00\n  codecopy\n  0x00\n  return\nstop\n\nsub_0: assembly {\n        /* \"./contracts/BFLUX.sol\":58:6006  contract BFLUX  {... */\n      mstore(0x40, 0x80)\n      callvalue\n      dup1\n      iszero\n      tag_1\n      jumpi\n      0x00\n      dup1\n      revert\n    tag_1:\n      pop\n      jumpi(tag_2, lt(calldatasize, 0x04))\n      shr(0xe0, calldataload(0x00))\n      dup1\n      0x42966c68\n      gt\n      tag_18\n      jumpi\n      dup1\n      0xa457c2d7\n      gt\n      tag_19\n      jumpi\n      dup1\n      0xa457c2d7\n      eq\n      tag_14\n      jumpi\n      dup1\n      0xa9059cbb\n      eq\n      tag_15\n      jumpi\n      dup1\n      0xb19ab076\n      eq\n      tag_16\n      jumpi\n      dup1\n      0xdd62ed3e\n      eq\n      tag_17\n      jumpi\n      jump(tag_2)\n    tag_19:\n      dup1\n      0x42966c68\n      eq\n      tag_10\n      jumpi\n      dup1\n      0x70a08231\n      eq\n      tag_11\n      jumpi\n      dup1\n      0x8da5cb5b\n      eq\n      tag_12\n      jumpi\n      dup1\n      0x95d89b41\n      eq\n      tag_13\n      jumpi\n      jump(tag_2)\n    tag_18:\n      dup1\n      0x23b872dd\n      gt\n      tag_20\n      jumpi\n      dup1\n      0x23b872dd\n      eq\n      tag_6\n      jumpi\n      dup1\n      0x313ce567\n      eq\n      tag_7\n      jumpi\n      dup1\n      0x39509351\n      eq\n      tag_8\n      jumpi\n      dup1\n      0x40c10f19\n      eq\n      tag_9\n      jumpi\n      jump(tag_2)\n    tag_20:\n      dup1\n      0x06fdde03\n      eq\n      tag_3\n      jumpi\n      dup1\n      0x095ea7b3\n      eq\n      tag_4\n      jumpi\n      dup1\n      0x18160ddd\n      eq\n      tag_5\n      jumpi\n    tag_2:\n      0x00\n      dup1\n      revert\n        /* \"./contracts/BFLUX.sol\":78:130  string  constant public name = \"Berry Conflux Token\" */\n    tag_3:\n      tag_21\n      tag_22\n      jump\t// in\n    tag_21:\n      mload(0x40)\n      tag_23\n      swap2\n      swap1\n      tag_24\n      jump\t// in\n    tag_23:\n      mload(0x40)\n      dup1\n      swap2\n      sub\n      swap1\n      return\n        /* \"./contracts/BFLUX.sol\":1069:1206  function approve(address spender, uint256 amount) public returns (bool) {... */\n    tag_4:\n      tag_25\n      0x04\n      dup1\n      calldatasize\n      sub\n      dup2\n      add\n      swap1\n      tag_26\n      swap2\n      swap1\n      tag_27\n      jump\t// in\n    tag_26:\n      tag_28\n      jump\t// in\n    tag_25:\n      mload(0x40)\n      tag_29\n      swap2\n      swap1\n      tag_30\n      jump\t// in\n    tag_29:\n      mload(0x40)\n      dup1\n      swap2\n      sub\n      swap1\n      return\n        /* \"./contracts/BFLUX.sol\":448:474  uint256 public totalSupply */\n    tag_5:\n      tag_31\n      tag_32\n      jump\t// in\n    tag_31:\n      mload(0x40)\n      tag_33\n      swap2\n      swap1\n      tag_34\n      jump\t// in\n    tag_33:\n      mload(0x40)\n      dup1\n      swap2\n      sub\n      swap1\n      return\n        /* \"./contracts/BFLUX.sol\":1566:1966  function transferFrom(address sender,... */\n    tag_6:\n      tag_35\n      0x04\n      dup1\n      calldatasize\n      sub\n      dup2\n      add\n      swap1\n      tag_36\n      swap2\n      swap1\n      tag_37\n      jump\t// in\n    tag_36:\n      tag_38\n      jump\t// in\n    tag_35:\n      mload(0x40)\n      tag_39\n      swap2\n      swap1\n      tag_30\n      jump\t// in\n    tag_39:\n      mload(0x40)\n      dup1\n      swap2\n      sub\n      swap1\n      return\n        /* \"./contracts/BFLUX.sol\":178:215  uint8   constant public decimals = 18 */\n    tag_7:\n      tag_40\n      tag_41\n      jump\t// in\n    tag_40:\n      mload(0x40)\n      tag_42\n      swap2\n      swap1\n      tag_43\n      jump\t// in\n    tag_42:\n      mload(0x40)\n      dup1\n      swap2\n      sub\n      swap1\n      return\n        /* \"./contracts/BFLUX.sol\":2207:2419  function increaseAllowance(address spender, uint256 addedValue) public returns (bool) {... */\n    tag_8:\n      tag_44\n      0x04\n      dup1\n      calldatasize\n      sub\n      dup2\n      add\n      swap1\n      tag_45\n      swap2\n      swap1\n      tag_27\n      jump\t// in\n    tag_45:\n      tag_46\n      jump\t// in\n    tag_44:\n      mload(0x40)\n      tag_47\n      swap2\n      swap1\n      tag_30\n      jump\t// in\n    tag_47:\n      mload(0x40)\n      dup1\n      swap2\n      sub\n      swap1\n      return\n        /* \"./contracts/BFLUX.sol\":4331:4580  function mint(address account, uint256 amount) public onlyOwner {... */\n    tag_9:\n      tag_48\n      0x04\n      dup1\n      calldatasize\n      sub\n      dup2\n      add\n      swap1\n      tag_49\n      swap2\n      swap1\n      tag_27\n      jump\t// in\n    tag_49:\n      tag_50\n      jump\t// in\n    tag_48:\n      stop\n        /* \"./contracts/BFLUX.sol\":4876:5282  function burn(uint256 amount) public {... */\n    tag_10:\n      tag_51\n      0x04\n      dup1\n      calldatasize\n      sub\n      dup2\n      add\n      swap1\n      tag_52\n      swap2\n      swap1\n      tag_53\n      jump\t// in\n    tag_52:\n      tag_54\n      jump\t// in\n    tag_51:\n      stop\n        /* \"./contracts/BFLUX.sol\":332:376  mapping(address => uint256) public balanceOf */\n    tag_11:\n      tag_55\n      0x04\n      dup1\n      calldatasize\n      sub\n      dup2\n      add\n      swap1\n      tag_56\n      swap2\n      swap1\n      tag_57\n      jump\t// in\n    tag_56:\n      tag_58\n      jump\t// in\n    tag_55:\n      mload(0x40)\n      tag_59\n      swap2\n      swap1\n      tag_34\n      jump\t// in\n    tag_59:\n      mload(0x40)\n      dup1\n      swap2\n      sub\n      swap1\n      return\n        /* \"./contracts/BFLUX.sol\":306:326  address public owner */\n    tag_12:\n      tag_60\n      tag_61\n      jump\t// in\n    tag_60:\n      mload(0x40)\n      tag_62\n      swap2\n      swap1\n      tag_63\n      jump\t// in\n    tag_62:\n      mload(0x40)\n      dup1\n      swap2\n      sub\n      swap1\n      return\n        /* \"./contracts/BFLUX.sol\":134:174  string  constant public symbol = \"BFLUX\" */\n    tag_13:\n      tag_64\n      tag_65\n      jump\t// in\n    tag_64:\n      mload(0x40)\n      tag_66\n      swap2\n      swap1\n      tag_24\n      jump\t// in\n    tag_66:\n      mload(0x40)\n      dup1\n      swap2\n      sub\n      swap1\n      return\n        /* \"./contracts/BFLUX.sol\":2748:3105  function decreaseAllowance(address spender, uint256 subtractedValue) public returns (bool) {... */\n    tag_14:\n      tag_67\n      0x04\n      dup1\n      calldatasize\n      sub\n      dup2\n      add\n      swap1\n      tag_68\n      swap2\n      swap1\n      tag_27\n      jump\t// in\n    tag_68:\n      tag_69\n      jump\t// in\n    tag_67:\n      mload(0x40)\n      tag_70\n      swap2\n      swap1\n      tag_30\n      jump\t// in\n    tag_70:\n      mload(0x40)\n      dup1\n      swap2\n      sub\n      swap1\n      return\n        /* \"./contracts/BFLUX.sol\":837:984  function transfer(address recipient, uint256 amount)... */\n    tag_15:\n      tag_71\n      0x04\n      dup1\n      calldatasize\n      sub\n      dup2\n      add\n      swap1\n      tag_72\n      swap2\n      swap1\n      tag_27\n      jump\t// in\n    tag_72:\n      tag_73\n      jump\t// in\n    tag_71:\n      mload(0x40)\n      tag_74\n      swap2\n      swap1\n      tag_30\n      jump\t// in\n    tag_74:\n      mload(0x40)\n      dup1\n      swap2\n      sub\n      swap1\n      return\n        /* \"./contracts/BFLUX.sol\":219:280  uint256 constant public devTreasury = 10000000000000000000000 */\n    tag_16:\n      tag_75\n      tag_76\n      jump\t// in\n    tag_75:\n      mload(0x40)\n      tag_77\n      swap2\n      swap1\n      tag_34\n      jump\t// in\n    tag_77:\n      mload(0x40)\n      dup1\n      swap2\n      sub\n      swap1\n      return\n        /* \"./contracts/BFLUX.sol\":380:444  mapping(address => mapping(address => uint256)) public allowance */\n    tag_17:\n      tag_78\n      0x04\n      dup1\n      calldatasize\n      sub\n      dup2\n      add\n      swap1\n      tag_79\n      swap2\n      swap1\n      tag_80\n      jump\t// in\n    tag_79:\n      tag_81\n      jump\t// in\n    tag_78:\n      mload(0x40)\n      tag_82\n      swap2\n      swap1\n      tag_34\n      jump\t// in\n    tag_82:\n      mload(0x40)\n      dup1\n      swap2\n      sub\n      swap1\n      return\n        /* \"./contracts/BFLUX.sol\":78:130  string  constant public name = \"Berry Conflux Token\" */\n    tag_22:\n      mload(0x40)\n      dup1\n      0x40\n      add\n      0x40\n      mstore\n      dup1\n      0x13\n      dup2\n      mstore\n      0x20\n      add\n      0x426572727920436f6e666c757820546f6b656e00000000000000000000000000\n      dup2\n      mstore\n      pop\n      dup2\n      jump\t// out\n        /* \"./contracts/BFLUX.sol\":1069:1206  function approve(address spender, uint256 amount) public returns (bool) {... */\n    tag_28:\n        /* \"./contracts/BFLUX.sol\":1135:1139  bool */\n      0x00\n        /* \"./contracts/BFLUX.sol\":1147:1184  _approve(msg.sender, spender, amount) */\n      tag_84\n        /* \"./contracts/BFLUX.sol\":1156:1166  msg.sender */\n      caller\n        /* \"./contracts/BFLUX.sol\":1168:1175  spender */\n      dup5\n        /* \"./contracts/BFLUX.sol\":1177:1183  amount */\n      dup5\n        /* \"./contracts/BFLUX.sol\":1147:1155  _approve */\n      tag_85\n        /* \"./contracts/BFLUX.sol\":1147:1184  _approve(msg.sender, spender, amount) */\n      jump\t// in\n    tag_84:\n        /* \"./contracts/BFLUX.sol\":1197:1201  true */\n      0x01\n        /* \"./contracts/BFLUX.sol\":1190:1201  return true */\n      swap1\n      pop\n        /* \"./contracts/BFLUX.sol\":1069:1206  function approve(address spender, uint256 amount) public returns (bool) {... */\n      swap3\n      swap2\n      pop\n      pop\n      jump\t// out\n        /* \"./contracts/BFLUX.sol\":448:474  uint256 public totalSupply */\n    tag_32:\n      sload(0x03)\n      dup2\n      jump\t// out\n        /* \"./contracts/BFLUX.sol\":1566:1966  function transferFrom(address sender,... */\n    tag_38:\n        /* \"./contracts/BFLUX.sol\":1668:1672  bool */\n      0x00\n        /* \"./contracts/BFLUX.sol\":1680:1716  _transfer(sender, recipient, amount) */\n      tag_87\n        /* \"./contracts/BFLUX.sol\":1690:1696  sender */\n      dup5\n        /* \"./contracts/BFLUX.sol\":1698:1707  recipient */\n      dup5\n        /* \"./contracts/BFLUX.sol\":1709:1715  amount */\n      dup5\n        /* \"./contracts/BFLUX.sol\":1680:1689  _transfer */\n      tag_88\n        /* \"./contracts/BFLUX.sol\":1680:1716  _transfer(sender, recipient, amount) */\n      jump\t// in\n    tag_87:\n        /* \"./contracts/BFLUX.sol\":1723:1747  uint256 currentAllowance */\n      0x00\n        /* \"./contracts/BFLUX.sol\":1750:1759  allowance */\n      0x02\n        /* \"./contracts/BFLUX.sol\":1750:1767  allowance[sender] */\n      0x00\n        /* \"./contracts/BFLUX.sol\":1760:1766  sender */\n      dup7\n        /* \"./contracts/BFLUX.sol\":1750:1767  allowance[sender] */\n      0xffffffffffffffffffffffffffffffffffffffff\n      and\n      0xffffffffffffffffffffffffffffffffffffffff\n      and\n      dup2\n      mstore\n      0x20\n      add\n      swap1\n      dup2\n      mstore\n      0x20\n      add\n      0x00\n      keccak256\n        /* \"./contracts/BFLUX.sol\":1750:1779  allowance[sender][msg.sender] */\n      0x00\n        /* \"./contracts/BFLUX.sol\":1768:1778  msg.sender */\n      caller\n        /* \"./contracts/BFLUX.sol\":1750:1779  allowance[sender][msg.sender] */\n      0xffffffffffffffffffffffffffffffffffffffff\n      and\n      0xffffffffffffffffffffffffffffffffffffffff\n      and\n      dup2\n      mstore\n      0x20\n      add\n      swap1\n      dup2\n      mstore\n      0x20\n      add\n      0x00\n      keccak256\n      sload\n        /* \"./contracts/BFLUX.sol\":1723:1779  uint256 currentAllowance = allowance[sender][msg.sender] */\n      swap1\n      pop\n        /* \"./contracts/BFLUX.sol\":1820:1826  amount */\n      dup3\n        /* \"./contracts/BFLUX.sol\":1800:1816  currentAllowance */\n      dup2\n        /* \"./contracts/BFLUX.sol\":1800:1826  currentAllowance >= amount */\n      lt\n      iszero\n        /* \"./contracts/BFLUX.sol\":1785:1882  require(... */\n      tag_89\n      jumpi\n      mload(0x40)\n      0x08c379a000000000000000000000000000000000000000000000000000000000\n      dup2\n      mstore\n      0x04\n      add\n      tag_90\n      swap1\n      tag_91\n      jump\t// in\n    tag_90:\n      mload(0x40)\n      dup1\n      swap2\n      sub\n      swap1\n      revert\n    tag_89:\n        /* \"./contracts/BFLUX.sol\":1888:1943  _approve(sender, msg.sender, currentAllowance - amount) */\n      tag_92\n        /* \"./contracts/BFLUX.sol\":1897:1903  sender */\n      dup6\n        /* \"./contracts/BFLUX.sol\":1905:1915  msg.sender */\n      caller\n        /* \"./contracts/BFLUX.sol\":1936:1942  amount */\n      dup6\n        /* \"./contracts/BFLUX.sol\":1917:1933  currentAllowance */\n      dup5\n        /* \"./contracts/BFLUX.sol\":1917:1942  currentAllowance - amount */\n      tag_93\n      swap2\n      swap1\n      tag_94\n      jump\t// in\n    tag_93:\n        /* \"./contracts/BFLUX.sol\":1888:1896  _approve */\n      tag_85\n        /* \"./contracts/BFLUX.sol\":1888:1943  _approve(sender, msg.sender, currentAllowance - amount) */\n      jump\t// in\n    tag_92:\n        /* \"./contracts/BFLUX.sol\":1957:1961  true */\n      0x01\n        /* \"./contracts/BFLUX.sol\":1950:1961  return true */\n      swap2\n      pop\n      pop\n        /* \"./contracts/BFLUX.sol\":1566:1966  function transferFrom(address sender,... */\n      swap4\n      swap3\n      pop\n      pop\n      pop\n      jump\t// out\n        /* \"./contracts/BFLUX.sol\":178:215  uint8   constant public decimals = 18 */\n    tag_41:\n        /* \"./contracts/BFLUX.sol\":213:215  18 */\n      0x12\n        /* \"./contracts/BFLUX.sol\":178:215  uint8   constant public decimals = 18 */\n      dup2\n      jump\t// out\n        /* \"./contracts/BFLUX.sol\":2207:2419  function increaseAllowance(address spender, uint256 addedValue) public returns (bool) {... */\n    tag_46:\n        /* \"./contracts/BFLUX.sol\":2287:2291  bool */\n      0x00\n        /* \"./contracts/BFLUX.sol\":2299:2397  _approve(... */\n      tag_96\n        /* \"./contracts/BFLUX.sol\":2315:2325  msg.sender */\n      caller\n        /* \"./contracts/BFLUX.sol\":2333:2340  spender */\n      dup5\n        /* \"./contracts/BFLUX.sol\":2381:2391  addedValue */\n      dup5\n        /* \"./contracts/BFLUX.sol\":2348:2357  allowance */\n      0x02\n        /* \"./contracts/BFLUX.sol\":2348:2369  allowance[msg.sender] */\n      0x00\n        /* \"./contracts/BFLUX.sol\":2358:2368  msg.sender */\n      caller\n        /* \"./contracts/BFLUX.sol\":2348:2369  allowance[msg.sender] */\n      0xffffffffffffffffffffffffffffffffffffffff\n      and\n      0xffffffffffffffffffffffffffffffffffffffff\n      and\n      dup2\n      mstore\n      0x20\n      add\n      swap1\n      dup2\n      mstore\n      0x20\n      add\n      0x00\n      keccak256\n        /* \"./contracts/BFLUX.sol\":2348:2378  allowance[msg.sender][spender] */\n      0x00\n        /* \"./contracts/BFLUX.sol\":2370:2377  spender */\n      dup9\n        /* \"./contracts/BFLUX.sol\":2348:2378  allowance[msg.sender][spender] */\n      0xffffffffffffffffffffffffffffffffffffffff\n      and\n      0xffffffffffffffffffffffffffffffffffffffff\n      and\n      dup2\n      mstore\n      0x20\n      add\n      swap1\n      dup2\n      mstore\n      0x20\n      add\n      0x00\n      keccak256\n      sload\n        /* \"./contracts/BFLUX.sol\":2348:2391  allowance[msg.sender][spender] + addedValue */\n      tag_97\n      swap2\n      swap1\n      tag_98\n      jump\t// in\n    tag_97:\n        /* \"./contracts/BFLUX.sol\":2299:2307  _approve */\n      tag_85\n        /* \"./contracts/BFLUX.sol\":2299:2397  _approve(... */\n      jump\t// in\n    tag_96:\n        /* \"./contracts/BFLUX.sol\":2410:2414  true */\n      0x01\n        /* \"./contracts/BFLUX.sol\":2403:2414  return true */\n      swap1\n      pop\n        /* \"./contracts/BFLUX.sol\":2207:2419  function increaseAllowance(address spender, uint256 addedValue) public returns (bool) {... */\n      swap3\n      swap2\n      pop\n      pop\n      jump\t// out\n        /* \"./contracts/BFLUX.sol\":4331:4580  function mint(address account, uint256 amount) public onlyOwner {... */\n    tag_50:\n        /* \"./contracts/BFLUX.sol\":687:692  owner */\n      0x00\n      dup1\n      sload\n      swap1\n      0x0100\n      exp\n      swap1\n      div\n      0xffffffffffffffffffffffffffffffffffffffff\n      and\n        /* \"./contracts/BFLUX.sol\":673:692  msg.sender == owner */\n      0xffffffffffffffffffffffffffffffffffffffff\n      and\n        /* \"./contracts/BFLUX.sol\":673:683  msg.sender */\n      caller\n        /* \"./contracts/BFLUX.sol\":673:692  msg.sender == owner */\n      0xffffffffffffffffffffffffffffffffffffffff\n      and\n      eq\n        /* \"./contracts/BFLUX.sol\":665:730  require(msg.sender == owner, \"Only Owner can call this function\") */\n      tag_100\n      jumpi\n      mload(0x40)\n      0x08c379a000000000000000000000000000000000000000000000000000000000\n      dup2\n      mstore\n      0x04\n      add\n      tag_101\n      swap1\n      tag_102\n      jump\t// in\n    tag_101:\n      mload(0x40)\n      dup1\n      swap2\n      sub\n      swap1\n      revert\n    tag_100:\n        /* \"./contracts/BFLUX.sol\":4428:4429  0 */\n      0x00\n        /* \"./contracts/BFLUX.sol\":4409:4430  account != address(0) */\n      0xffffffffffffffffffffffffffffffffffffffff\n      and\n        /* \"./contracts/BFLUX.sol\":4409:4416  account */\n      dup3\n        /* \"./contracts/BFLUX.sol\":4409:4430  account != address(0) */\n      0xffffffffffffffffffffffffffffffffffffffff\n      and\n      eq\n      iszero\n        /* \"./contracts/BFLUX.sol\":4401:4466  require(account != address(0), \"CRC20: mint to the zero address\") */\n      tag_104\n      jumpi\n      mload(0x40)\n      0x08c379a000000000000000000000000000000000000000000000000000000000\n      dup2\n      mstore\n      0x04\n      add\n      tag_105\n      swap1\n      tag_106\n      jump\t// in\n    tag_105:\n      mload(0x40)\n      dup1\n      swap2\n      sub\n      swap1\n      revert\n    tag_104:\n        /* \"./contracts/BFLUX.sol\":4487:4493  amount */\n      dup1\n        /* \"./contracts/BFLUX.sol\":4472:4483  totalSupply */\n      0x03\n      0x00\n        /* \"./contracts/BFLUX.sol\":4472:4493  totalSupply += amount */\n      dup3\n      dup3\n      sload\n      tag_107\n      swap2\n      swap1\n      tag_98\n      jump\t// in\n    tag_107:\n      swap3\n      pop\n      pop\n      dup2\n      swap1\n      sstore\n      pop\n        /* \"./contracts/BFLUX.sol\":4521:4527  amount */\n      dup1\n        /* \"./contracts/BFLUX.sol\":4499:4508  balanceOf */\n      0x01\n        /* \"./contracts/BFLUX.sol\":4499:4517  balanceOf[account] */\n      0x00\n        /* \"./contracts/BFLUX.sol\":4509:4516  account */\n      dup5\n        /* \"./contracts/BFLUX.sol\":4499:4517  balanceOf[account] */\n      0xffffffffffffffffffffffffffffffffffffffff\n      and\n      0xffffffffffffffffffffffffffffffffffffffff\n      and\n      dup2\n      mstore\n      0x20\n      add\n      swap1\n      dup2\n      mstore\n      0x20\n      add\n      0x00\n      keccak256\n      0x00\n        /* \"./contracts/BFLUX.sol\":4499:4527  balanceOf[account] += amount */\n      dup3\n      dup3\n      sload\n      tag_108\n      swap2\n      swap1\n      tag_98\n      jump\t// in\n    tag_108:\n      swap3\n      pop\n      pop\n      dup2\n      swap1\n      sstore\n      pop\n        /* \"./contracts/BFLUX.sol\":4559:4566  account */\n      dup2\n        /* \"./contracts/BFLUX.sol\":4538:4575  Transfer(address(0), account, amount) */\n      0xffffffffffffffffffffffffffffffffffffffff\n      and\n        /* \"./contracts/BFLUX.sol\":4555:4556  0 */\n      0x00\n        /* \"./contracts/BFLUX.sol\":4538:4575  Transfer(address(0), account, amount) */\n      0xffffffffffffffffffffffffffffffffffffffff\n      and\n      0xddf252ad1be2c89b69c2b068fc378daa952ba7f163c4a11628f55a4df523b3ef\n        /* \"./contracts/BFLUX.sol\":4568:4574  amount */\n      dup4\n        /* \"./contracts/BFLUX.sol\":4538:4575  Transfer(address(0), account, amount) */\n      mload(0x40)\n      tag_109\n      swap2\n      swap1\n      tag_34\n      jump\t// in\n    tag_109:\n      mload(0x40)\n      dup1\n      swap2\n      sub\n      swap1\n      log3\n        /* \"./contracts/BFLUX.sol\":4331:4580  function mint(address account, uint256 amount) public onlyOwner {... */\n      pop\n      pop\n      jump\t// out\n        /* \"./contracts/BFLUX.sol\":4876:5282  function burn(uint256 amount) public {... */\n    tag_54:\n        /* \"./contracts/BFLUX.sol\":4949:4950  0 */\n      0x00\n        /* \"./contracts/BFLUX.sol\":4927:4951  msg.sender != address(0) */\n      0xffffffffffffffffffffffffffffffffffffffff\n      and\n        /* \"./contracts/BFLUX.sol\":4927:4937  msg.sender */\n      caller\n        /* \"./contracts/BFLUX.sol\":4927:4951  msg.sender != address(0) */\n      0xffffffffffffffffffffffffffffffffffffffff\n      and\n      eq\n      iszero\n        /* \"./contracts/BFLUX.sol\":4919:4989  require(msg.sender != address(0), \"CRC20: burn from the zero address\") */\n      tag_111\n      jumpi\n      mload(0x40)\n      0x08c379a000000000000000000000000000000000000000000000000000000000\n      dup2\n      mstore\n      0x04\n      add\n      tag_112\n      swap1\n      tag_113\n      jump\t// in\n    tag_112:\n      mload(0x40)\n      dup1\n      swap2\n      sub\n      swap1\n      revert\n    tag_111:\n        /* \"./contracts/BFLUX.sol\":4996:5018  uint256 accountBalance */\n      0x00\n        /* \"./contracts/BFLUX.sol\":5021:5030  balanceOf */\n      0x01\n        /* \"./contracts/BFLUX.sol\":5021:5042  balanceOf[msg.sender] */\n      0x00\n        /* \"./contracts/BFLUX.sol\":5031:5041  msg.sender */\n      caller\n        /* \"./contracts/BFLUX.sol\":5021:5042  balanceOf[msg.sender] */\n      0xffffffffffffffffffffffffffffffffffffffff\n      and\n      0xffffffffffffffffffffffffffffffffffffffff\n      and\n      dup2\n      mstore\n      0x20\n      add\n      swap1\n      dup2\n      mstore\n      0x20\n      add\n      0x00\n      keccak256\n      sload\n        /* \"./contracts/BFLUX.sol\":4996:5042  uint256 accountBalance = balanceOf[msg.sender] */\n      swap1\n      pop\n        /* \"./contracts/BFLUX.sol\":5074:5080  amount */\n      dup2\n        /* \"./contracts/BFLUX.sol\":5056:5070  accountBalance */\n      dup2\n        /* \"./contracts/BFLUX.sol\":5056:5080  accountBalance >= amount */\n      lt\n      iszero\n        /* \"./contracts/BFLUX.sol\":5048:5119  require(accountBalance >= amount, \"CRC20: burn amount exceeds balance\") */\n      tag_114\n      jumpi\n      mload(0x40)\n      0x08c379a000000000000000000000000000000000000000000000000000000000\n      dup2\n      mstore\n      0x04\n      add\n      tag_115\n      swap1\n      tag_116\n      jump\t// in\n    tag_115:\n      mload(0x40)\n      dup1\n      swap2\n      sub\n      swap1\n      revert\n    tag_114:\n        /* \"./contracts/BFLUX.sol\":5186:5192  amount */\n      dup2\n        /* \"./contracts/BFLUX.sol\":5169:5183  accountBalance */\n      dup2\n        /* \"./contracts/BFLUX.sol\":5169:5192  accountBalance - amount */\n      sub\n        /* \"./contracts/BFLUX.sol\":5145:5154  balanceOf */\n      0x01\n        /* \"./contracts/BFLUX.sol\":5145:5166  balanceOf[msg.sender] */\n      0x00\n        /* \"./contracts/BFLUX.sol\":5155:5165  msg.sender */\n      caller\n        /* \"./contracts/BFLUX.sol\":5145:5166  balanceOf[msg.sender] */\n      0xffffffffffffffffffffffffffffffffffffffff\n      and\n      0xffffffffffffffffffffffffffffffffffffffff\n      and\n      dup2\n      mstore\n      0x20\n      add\n      swap1\n      dup2\n      mstore\n      0x20\n      add\n      0x00\n      keccak256\n        /* \"./contracts/BFLUX.sol\":5145:5192  balanceOf[msg.sender] = accountBalance - amount */\n      dup2\n      swap1\n      sstore\n      pop\n        /* \"./contracts/BFLUX.sol\":5219:5225  amount */\n      dup2\n        /* \"./contracts/BFLUX.sol\":5204:5215  totalSupply */\n      0x03\n      0x00\n        /* \"./contracts/BFLUX.sol\":5204:5225  totalSupply -= amount */\n      dup3\n      dup3\n      sload\n      tag_117\n      swap2\n      swap1\n      tag_94\n      jump\t// in\n    tag_117:\n      swap3\n      pop\n      pop\n      dup2\n      swap1\n      sstore\n      pop\n        /* \"./contracts/BFLUX.sol\":5266:5267  0 */\n      0x00\n        /* \"./contracts/BFLUX.sol\":5237:5277  Transfer(msg.sender, address(0), amount) */\n      0xffffffffffffffffffffffffffffffffffffffff\n      and\n        /* \"./contracts/BFLUX.sol\":5246:5256  msg.sender */\n      caller\n        /* \"./contracts/BFLUX.sol\":5237:5277  Transfer(msg.sender, address(0), amount) */\n      0xffffffffffffffffffffffffffffffffffffffff\n      and\n      0xddf252ad1be2c89b69c2b068fc378daa952ba7f163c4a11628f55a4df523b3ef\n        /* \"./contracts/BFLUX.sol\":5270:5276  amount */\n      dup5\n        /* \"./contracts/BFLUX.sol\":5237:5277  Transfer(msg.sender, address(0), amount) */\n      mload(0x40)\n      tag_118\n      swap2\n      swap1\n      tag_34\n      jump\t// in\n    tag_118:\n      mload(0x40)\n      dup1\n      swap2\n      sub\n      swap1\n      log3\n        /* \"./contracts/BFLUX.sol\":4876:5282  function burn(uint256 amount) public {... */\n      pop\n      pop\n      jump\t// out\n        /* \"./contracts/BFLUX.sol\":332:376  mapping(address => uint256) public balanceOf */\n    tag_58:\n      mstore(0x20, 0x01)\n      dup1\n      0x00\n      mstore\n      keccak256(0x00, 0x40)\n      0x00\n      swap2\n      pop\n      swap1\n      pop\n      sload\n      dup2\n      jump\t// out\n        /* \"./contracts/BFLUX.sol\":306:326  address public owner */\n    tag_61:\n      0x00\n      dup1\n      sload\n      swap1\n      0x0100\n      exp\n      swap1\n      div\n      0xffffffffffffffffffffffffffffffffffffffff\n      and\n      dup2\n      jump\t// out\n        /* \"./contracts/BFLUX.sol\":134:174  string  constant public symbol = \"BFLUX\" */\n    tag_65:\n      mload(0x40)\n      dup1\n      0x40\n      add\n      0x40\n      mstore\n      dup1\n      0x05\n      dup2\n      mstore\n      0x20\n      add\n      0x42464c5558000000000000000000000000000000000000000000000000000000\n      dup2\n      mstore\n      pop\n      dup2\n      jump\t// out\n        /* \"./contracts/BFLUX.sol\":2748:3105  function decreaseAllowance(address spender, uint256 subtractedValue) public returns (bool) {... */\n    tag_69:\n        /* \"./contracts/BFLUX.sol\":2833:2837  bool */\n      0x00\n        /* \"./contracts/BFLUX.sol\":2845:2869  uint256 currentAllowance */\n      dup1\n        /* \"./contracts/BFLUX.sol\":2872:2881  allowance */\n      0x02\n        /* \"./contracts/BFLUX.sol\":2872:2893  allowance[msg.sender] */\n      0x00\n        /* \"./contracts/BFLUX.sol\":2882:2892  msg.sender */\n      caller\n        /* \"./contracts/BFLUX.sol\":2872:2893  allowance[msg.sender] */\n      0xffffffffffffffffffffffffffffffffffffffff\n      and\n      0xffffffffffffffffffffffffffffffffffffffff\n      and\n      dup2\n      mstore\n      0x20\n      add\n      swap1\n      dup2\n      mstore\n      0x20\n      add\n      0x00\n      keccak256\n        /* \"./contracts/BFLUX.sol\":2872:2902  allowance[msg.sender][spender] */\n      0x00\n        /* \"./contracts/BFLUX.sol\":2894:2901  spender */\n      dup6\n        /* \"./contracts/BFLUX.sol\":2872:2902  allowance[msg.sender][spender] */\n      0xffffffffffffffffffffffffffffffffffffffff\n      and\n      0xffffffffffffffffffffffffffffffffffffffff\n      and\n      dup2\n      mstore\n      0x20\n      add\n      swap1\n      dup2\n      mstore\n      0x20\n      add\n      0x00\n      keccak256\n      sload\n        /* \"./contracts/BFLUX.sol\":2845:2902  uint256 currentAllowance = allowance[msg.sender][spender] */\n      swap1\n      pop\n        /* \"./contracts/BFLUX.sol\":2943:2958  subtractedValue */\n      dup3\n        /* \"./contracts/BFLUX.sol\":2923:2939  currentAllowance */\n      dup2\n        /* \"./contracts/BFLUX.sol\":2923:2958  currentAllowance >= subtractedValue */\n      lt\n      iszero\n        /* \"./contracts/BFLUX.sol\":2908:3011  require(... */\n      tag_120\n      jumpi\n      mload(0x40)\n      0x08c379a000000000000000000000000000000000000000000000000000000000\n      dup2\n      mstore\n      0x04\n      add\n      tag_121\n      swap1\n      tag_122\n      jump\t// in\n    tag_121:\n      mload(0x40)\n      dup1\n      swap2\n      sub\n      swap1\n      revert\n    tag_120:\n        /* \"./contracts/BFLUX.sol\":3017:3082  _approve(msg.sender, spender, currentAllowance - subtractedValue) */\n      tag_123\n        /* \"./contracts/BFLUX.sol\":3026:3036  msg.sender */\n      caller\n        /* \"./contracts/BFLUX.sol\":3038:3045  spender */\n      dup6\n        /* \"./contracts/BFLUX.sol\":3066:3081  subtractedValue */\n      dup6\n        /* \"./contracts/BFLUX.sol\":3047:3063  currentAllowance */\n      dup5\n        /* \"./contracts/BFLUX.sol\":3047:3081  currentAllowance - subtractedValue */\n      tag_124\n      swap2\n      swap1\n      tag_94\n      jump\t// in\n    tag_124:\n        /* \"./contracts/BFLUX.sol\":3017:3025  _approve */\n      tag_85\n        /* \"./contracts/BFLUX.sol\":3017:3082  _approve(msg.sender, spender, currentAllowance - subtractedValue) */\n      jump\t// in\n    tag_123:\n        /* \"./contracts/BFLUX.sol\":3096:3100  true */\n      0x01\n        /* \"./contracts/BFLUX.sol\":3089:3100  return true */\n      swap2\n      pop\n      pop\n        /* \"./contracts/BFLUX.sol\":2748:3105  function decreaseAllowance(address spender, uint256 subtractedValue) public returns (bool) {... */\n      swap3\n      swap2\n      pop\n      pop\n      jump\t// out\n        /* \"./contracts/BFLUX.sol\":837:984  function transfer(address recipient, uint256 amount)... */\n    tag_73:\n        /* \"./contracts/BFLUX.sol\":910:914  bool */\n      0x00\n        /* \"./contracts/BFLUX.sol\":922:962  _transfer(msg.sender, recipient, amount) */\n      tag_126\n        /* \"./contracts/BFLUX.sol\":932:942  msg.sender */\n      caller\n        /* \"./contracts/BFLUX.sol\":944:953  recipient */\n      dup5\n        /* \"./contracts/BFLUX.sol\":955:961  amount */\n      dup5\n        /* \"./contracts/BFLUX.sol\":922:931  _transfer */\n      tag_88\n        /* \"./contracts/BFLUX.sol\":922:962  _transfer(msg.sender, recipient, amount) */\n      jump\t// in\n    tag_126:\n        /* \"./contracts/BFLUX.sol\":975:979  true */\n      0x01\n        /* \"./contracts/BFLUX.sol\":968:979  return true */\n      swap1\n      pop\n        /* \"./contracts/BFLUX.sol\":837:984  function transfer(address recipient, uint256 amount)... */\n      swap3\n      swap2\n      pop\n      pop\n      jump\t// out\n        /* \"./contracts/BFLUX.sol\":219:280  uint256 constant public devTreasury = 10000000000000000000000 */\n    tag_76:\n        /* \"./contracts/BFLUX.sol\":257:280  10000000000000000000000 */\n      0x021e19e0c9bab2400000\n        /* \"./contracts/BFLUX.sol\":219:280  uint256 constant public devTreasury = 10000000000000000000000 */\n      dup2\n      jump\t// out\n        /* \"./contracts/BFLUX.sol\":380:444  mapping(address => mapping(address => uint256)) public allowance */\n    tag_81:\n      mstore(0x20, 0x02)\n      dup2\n      0x00\n      mstore\n      mstore(0x20, keccak256(0x00, 0x40))\n      dup1\n      0x00\n      mstore\n      keccak256(0x00, 0x40)\n      0x00\n      swap2\n      pop\n      swap2\n      pop\n      pop\n      sload\n      dup2\n      jump\t// out\n        /* \"./contracts/BFLUX.sol\":5677:6004  function _approve(... */\n    tag_85:\n        /* \"./contracts/BFLUX.sol\":5798:5799  0 */\n      0x00\n        /* \"./contracts/BFLUX.sol\":5781:5800  owner != address(0) */\n      0xffffffffffffffffffffffffffffffffffffffff\n      and\n        /* \"./contracts/BFLUX.sol\":5781:5786  owner */\n      dup4\n        /* \"./contracts/BFLUX.sol\":5781:5800  owner != address(0) */\n      0xffffffffffffffffffffffffffffffffffffffff\n      and\n      eq\n      iszero\n        /* \"./contracts/BFLUX.sol\":5773:5841  require(owner != address(0), \"CRC20: approve from the zero address\") */\n      tag_128\n      jumpi\n      mload(0x40)\n      0x08c379a000000000000000000000000000000000000000000000000000000000\n      dup2\n      mstore\n      0x04\n      add\n      tag_129\n      swap1\n      tag_130\n      jump\t// in\n    tag_129:\n      mload(0x40)\n      dup1\n      swap2\n      sub\n      swap1\n      revert\n    tag_128:\n        /* \"./contracts/BFLUX.sol\":5874:5875  0 */\n      0x00\n        /* \"./contracts/BFLUX.sol\":5855:5876  spender != address(0) */\n      0xffffffffffffffffffffffffffffffffffffffff\n      and\n        /* \"./contracts/BFLUX.sol\":5855:5862  spender */\n      dup3\n        /* \"./contracts/BFLUX.sol\":5855:5876  spender != address(0) */\n      0xffffffffffffffffffffffffffffffffffffffff\n      and\n      eq\n      iszero\n        /* \"./contracts/BFLUX.sol\":5847:5915  require(spender != address(0), \"CRC20: approve to the zero address\") */\n      tag_131\n      jumpi\n      mload(0x40)\n      0x08c379a000000000000000000000000000000000000000000000000000000000\n      dup2\n      mstore\n      0x04\n      add\n      tag_132\n      swap1\n      tag_133\n      jump\t// in\n    tag_132:\n      mload(0x40)\n      dup1\n      swap2\n      sub\n      swap1\n      revert\n    tag_131:\n        /* \"./contracts/BFLUX.sol\":5950:5956  amount */\n      dup1\n        /* \"./contracts/BFLUX.sol\":5922:5931  allowance */\n      0x02\n        /* \"./contracts/BFLUX.sol\":5922:5938  allowance[owner] */\n      0x00\n        /* \"./contracts/BFLUX.sol\":5932:5937  owner */\n      dup6\n        /* \"./contracts/BFLUX.sol\":5922:5938  allowance[owner] */\n      0xffffffffffffffffffffffffffffffffffffffff\n      and\n      0xffffffffffffffffffffffffffffffffffffffff\n      and\n      dup2\n      mstore\n      0x20\n      add\n      swap1\n      dup2\n      mstore\n      0x20\n      add\n      0x00\n      keccak256\n        /* \"./contracts/BFLUX.sol\":5922:5947  allowance[owner][spender] */\n      0x00\n        /* \"./contracts/BFLUX.sol\":5939:5946  spender */\n      dup5\n        /* \"./contracts/BFLUX.sol\":5922:5947  allowance[owner][spender] */\n      0xffffffffffffffffffffffffffffffffffffffff\n      and\n      0xffffffffffffffffffffffffffffffffffffffff\n      and\n      dup2\n      mstore\n      0x20\n      add\n      swap1\n      dup2\n      mstore\n      0x20\n      add\n      0x00\n      keccak256\n        /* \"./contracts/BFLUX.sol\":5922:5956  allowance[owner][spender] = amount */\n      dup2\n      swap1\n      sstore\n      pop\n        /* \"./contracts/BFLUX.sol\":5983:5990  spender */\n      dup2\n        /* \"./contracts/BFLUX.sol\":5967:5999  Approval(owner, spender, amount) */\n      0xffffffffffffffffffffffffffffffffffffffff\n      and\n        /* \"./contracts/BFLUX.sol\":5976:5981  owner */\n      dup4\n        /* \"./contracts/BFLUX.sol\":5967:5999  Approval(owner, spender, amount) */\n      0xffffffffffffffffffffffffffffffffffffffff\n      and\n      0x8c5be1e5ebec7d5bd14f71427d1e84f3dd0314c0f7b2291e5b200ac8c7c3b925\n        /* \"./contracts/BFLUX.sol\":5992:5998  amount */\n      dup4\n        /* \"./contracts/BFLUX.sol\":5967:5999  Approval(owner, spender, amount) */\n      mload(0x40)\n      tag_134\n      swap2\n      swap1\n      tag_34\n      jump\t// in\n    tag_134:\n      mload(0x40)\n      dup1\n      swap2\n      sub\n      swap1\n      log3\n        /* \"./contracts/BFLUX.sol\":5677:6004  function _approve(... */\n      pop\n      pop\n      pop\n      jump\t// out\n        /* \"./contracts/BFLUX.sol\":3537:4075  function _transfer(... */\n    tag_88:\n        /* \"./contracts/BFLUX.sol\":3664:3665  0 */\n      0x00\n        /* \"./contracts/BFLUX.sol\":3646:3666  sender != address(0) */\n      0xffffffffffffffffffffffffffffffffffffffff\n      and\n        /* \"./contracts/BFLUX.sol\":3646:3652  sender */\n      dup4\n        /* \"./contracts/BFLUX.sol\":3646:3666  sender != address(0) */\n      0xffffffffffffffffffffffffffffffffffffffff\n      and\n      eq\n      iszero\n        /* \"./contracts/BFLUX.sol\":3638:3708  require(sender != address(0), \"CRC20: transfer from the zero address\") */\n      tag_136\n      jumpi\n      mload(0x40)\n      0x08c379a000000000000000000000000000000000000000000000000000000000\n      dup2\n      mstore\n      0x04\n      add\n      tag_137\n      swap1\n      tag_138\n      jump\t// in\n    tag_137:\n      mload(0x40)\n      dup1\n      swap2\n      sub\n      swap1\n      revert\n    tag_136:\n        /* \"./contracts/BFLUX.sol\":3743:3744  0 */\n      0x00\n        /* \"./contracts/BFLUX.sol\":3722:3745  recipient != address(0) */\n      0xffffffffffffffffffffffffffffffffffffffff\n      and\n        /* \"./contracts/BFLUX.sol\":3722:3731  recipient */\n      dup3\n        /* \"./contracts/BFLUX.sol\":3722:3745  recipient != address(0) */\n      0xffffffffffffffffffffffffffffffffffffffff\n      and\n      eq\n      iszero\n        /* \"./contracts/BFLUX.sol\":3714:3785  require(recipient != address(0), \"CRC20: transfer to the zero address\") */\n      tag_139\n      jumpi\n      mload(0x40)\n      0x08c379a000000000000000000000000000000000000000000000000000000000\n      dup2\n      mstore\n      0x04\n      add\n      tag_140\n      swap1\n      tag_141\n      jump\t// in\n    tag_140:\n      mload(0x40)\n      dup1\n      swap2\n      sub\n      swap1\n      revert\n    tag_139:\n        /* \"./contracts/BFLUX.sol\":3792:3813  uint256 senderBalance */\n      0x00\n        /* \"./contracts/BFLUX.sol\":3816:3825  balanceOf */\n      0x01\n        /* \"./contracts/BFLUX.sol\":3816:3833  balanceOf[sender] */\n      0x00\n        /* \"./contracts/BFLUX.sol\":3826:3832  sender */\n      dup6\n        /* \"./contracts/BFLUX.sol\":3816:3833  balanceOf[sender] */\n      0xffffffffffffffffffffffffffffffffffffffff\n      and\n      0xffffffffffffffffffffffffffffffffffffffff\n      and\n      dup2\n      mstore\n      0x20\n      add\n      swap1\n      dup2\n      mstore\n      0x20\n      add\n      0x00\n      keccak256\n      sload\n        /* \"./contracts/BFLUX.sol\":3792:3833  uint256 senderBalance = balanceOf[sender] */\n      swap1\n      pop\n        /* \"./contracts/BFLUX.sol\":3864:3870  amount */\n      dup2\n        /* \"./contracts/BFLUX.sol\":3847:3860  senderBalance */\n      dup2\n        /* \"./contracts/BFLUX.sol\":3847:3870  senderBalance >= amount */\n      lt\n      iszero\n        /* \"./contracts/BFLUX.sol\":3839:3913  require(senderBalance >= amount, \"CRC20: transfer amount exceeds balance\") */\n      tag_142\n      jumpi\n      mload(0x40)\n      0x08c379a000000000000000000000000000000000000000000000000000000000\n      dup2\n      mstore\n      0x04\n      add\n      tag_143\n      swap1\n      tag_144\n      jump\t// in\n    tag_143:\n      mload(0x40)\n      dup1\n      swap2\n      sub\n      swap1\n      revert\n    tag_142:\n        /* \"./contracts/BFLUX.sol\":3975:3981  amount */\n      dup2\n        /* \"./contracts/BFLUX.sol\":3959:3972  senderBalance */\n      dup2\n        /* \"./contracts/BFLUX.sol\":3959:3981  senderBalance - amount */\n      sub\n        /* \"./contracts/BFLUX.sol\":3939:3948  balanceOf */\n      0x01\n        /* \"./contracts/BFLUX.sol\":3939:3956  balanceOf[sender] */\n      0x00\n        /* \"./contracts/BFLUX.sol\":3949:3955  sender */\n      dup7\n        /* \"./contracts/BFLUX.sol\":3939:3956  balanceOf[sender] */\n      0xffffffffffffffffffffffffffffffffffffffff\n      and\n      0xffffffffffffffffffffffffffffffffffffffff\n      and\n      dup2\n      mstore\n      0x20\n      add\n      swap1\n      dup2\n      mstore\n      0x20\n      add\n      0x00\n      keccak256\n        /* \"./contracts/BFLUX.sol\":3939:3981  balanceOf[sender] = senderBalance - amount */\n      dup2\n      swap1\n      sstore\n      pop\n        /* \"./contracts/BFLUX.sol\":4017:4023  amount */\n      dup2\n        /* \"./contracts/BFLUX.sol\":3993:4002  balanceOf */\n      0x01\n        /* \"./contracts/BFLUX.sol\":3993:4013  balanceOf[recipient] */\n      0x00\n        /* \"./contracts/BFLUX.sol\":4003:4012  recipient */\n      dup6\n        /* \"./contracts/BFLUX.sol\":3993:4013  balanceOf[recipient] */\n      0xffffffffffffffffffffffffffffffffffffffff\n      and\n      0xffffffffffffffffffffffffffffffffffffffff\n      and\n      dup2\n      mstore\n      0x20\n      add\n      swap1\n      dup2\n      mstore\n      0x20\n      add\n      0x00\n      keccak256\n      0x00\n        /* \"./contracts/BFLUX.sol\":3993:4023  balanceOf[recipient] += amount */\n      dup3\n      dup3\n      sload\n      tag_145\n      swap2\n      swap1\n      tag_98\n      jump\t// in\n    tag_145:\n      swap3\n      pop\n      pop\n      dup2\n      swap1\n      sstore\n      pop\n        /* \"./contracts/BFLUX.sol\":4052:4061  recipient */\n      dup3\n        /* \"./contracts/BFLUX.sol\":4035:4070  Transfer(sender, recipient, amount) */\n      0xffffffffffffffffffffffffffffffffffffffff\n      and\n        /* \"./contracts/BFLUX.sol\":4044:4050  sender */\n      dup5\n        /* \"./contracts/BFLUX.sol\":4035:4070  Transfer(sender, recipient, amount) */\n      0xffffffffffffffffffffffffffffffffffffffff\n      and\n      0xddf252ad1be2c89b69c2b068fc378daa952ba7f163c4a11628f55a4df523b3ef\n        /* \"./contracts/BFLUX.sol\":4063:4069  amount */\n      dup5\n        /* \"./contracts/BFLUX.sol\":4035:4070  Transfer(sender, recipient, amount) */\n      mload(0x40)\n      tag_146\n      swap2\n      swap1\n      tag_34\n      jump\t// in\n    tag_146:\n      mload(0x40)\n      dup1\n      swap2\n      sub\n      swap1\n      log3\n        /* \"./contracts/BFLUX.sol\":3537:4075  function _transfer(... */\n      pop\n      pop\n      pop\n      pop\n      jump\t// out\n        /* \"#utility.yul\":7:146   */\n    tag_148:\n      0x00\n        /* \"#utility.yul\":91:97   */\n      dup2\n        /* \"#utility.yul\":78:98   */\n      calldataload\n        /* \"#utility.yul\":69:98   */\n      swap1\n      pop\n        /* \"#utility.yul\":107:140   */\n      tag_150\n        /* \"#utility.yul\":134:139   */\n      dup2\n        /* \"#utility.yul\":107:140   */\n      tag_151\n      jump\t// in\n    tag_150:\n        /* \"#utility.yul\":59:146   */\n      swap3\n      swap2\n      pop\n      pop\n      jump\t// out\n        /* \"#utility.yul\":152:291   */\n    tag_152:\n      0x00\n        /* \"#utility.yul\":236:242   */\n      dup2\n        /* \"#utility.yul\":223:243   */\n      calldataload\n        /* \"#utility.yul\":214:243   */\n      swap1\n      pop\n        /* \"#utility.yul\":252:285   */\n      tag_154\n        /* \"#utility.yul\":279:284   */\n      dup2\n        /* \"#utility.yul\":252:285   */\n      tag_155\n      jump\t// in\n    tag_154:\n        /* \"#utility.yul\":204:291   */\n      swap3\n      swap2\n      pop\n      pop\n      jump\t// out\n        /* \"#utility.yul\":297:559   */\n    tag_57:\n      0x00\n        /* \"#utility.yul\":405:407   */\n      0x20\n        /* \"#utility.yul\":393:402   */\n      dup3\n        /* \"#utility.yul\":384:391   */\n      dup5\n        /* \"#utility.yul\":380:403   */\n      sub\n        /* \"#utility.yul\":376:408   */\n      slt\n        /* \"#utility.yul\":373:375   */\n      iszero\n      tag_157\n      jumpi\n        /* \"#utility.yul\":421:422   */\n      0x00\n        /* \"#utility.yul\":418:419   */\n      dup1\n        /* \"#utility.yul\":411:423   */\n      revert\n        /* \"#utility.yul\":373:375   */\n    tag_157:\n        /* \"#utility.yul\":464:465   */\n      0x00\n        /* \"#utility.yul\":489:542   */\n      tag_158\n        /* \"#utility.yul\":534:541   */\n      dup5\n        /* \"#utility.yul\":525:531   */\n      dup3\n        /* \"#utility.yul\":514:523   */\n      dup6\n        /* \"#utility.yul\":510:532   */\n      add\n        /* \"#utility.yul\":489:542   */\n      tag_148\n      jump\t// in\n    tag_158:\n        /* \"#utility.yul\":479:542   */\n      swap2\n      pop\n        /* \"#utility.yul\":435:552   */\n      pop\n        /* \"#utility.yul\":363:559   */\n      swap3\n      swap2\n      pop\n      pop\n      jump\t// out\n        /* \"#utility.yul\":565:972   */\n    tag_80:\n      0x00\n      dup1\n        /* \"#utility.yul\":690:692   */\n      0x40\n        /* \"#utility.yul\":678:687   */\n      dup4\n        /* \"#utility.yul\":669:676   */\n      dup6\n        /* \"#utility.yul\":665:688   */\n      sub\n        /* \"#utility.yul\":661:693   */\n      slt\n        /* \"#utility.yul\":658:660   */\n      iszero\n      tag_160\n      jumpi\n        /* \"#utility.yul\":706:707   */\n      0x00\n        /* \"#utility.yul\":703:704   */\n      dup1\n        /* \"#utility.yul\":696:708   */\n      revert\n        /* \"#utility.yul\":658:660   */\n    tag_160:\n        /* \"#utility.yul\":749:750   */\n      0x00\n        /* \"#utility.yul\":774:827   */\n      tag_161\n        /* \"#utility.yul\":819:826   */\n      dup6\n        /* \"#utility.yul\":810:816   */\n      dup3\n        /* \"#utility.yul\":799:808   */\n      dup7\n        /* \"#utility.yul\":795:817   */\n      add\n        /* \"#utility.yul\":774:827   */\n      tag_148\n      jump\t// in\n    tag_161:\n        /* \"#utility.yul\":764:827   */\n      swap3\n      pop\n        /* \"#utility.yul\":720:837   */\n      pop\n        /* \"#utility.yul\":876:878   */\n      0x20\n        /* \"#utility.yul\":902:955   */\n      tag_162\n        /* \"#utility.yul\":947:954   */\n      dup6\n        /* \"#utility.yul\":938:944   */\n      dup3\n        /* \"#utility.yul\":927:936   */\n      dup7\n        /* \"#utility.yul\":923:945   */\n      add\n        /* \"#utility.yul\":902:955   */\n      tag_148\n      jump\t// in\n    tag_162:\n        /* \"#utility.yul\":892:955   */\n      swap2\n      pop\n        /* \"#utility.yul\":847:965   */\n      pop\n        /* \"#utility.yul\":648:972   */\n      swap3\n      pop\n      swap3\n      swap1\n      pop\n      jump\t// out\n        /* \"#utility.yul\":978:1530   */\n    tag_37:\n      0x00\n      dup1\n      0x00\n        /* \"#utility.yul\":1120:1122   */\n      0x60\n        /* \"#utility.yul\":1108:1117   */\n      dup5\n        /* \"#utility.yul\":1099:1106   */\n      dup7\n        /* \"#utility.yul\":1095:1118   */\n      sub\n        /* \"#utility.yul\":1091:1123   */\n      slt\n        /* \"#utility.yul\":1088:1090   */\n      iszero\n      tag_164\n      jumpi\n        /* \"#utility.yul\":1136:1137   */\n      0x00\n        /* \"#utility.yul\":1133:1134   */\n      dup1\n        /* \"#utility.yul\":1126:1138   */\n      revert\n        /* \"#utility.yul\":1088:1090   */\n    tag_164:\n        /* \"#utility.yul\":1179:1180   */\n      0x00\n        /* \"#utility.yul\":1204:1257   */\n      tag_165\n        /* \"#utility.yul\":1249:1256   */\n      dup7\n        /* \"#utility.yul\":1240:1246   */\n      dup3\n        /* \"#utility.yul\":1229:1238   */\n      dup8\n        /* \"#utility.yul\":1225:1247   */\n      add\n        /* \"#utility.yul\":1204:1257   */\n      tag_148\n      jump\t// in\n    tag_165:\n        /* \"#utility.yul\":1194:1257   */\n      swap4\n      pop\n        /* \"#utility.yul\":1150:1267   */\n      pop\n        /* \"#utility.yul\":1306:1308   */\n      0x20\n        /* \"#utility.yul\":1332:1385   */\n      tag_166\n        /* \"#utility.yul\":1377:1384   */\n      dup7\n        /* \"#utility.yul\":1368:1374   */\n      dup3\n        /* \"#utility.yul\":1357:1366   */\n      dup8\n        /* \"#utility.yul\":1353:1375   */\n      add\n        /* \"#utility.yul\":1332:1385   */\n      tag_148\n      jump\t// in\n    tag_166:\n        /* \"#utility.yul\":1322:1385   */\n      swap3\n      pop\n        /* \"#utility.yul\":1277:1395   */\n      pop\n        /* \"#utility.yul\":1434:1436   */\n      0x40\n        /* \"#utility.yul\":1460:1513   */\n      tag_167\n        /* \"#utility.yul\":1505:1512   */\n      dup7\n        /* \"#utility.yul\":1496:1502   */\n      dup3\n        /* \"#utility.yul\":1485:1494   */\n      dup8\n        /* \"#utility.yul\":1481:1503   */\n      add\n        /* \"#utility.yul\":1460:1513   */\n      tag_152\n      jump\t// in\n    tag_167:\n        /* \"#utility.yul\":1450:1513   */\n      swap2\n      pop\n        /* \"#utility.yul\":1405:1523   */\n      pop\n        /* \"#utility.yul\":1078:1530   */\n      swap3\n      pop\n      swap3\n      pop\n      swap3\n      jump\t// out\n        /* \"#utility.yul\":1536:1943   */\n    tag_27:\n      0x00\n      dup1\n        /* \"#utility.yul\":1661:1663   */\n      0x40\n        /* \"#utility.yul\":1649:1658   */\n      dup4\n        /* \"#utility.yul\":1640:1647   */\n      dup6\n        /* \"#utility.yul\":1636:1659   */\n      sub\n        /* \"#utility.yul\":1632:1664   */\n      slt\n        /* \"#utility.yul\":1629:1631   */\n      iszero\n      tag_169\n      jumpi\n        /* \"#utility.yul\":1677:1678   */\n      0x00\n        /* \"#utility.yul\":1674:1675   */\n      dup1\n        /* \"#utility.yul\":1667:1679   */\n      revert\n        /* \"#utility.yul\":1629:1631   */\n    tag_169:\n        /* \"#utility.yul\":1720:1721   */\n      0x00\n        /* \"#utility.yul\":1745:1798   */\n      tag_170\n        /* \"#utility.yul\":1790:1797   */\n      dup6\n        /* \"#utility.yul\":1781:1787   */\n      dup3\n        /* \"#utility.yul\":1770:1779   */\n      dup7\n        /* \"#utility.yul\":1766:1788   */\n      add\n        /* \"#utility.yul\":1745:1798   */\n      tag_148\n      jump\t// in\n    tag_170:\n        /* \"#utility.yul\":1735:1798   */\n      swap3\n      pop\n        /* \"#utility.yul\":1691:1808   */\n      pop\n        /* \"#utility.yul\":1847:1849   */\n      0x20\n        /* \"#utility.yul\":1873:1926   */\n      tag_171\n        /* \"#utility.yul\":1918:1925   */\n      dup6\n        /* \"#utility.yul\":1909:1915   */\n      dup3\n        /* \"#utility.yul\":1898:1907   */\n      dup7\n        /* \"#utility.yul\":1894:1916   */\n      add\n        /* \"#utility.yul\":1873:1926   */\n      tag_152\n      jump\t// in\n    tag_171:\n        /* \"#utility.yul\":1863:1926   */\n      swap2\n      pop\n        /* \"#utility.yul\":1818:1936   */\n      pop\n        /* \"#utility.yul\":1619:1943   */\n      swap3\n      pop\n      swap3\n      swap1\n      pop\n      jump\t// out\n        /* \"#utility.yul\":1949:2211   */\n    tag_53:\n      0x00\n        /* \"#utility.yul\":2057:2059   */\n      0x20\n        /* \"#utility.yul\":2045:2054   */\n      dup3\n        /* \"#utility.yul\":2036:2043   */\n      dup5\n        /* \"#utility.yul\":2032:2055   */\n      sub\n        /* \"#utility.yul\":2028:2060   */\n      slt\n        /* \"#utility.yul\":2025:2027   */\n      iszero\n      tag_173\n      jumpi\n        /* \"#utility.yul\":2073:2074   */\n      0x00\n        /* \"#utility.yul\":2070:2071   */\n      dup1\n        /* \"#utility.yul\":2063:2075   */\n      revert\n        /* \"#utility.yul\":2025:2027   */\n    tag_173:\n        /* \"#utility.yul\":2116:2117   */\n      0x00\n        /* \"#utility.yul\":2141:2194   */\n      tag_174\n        /* \"#utility.yul\":2186:2193   */\n      dup5\n        /* \"#utility.yul\":2177:2183   */\n      dup3\n        /* \"#utility.yul\":2166:2175   */\n      dup6\n        /* \"#utility.yul\":2162:2184   */\n      add\n        /* \"#utility.yul\":2141:2194   */\n      tag_152\n      jump\t// in\n    tag_174:\n        /* \"#utility.yul\":2131:2194   */\n      swap2\n      pop\n        /* \"#utility.yul\":2087:2204   */\n      pop\n        /* \"#utility.yul\":2015:2211   */\n      swap3\n      swap2\n      pop\n      pop\n      jump\t// out\n        /* \"#utility.yul\":2217:2335   */\n    tag_175:\n        /* \"#utility.yul\":2304:2328   */\n      tag_177\n        /* \"#utility.yul\":2322:2327   */\n      dup2\n        /* \"#utility.yul\":2304:2328   */\n      tag_178\n      jump\t// in\n    tag_177:\n        /* \"#utility.yul\":2299:2302   */\n      dup3\n        /* \"#utility.yul\":2292:2329   */\n      mstore\n        /* \"#utility.yul\":2282:2335   */\n      pop\n      pop\n      jump\t// out\n        /* \"#utility.yul\":2341:2450   */\n    tag_179:\n        /* \"#utility.yul\":2422:2443   */\n      tag_181\n        /* \"#utility.yul\":2437:2442   */\n      dup2\n        /* \"#utility.yul\":2422:2443   */\n      tag_182\n      jump\t// in\n    tag_181:\n        /* \"#utility.yul\":2417:2420   */\n      dup3\n        /* \"#utility.yul\":2410:2444   */\n      mstore\n        /* \"#utility.yul\":2400:2450   */\n      pop\n      pop\n      jump\t// out\n        /* \"#utility.yul\":2456:2820   */\n    tag_183:\n      0x00\n        /* \"#utility.yul\":2572:2611   */\n      tag_185\n        /* \"#utility.yul\":2605:2610   */\n      dup3\n        /* \"#utility.yul\":2572:2611   */\n      tag_186\n      jump\t// in\n    tag_185:\n        /* \"#utility.yul\":2627:2698   */\n      tag_187\n        /* \"#utility.yul\":2691:2697   */\n      dup2\n        /* \"#utility.yul\":2686:2689   */\n      dup6\n        /* \"#utility.yul\":2627:2698   */\n      tag_188\n      jump\t// in\n    tag_187:\n        /* \"#utility.yul\":2620:2698   */\n      swap4\n      pop\n        /* \"#utility.yul\":2707:2759   */\n      tag_189\n        /* \"#utility.yul\":2752:2758   */\n      dup2\n        /* \"#utility.yul\":2747:2750   */\n      dup6\n        /* \"#utility.yul\":2740:2744   */\n      0x20\n        /* \"#utility.yul\":2733:2738   */\n      dup7\n        /* \"#utility.yul\":2729:2745   */\n      add\n        /* \"#utility.yul\":2707:2759   */\n      tag_190\n      jump\t// in\n    tag_189:\n        /* \"#utility.yul\":2784:2813   */\n      tag_191\n        /* \"#utility.yul\":2806:2812   */\n      dup2\n        /* \"#utility.yul\":2784:2813   */\n      tag_192\n      jump\t// in\n    tag_191:\n        /* \"#utility.yul\":2779:2782   */\n      dup5\n        /* \"#utility.yul\":2775:2814   */\n      add\n        /* \"#utility.yul\":2768:2814   */\n      swap2\n      pop\n        /* \"#utility.yul\":2548:2820   */\n      pop\n      swap3\n      swap2\n      pop\n      pop\n      jump\t// out\n        /* \"#utility.yul\":2826:3191   */\n    tag_193:\n      0x00\n        /* \"#utility.yul\":2989:3056   */\n      tag_195\n        /* \"#utility.yul\":3053:3055   */\n      0x21\n        /* \"#utility.yul\":3048:3051   */\n      dup4\n        /* \"#utility.yul\":2989:3056   */\n      tag_188\n      jump\t// in\n    tag_195:\n        /* \"#utility.yul\":2982:3056   */\n      swap2\n      pop\n        /* \"#utility.yul\":3086:3120   */\n      0x43524332303a206275726e2066726f6d20746865207a65726f20616464726573\n        /* \"#utility.yul\":3082:3083   */\n      0x00\n        /* \"#utility.yul\":3077:3080   */\n      dup4\n        /* \"#utility.yul\":3073:3084   */\n      add\n        /* \"#utility.yul\":3066:3121   */\n      mstore\n        /* \"#utility.yul\":3152:3155   */\n      0x7300000000000000000000000000000000000000000000000000000000000000\n        /* \"#utility.yul\":3147:3149   */\n      0x20\n        /* \"#utility.yul\":3142:3145   */\n      dup4\n        /* \"#utility.yul\":3138:3150   */\n      add\n        /* \"#utility.yul\":3131:3156   */\n      mstore\n        /* \"#utility.yul\":3182:3184   */\n      0x40\n        /* \"#utility.yul\":3177:3180   */\n      dup3\n        /* \"#utility.yul\":3173:3185   */\n      add\n        /* \"#utility.yul\":3166:3185   */\n      swap1\n      pop\n        /* \"#utility.yul\":2972:3191   */\n      swap2\n      swap1\n      pop\n      jump\t// out\n        /* \"#utility.yul\":3197:3565   */\n    tag_196:\n      0x00\n        /* \"#utility.yul\":3360:3427   */\n      tag_198\n        /* \"#utility.yul\":3424:3426   */\n      0x24\n        /* \"#utility.yul\":3419:3422   */\n      dup4\n        /* \"#utility.yul\":3360:3427   */\n      tag_188\n      jump\t// in\n    tag_198:\n        /* \"#utility.yul\":3353:3427   */\n      swap2\n      pop\n        /* \"#utility.yul\":3457:3491   */\n      0x43524332303a20617070726f76652066726f6d20746865207a65726f20616464\n        /* \"#utility.yul\":3453:3454   */\n      0x00\n        /* \"#utility.yul\":3448:3451   */\n      dup4\n        /* \"#utility.yul\":3444:3455   */\n      add\n        /* \"#utility.yul\":3437:3492   */\n      mstore\n        /* \"#utility.yul\":3523:3529   */\n      0x7265737300000000000000000000000000000000000000000000000000000000\n        /* \"#utility.yul\":3518:3520   */\n      0x20\n        /* \"#utility.yul\":3513:3516   */\n      dup4\n        /* \"#utility.yul\":3509:3521   */\n      add\n        /* \"#utility.yul\":3502:3530   */\n      mstore\n        /* \"#utility.yul\":3556:3558   */\n      0x40\n        /* \"#utility.yul\":3551:3554   */\n      dup3\n        /* \"#utility.yul\":3547:3559   */\n      add\n        /* \"#utility.yul\":3540:3559   */\n      swap1\n      pop\n        /* \"#utility.yul\":3343:3565   */\n      swap2\n      swap1\n      pop\n      jump\t// out\n        /* \"#utility.yul\":3571:3937   */\n    tag_199:\n      0x00\n        /* \"#utility.yul\":3734:3801   */\n      tag_201\n        /* \"#utility.yul\":3798:3800   */\n      0x22\n        /* \"#utility.yul\":3793:3796   */\n      dup4\n        /* \"#utility.yul\":3734:3801   */\n      tag_188\n      jump\t// in\n    tag_201:\n        /* \"#utility.yul\":3727:3801   */\n      swap2\n      pop\n        /* \"#utility.yul\":3831:3865   */\n      0x43524332303a20617070726f766520746f20746865207a65726f206164647265\n        /* \"#utility.yul\":3827:3828   */\n      0x00\n        /* \"#utility.yul\":3822:3825   */\n      dup4\n        /* \"#utility.yul\":3818:3829   */\n      add\n        /* \"#utility.yul\":3811:3866   */\n      mstore\n        /* \"#utility.yul\":3897:3901   */\n      0x7373000000000000000000000000000000000000000000000000000000000000\n        /* \"#utility.yul\":3892:3894   */\n      0x20\n        /* \"#utility.yul\":3887:3890   */\n      dup4\n        /* \"#utility.yul\":3883:3895   */\n      add\n        /* \"#utility.yul\":3876:3902   */\n      mstore\n        /* \"#utility.yul\":3928:3930   */\n      0x40\n        /* \"#utility.yul\":3923:3926   */\n      dup3\n        /* \"#utility.yul\":3919:3931   */\n      add\n        /* \"#utility.yul\":3912:3931   */\n      swap1\n      pop\n        /* \"#utility.yul\":3717:3937   */\n      swap2\n      swap1\n      pop\n      jump\t// out\n        /* \"#utility.yul\":3943:4309   */\n    tag_202:\n      0x00\n        /* \"#utility.yul\":4106:4173   */\n      tag_204\n        /* \"#utility.yul\":4170:4172   */\n      0x22\n        /* \"#utility.yul\":4165:4168   */\n      dup4\n        /* \"#utility.yul\":4106:4173   */\n      tag_188\n      jump\t// in\n    tag_204:\n        /* \"#utility.yul\":4099:4173   */\n      swap2\n      pop\n        /* \"#utility.yul\":4203:4237   */\n      0x43524332303a206275726e20616d6f756e7420657863656564732062616c616e\n        /* \"#utility.yul\":4199:4200   */\n      0x00\n        /* \"#utility.yul\":4194:4197   */\n      dup4\n        /* \"#utility.yul\":4190:4201   */\n      add\n        /* \"#utility.yul\":4183:4238   */\n      mstore\n        /* \"#utility.yul\":4269:4273   */\n      0x6365000000000000000000000000000000000000000000000000000000000000\n        /* \"#utility.yul\":4264:4266   */\n      0x20\n        /* \"#utility.yul\":4259:4262   */\n      dup4\n        /* \"#utility.yul\":4255:4267   */\n      add\n        /* \"#utility.yul\":4248:4274   */\n      mstore\n        /* \"#utility.yul\":4300:4302   */\n      0x40\n        /* \"#utility.yul\":4295:4298   */\n      dup3\n        /* \"#utility.yul\":4291:4303   */\n      add\n        /* \"#utility.yul\":4284:4303   */\n      swap1\n      pop\n        /* \"#utility.yul\":4089:4309   */\n      swap2\n      swap1\n      pop\n      jump\t// out\n        /* \"#utility.yul\":4315:4644   */\n    tag_205:\n      0x00\n        /* \"#utility.yul\":4478:4545   */\n      tag_207\n        /* \"#utility.yul\":4542:4544   */\n      0x1f\n        /* \"#utility.yul\":4537:4540   */\n      dup4\n        /* \"#utility.yul\":4478:4545   */\n      tag_188\n      jump\t// in\n    tag_207:\n        /* \"#utility.yul\":4471:4545   */\n      swap2\n      pop\n        /* \"#utility.yul\":4575:4608   */\n      0x43524332303a206d696e7420746f20746865207a65726f206164647265737300\n        /* \"#utility.yul\":4571:4572   */\n      0x00\n        /* \"#utility.yul\":4566:4569   */\n      dup4\n        /* \"#utility.yul\":4562:4573   */\n      add\n        /* \"#utility.yul\":4555:4609   */\n      mstore\n        /* \"#utility.yul\":4635:4637   */\n      0x20\n        /* \"#utility.yul\":4630:4633   */\n      dup3\n        /* \"#utility.yul\":4626:4638   */\n      add\n        /* \"#utility.yul\":4619:4638   */\n      swap1\n      pop\n        /* \"#utility.yul\":4461:4644   */\n      swap2\n      swap1\n      pop\n      jump\t// out\n        /* \"#utility.yul\":4650:5019   */\n    tag_208:\n      0x00\n        /* \"#utility.yul\":4813:4880   */\n      tag_210\n        /* \"#utility.yul\":4877:4879   */\n      0x25\n        /* \"#utility.yul\":4872:4875   */\n      dup4\n        /* \"#utility.yul\":4813:4880   */\n      tag_188\n      jump\t// in\n    tag_210:\n        /* \"#utility.yul\":4806:4880   */\n      swap2\n      pop\n        /* \"#utility.yul\":4910:4944   */\n      0x43524332303a207472616e736665722066726f6d20746865207a65726f206164\n        /* \"#utility.yul\":4906:4907   */\n      0x00\n        /* \"#utility.yul\":4901:4904   */\n      dup4\n        /* \"#utility.yul\":4897:4908   */\n      add\n        /* \"#utility.yul\":4890:4945   */\n      mstore\n        /* \"#utility.yul\":4976:4983   */\n      0x6472657373000000000000000000000000000000000000000000000000000000\n        /* \"#utility.yul\":4971:4973   */\n      0x20\n        /* \"#utility.yul\":4966:4969   */\n      dup4\n        /* \"#utility.yul\":4962:4974   */\n      add\n        /* \"#utility.yul\":4955:4984   */\n      mstore\n        /* \"#utility.yul\":5010:5012   */\n      0x40\n        /* \"#utility.yul\":5005:5008   */\n      dup3\n        /* \"#utility.yul\":5001:5013   */\n      add\n        /* \"#utility.yul\":4994:5013   */\n      swap1\n      pop\n        /* \"#utility.yul\":4796:5019   */\n      swap2\n      swap1\n      pop\n      jump\t// out\n        /* \"#utility.yul\":5025:5395   */\n    tag_211:\n      0x00\n        /* \"#utility.yul\":5188:5255   */\n      tag_213\n        /* \"#utility.yul\":5252:5254   */\n      0x26\n        /* \"#utility.yul\":5247:5250   */\n      dup4\n        /* \"#utility.yul\":5188:5255   */\n      tag_188\n      jump\t// in\n    tag_213:\n        /* \"#utility.yul\":5181:5255   */\n      swap2\n      pop\n        /* \"#utility.yul\":5285:5319   */\n      0x43524332303a207472616e7366657220616d6f756e7420657863656564732062\n        /* \"#utility.yul\":5281:5282   */\n      0x00\n        /* \"#utility.yul\":5276:5279   */\n      dup4\n        /* \"#utility.yul\":5272:5283   */\n      add\n        /* \"#utility.yul\":5265:5320   */\n      mstore\n        /* \"#utility.yul\":5351:5359   */\n      0x616c616e63650000000000000000000000000000000000000000000000000000\n        /* \"#utility.yul\":5346:5348   */\n      0x20\n        /* \"#utility.yul\":5341:5344   */\n      dup4\n        /* \"#utility.yul\":5337:5349   */\n      add\n        /* \"#utility.yul\":5330:5360   */\n      mstore\n        /* \"#utility.yul\":5386:5388   */\n      0x40\n        /* \"#utility.yul\":5381:5384   */\n      dup3\n        /* \"#utility.yul\":5377:5389   */\n      add\n        /* \"#utility.yul\":5370:5389   */\n      swap1\n      pop\n        /* \"#utility.yul\":5171:5395   */\n      swap2\n      swap1\n      pop\n      jump\t// out\n        /* \"#utility.yul\":5401:5770   */\n    tag_214:\n      0x00\n        /* \"#utility.yul\":5564:5631   */\n      tag_216\n        /* \"#utility.yul\":5628:5630   */\n      0x25\n        /* \"#utility.yul\":5623:5626   */\n      dup4\n        /* \"#utility.yul\":5564:5631   */\n      tag_188\n      jump\t// in\n    tag_216:\n        /* \"#utility.yul\":5557:5631   */\n      swap2\n      pop\n        /* \"#utility.yul\":5661:5695   */\n      0x43524332303a2064656372656173656420616c6c6f77616e63652062656c6f77\n        /* \"#utility.yul\":5657:5658   */\n      0x00\n        /* \"#utility.yul\":5652:5655   */\n      dup4\n        /* \"#utility.yul\":5648:5659   */\n      add\n        /* \"#utility.yul\":5641:5696   */\n      mstore\n        /* \"#utility.yul\":5727:5734   */\n      0x207a65726f000000000000000000000000000000000000000000000000000000\n        /* \"#utility.yul\":5722:5724   */\n      0x20\n        /* \"#utility.yul\":5717:5720   */\n      dup4\n        /* \"#utility.yul\":5713:5725   */\n      add\n        /* \"#utility.yul\":5706:5735   */\n      mstore\n        /* \"#utility.yul\":5761:5763   */\n      0x40\n        /* \"#utility.yul\":5756:5759   */\n      dup3\n        /* \"#utility.yul\":5752:5764   */\n      add\n        /* \"#utility.yul\":5745:5764   */\n      swap1\n      pop\n        /* \"#utility.yul\":5547:5770   */\n      swap2\n      swap1\n      pop\n      jump\t// out\n        /* \"#utility.yul\":5776:6143   */\n    tag_217:\n      0x00\n        /* \"#utility.yul\":5939:6006   */\n      tag_219\n        /* \"#utility.yul\":6003:6005   */\n      0x23\n        /* \"#utility.yul\":5998:6001   */\n      dup4\n        /* \"#utility.yul\":5939:6006   */\n      tag_188\n      jump\t// in\n    tag_219:\n        /* \"#utility.yul\":5932:6006   */\n      swap2\n      pop\n        /* \"#utility.yul\":6036:6070   */\n      0x43524332303a207472616e7366657220746f20746865207a65726f2061646472\n        /* \"#utility.yul\":6032:6033   */\n      0x00\n        /* \"#utility.yul\":6027:6030   */\n      dup4\n        /* \"#utility.yul\":6023:6034   */\n      add\n        /* \"#utility.yul\":6016:6071   */\n      mstore\n        /* \"#utility.yul\":6102:6107   */\n      0x6573730000000000000000000000000000000000000000000000000000000000\n        /* \"#utility.yul\":6097:6099   */\n      0x20\n        /* \"#utility.yul\":6092:6095   */\n      dup4\n        /* \"#utility.yul\":6088:6100   */\n      add\n        /* \"#utility.yul\":6081:6108   */\n      mstore\n        /* \"#utility.yul\":6134:6136   */\n      0x40\n        /* \"#utility.yul\":6129:6132   */\n      dup3\n        /* \"#utility.yul\":6125:6137   */\n      add\n        /* \"#utility.yul\":6118:6137   */\n      swap1\n      pop\n        /* \"#utility.yul\":5922:6143   */\n      swap2\n      swap1\n      pop\n      jump\t// out\n        /* \"#utility.yul\":6149:6521   */\n    tag_220:\n      0x00\n        /* \"#utility.yul\":6312:6379   */\n      tag_222\n        /* \"#utility.yul\":6376:6378   */\n      0x28\n        /* \"#utility.yul\":6371:6374   */\n      dup4\n        /* \"#utility.yul\":6312:6379   */\n      tag_188\n      jump\t// in\n    tag_222:\n        /* \"#utility.yul\":6305:6379   */\n      swap2\n      pop\n        /* \"#utility.yul\":6409:6443   */\n      0x43524332303a207472616e7366657220616d6f756e7420657863656564732061\n        /* \"#utility.yul\":6405:6406   */\n      0x00\n        /* \"#utility.yul\":6400:6403   */\n      dup4\n        /* \"#utility.yul\":6396:6407   */\n      add\n        /* \"#utility.yul\":6389:6444   */\n      mstore\n        /* \"#utility.yul\":6475:6485   */\n      0x6c6c6f77616e6365000000000000000000000000000000000000000000000000\n        /* \"#utility.yul\":6470:6472   */\n      0x20\n        /* \"#utility.yul\":6465:6468   */\n      dup4\n        /* \"#utility.yul\":6461:6473   */\n      add\n        /* \"#utility.yul\":6454:6486   */\n      mstore\n        /* \"#utility.yul\":6512:6514   */\n      0x40\n        /* \"#utility.yul\":6507:6510   */\n      dup3\n        /* \"#utility.yul\":6503:6515   */\n      add\n        /* \"#utility.yul\":6496:6515   */\n      swap1\n      pop\n        /* \"#utility.yul\":6295:6521   */\n      swap2\n      swap1\n      pop\n      jump\t// out\n        /* \"#utility.yul\":6527:6892   */\n    tag_223:\n      0x00\n        /* \"#utility.yul\":6690:6757   */\n      tag_225\n        /* \"#utility.yul\":6754:6756   */\n      0x21\n        /* \"#utility.yul\":6749:6752   */\n      dup4\n        /* \"#utility.yul\":6690:6757   */\n      tag_188\n      jump\t// in\n    tag_225:\n        /* \"#utility.yul\":6683:6757   */\n      swap2\n      pop\n        /* \"#utility.yul\":6787:6821   */\n      0x4f6e6c79204f776e65722063616e2063616c6c20746869732066756e6374696f\n        /* \"#utility.yul\":6783:6784   */\n      0x00\n        /* \"#utility.yul\":6778:6781   */\n      dup4\n        /* \"#utility.yul\":6774:6785   */\n      add\n        /* \"#utility.yul\":6767:6822   */\n      mstore\n        /* \"#utility.yul\":6853:6856   */\n      0x6e00000000000000000000000000000000000000000000000000000000000000\n        /* \"#utility.yul\":6848:6850   */\n      0x20\n        /* \"#utility.yul\":6843:6846   */\n      dup4\n        /* \"#utility.yul\":6839:6851   */\n      add\n        /* \"#utility.yul\":6832:6857   */\n      mstore\n        /* \"#utility.yul\":6883:6885   */\n      0x40\n        /* \"#utility.yul\":6878:6881   */\n      dup3\n        /* \"#utility.yul\":6874:6886   */\n      add\n        /* \"#utility.yul\":6867:6886   */\n      swap1\n      pop\n        /* \"#utility.yul\":6673:6892   */\n      swap2\n      swap1\n      pop\n      jump\t// out\n        /* \"#utility.yul\":6898:7016   */\n    tag_226:\n        /* \"#utility.yul\":6985:7009   */\n      tag_228\n        /* \"#utility.yul\":7003:7008   */\n      dup2\n        /* \"#utility.yul\":6985:7009   */\n      tag_229\n      jump\t// in\n    tag_228:\n        /* \"#utility.yul\":6980:6983   */\n      dup3\n        /* \"#utility.yul\":6973:7010   */\n      mstore\n        /* \"#utility.yul\":6963:7016   */\n      pop\n      pop\n      jump\t// out\n        /* \"#utility.yul\":7022:7134   */\n    tag_230:\n        /* \"#utility.yul\":7105:7127   */\n      tag_232\n        /* \"#utility.yul\":7121:7126   */\n      dup2\n        /* \"#utility.yul\":7105:7127   */\n      tag_233\n      jump\t// in\n    tag_232:\n        /* \"#utility.yul\":7100:7103   */\n      dup3\n        /* \"#utility.yul\":7093:7128   */\n      mstore\n        /* \"#utility.yul\":7083:7134   */\n      pop\n      pop\n      jump\t// out\n        /* \"#utility.yul\":7140:7362   */\n    tag_63:\n      0x00\n        /* \"#utility.yul\":7271:7273   */\n      0x20\n        /* \"#utility.yul\":7260:7269   */\n      dup3\n        /* \"#utility.yul\":7256:7274   */\n      add\n        /* \"#utility.yul\":7248:7274   */\n      swap1\n      pop\n        /* \"#utility.yul\":7284:7355   */\n      tag_235\n        /* \"#utility.yul\":7352:7353   */\n      0x00\n        /* \"#utility.yul\":7341:7350   */\n      dup4\n        /* \"#utility.yul\":7337:7354   */\n      add\n        /* \"#utility.yul\":7328:7334   */\n      dup5\n        /* \"#utility.yul\":7284:7355   */\n      tag_175\n      jump\t// in\n    tag_235:\n        /* \"#utility.yul\":7238:7362   */\n      swap3\n      swap2\n      pop\n      pop\n      jump\t// out\n        /* \"#utility.yul\":7368:7578   */\n    tag_30:\n      0x00\n        /* \"#utility.yul\":7493:7495   */\n      0x20\n        /* \"#utility.yul\":7482:7491   */\n      dup3\n        /* \"#utility.yul\":7478:7496   */\n      add\n        /* \"#utility.yul\":7470:7496   */\n      swap1\n      pop\n        /* \"#utility.yul\":7506:7571   */\n      tag_237\n        /* \"#utility.yul\":7568:7569   */\n      0x00\n        /* \"#utility.yul\":7557:7566   */\n      dup4\n        /* \"#utility.yul\":7553:7570   */\n      add\n        /* \"#utility.yul\":7544:7550   */\n      dup5\n        /* \"#utility.yul\":7506:7571   */\n      tag_179\n      jump\t// in\n    tag_237:\n        /* \"#utility.yul\":7460:7578   */\n      swap3\n      swap2\n      pop\n      pop\n      jump\t// out\n        /* \"#utility.yul\":7584:7897   */\n    tag_24:\n      0x00\n        /* \"#utility.yul\":7735:7737   */\n      0x20\n        /* \"#utility.yul\":7724:7733   */\n      dup3\n        /* \"#utility.yul\":7720:7738   */\n      add\n        /* \"#utility.yul\":7712:7738   */\n      swap1\n      pop\n        /* \"#utility.yul\":7784:7793   */\n      dup2\n        /* \"#utility.yul\":7778:7782   */\n      dup2\n        /* \"#utility.yul\":7774:7794   */\n      sub\n        /* \"#utility.yul\":7770:7771   */\n      0x00\n        /* \"#utility.yul\":7759:7768   */\n      dup4\n        /* \"#utility.yul\":7755:7772   */\n      add\n        /* \"#utility.yul\":7748:7795   */\n      mstore\n        /* \"#utility.yul\":7812:7890   */\n      tag_239\n        /* \"#utility.yul\":7885:7889   */\n      dup2\n        /* \"#utility.yul\":7876:7882   */\n      dup5\n        /* \"#utility.yul\":7812:7890   */\n      tag_183\n      jump\t// in\n    tag_239:\n        /* \"#utility.yul\":7804:7890   */\n      swap1\n      pop\n        /* \"#utility.yul\":7702:7897   */\n      swap3\n      swap2\n      pop\n      pop\n      jump\t// out\n        /* \"#utility.yul\":7903:8322   */\n    tag_113:\n      0x00\n        /* \"#utility.yul\":8107:8109   */\n      0x20\n        /* \"#utility.yul\":8096:8105   */\n      dup3\n        /* \"#utility.yul\":8092:8110   */\n      add\n        /* \"#utility.yul\":8084:8110   */\n      swap1\n      pop\n        /* \"#utility.yul\":8156:8165   */\n      dup2\n        /* \"#utility.yul\":8150:8154   */\n      dup2\n        /* \"#utility.yul\":8146:8166   */\n      sub\n        /* \"#utility.yul\":8142:8143   */\n      0x00\n        /* \"#utility.yul\":8131:8140   */\n      dup4\n        /* \"#utility.yul\":8127:8144   */\n      add\n        /* \"#utility.yul\":8120:8167   */\n      mstore\n        /* \"#utility.yul\":8184:8315   */\n      tag_241\n        /* \"#utility.yul\":8310:8314   */\n      dup2\n        /* \"#utility.yul\":8184:8315   */\n      tag_193\n      jump\t// in\n    tag_241:\n        /* \"#utility.yul\":8176:8315   */\n      swap1\n      pop\n        /* \"#utility.yul\":8074:8322   */\n      swap2\n      swap1\n      pop\n      jump\t// out\n        /* \"#utility.yul\":8328:8747   */\n    tag_130:\n      0x00\n        /* \"#utility.yul\":8532:8534   */\n      0x20\n        /* \"#utility.yul\":8521:8530   */\n      dup3\n        /* \"#utility.yul\":8517:8535   */\n      add\n        /* \"#utility.yul\":8509:8535   */\n      swap1\n      pop\n        /* \"#utility.yul\":8581:8590   */\n      dup2\n        /* \"#utility.yul\":8575:8579   */\n      dup2\n        /* \"#utility.yul\":8571:8591   */\n      sub\n        /* \"#utility.yul\":8567:8568   */\n      0x00\n        /* \"#utility.yul\":8556:8565   */\n      dup4\n        /* \"#utility.yul\":8552:8569   */\n      add\n        /* \"#utility.yul\":8545:8592   */\n      mstore\n        /* \"#utility.yul\":8609:8740   */\n      tag_243\n        /* \"#utility.yul\":8735:8739   */\n      dup2\n        /* \"#utility.yul\":8609:8740   */\n      tag_196\n      jump\t// in\n    tag_243:\n        /* \"#utility.yul\":8601:8740   */\n      swap1\n      pop\n        /* \"#utility.yul\":8499:8747   */\n      swap2\n      swap1\n      pop\n      jump\t// out\n        /* \"#utility.yul\":8753:9172   */\n    tag_133:\n      0x00\n        /* \"#utility.yul\":8957:8959   */\n      0x20\n        /* \"#utility.yul\":8946:8955   */\n      dup3\n        /* \"#utility.yul\":8942:8960   */\n      add\n        /* \"#utility.yul\":8934:8960   */\n      swap1\n      pop\n        /* \"#utility.yul\":9006:9015   */\n      dup2\n        /* \"#utility.yul\":9000:9004   */\n      dup2\n        /* \"#utility.yul\":8996:9016   */\n      sub\n        /* \"#utility.yul\":8992:8993   */\n      0x00\n        /* \"#utility.yul\":8981:8990   */\n      dup4\n        /* \"#utility.yul\":8977:8994   */\n      add\n        /* \"#utility.yul\":8970:9017   */\n      mstore\n        /* \"#utility.yul\":9034:9165   */\n      tag_245\n        /* \"#utility.yul\":9160:9164   */\n      dup2\n        /* \"#utility.yul\":9034:9165   */\n      tag_199\n      jump\t// in\n    tag_245:\n        /* \"#utility.yul\":9026:9165   */\n      swap1\n      pop\n        /* \"#utility.yul\":8924:9172   */\n      swap2\n      swap1\n      pop\n      jump\t// out\n        /* \"#utility.yul\":9178:9597   */\n    tag_116:\n      0x00\n        /* \"#utility.yul\":9382:9384   */\n      0x20\n        /* \"#utility.yul\":9371:9380   */\n      dup3\n        /* \"#utility.yul\":9367:9385   */\n      add\n        /* \"#utility.yul\":9359:9385   */\n      swap1\n      pop\n        /* \"#utility.yul\":9431:9440   */\n      dup2\n        /* \"#utility.yul\":9425:9429   */\n      dup2\n        /* \"#utility.yul\":9421:9441   */\n      sub\n        /* \"#utility.yul\":9417:9418   */\n      0x00\n        /* \"#utility.yul\":9406:9415   */\n      dup4\n        /* \"#utility.yul\":9402:9419   */\n      add\n        /* \"#utility.yul\":9395:9442   */\n      mstore\n        /* \"#utility.yul\":9459:9590   */\n      tag_247\n        /* \"#utility.yul\":9585:9589   */\n      dup2\n        /* \"#utility.yul\":9459:9590   */\n      tag_202\n      jump\t// in\n    tag_247:\n        /* \"#utility.yul\":9451:9590   */\n      swap1\n      pop\n        /* \"#utility.yul\":9349:9597   */\n      swap2\n      swap1\n      pop\n      jump\t// out\n        /* \"#utility.yul\":9603:10022   */\n    tag_106:\n      0x00\n        /* \"#utility.yul\":9807:9809   */\n      0x20\n        /* \"#utility.yul\":9796:9805   */\n      dup3\n        /* \"#utility.yul\":9792:9810   */\n      add\n        /* \"#utility.yul\":9784:9810   */\n      swap1\n      pop\n        /* \"#utility.yul\":9856:9865   */\n      dup2\n        /* \"#utility.yul\":9850:9854   */\n      dup2\n        /* \"#utility.yul\":9846:9866   */\n      sub\n        /* \"#utility.yul\":9842:9843   */\n      0x00\n        /* \"#utility.yul\":9831:9840   */\n      dup4\n        /* \"#utility.yul\":9827:9844   */\n      add\n        /* \"#utility.yul\":9820:9867   */\n      mstore\n        /* \"#utility.yul\":9884:10015   */\n      tag_249\n        /* \"#utility.yul\":10010:10014   */\n      dup2\n        /* \"#utility.yul\":9884:10015   */\n      tag_205\n      jump\t// in\n    tag_249:\n        /* \"#utility.yul\":9876:10015   */\n      swap1\n      pop\n        /* \"#utility.yul\":9774:10022   */\n      swap2\n      swap1\n      pop\n      jump\t// out\n        /* \"#utility.yul\":10028:10447   */\n    tag_138:\n      0x00\n        /* \"#utility.yul\":10232:10234   */\n      0x20\n        /* \"#utility.yul\":10221:10230   */\n      dup3\n        /* \"#utility.yul\":10217:10235   */\n      add\n        /* \"#utility.yul\":10209:10235   */\n      swap1\n      pop\n        /* \"#utility.yul\":10281:10290   */\n      dup2\n        /* \"#utility.yul\":10275:10279   */\n      dup2\n        /* \"#utility.yul\":10271:10291   */\n      sub\n        /* \"#utility.yul\":10267:10268   */\n      0x00\n        /* \"#utility.yul\":10256:10265   */\n      dup4\n        /* \"#utility.yul\":10252:10269   */\n      add\n        /* \"#utility.yul\":10245:10292   */\n      mstore\n        /* \"#utility.yul\":10309:10440   */\n      tag_251\n        /* \"#utility.yul\":10435:10439   */\n      dup2\n        /* \"#utility.yul\":10309:10440   */\n      tag_208\n      jump\t// in\n    tag_251:\n        /* \"#utility.yul\":10301:10440   */\n      swap1\n      pop\n        /* \"#utility.yul\":10199:10447   */\n      swap2\n      swap1\n      pop\n      jump\t// out\n        /* \"#utility.yul\":10453:10872   */\n    tag_144:\n      0x00\n        /* \"#utility.yul\":10657:10659   */\n      0x20\n        /* \"#utility.yul\":10646:10655   */\n      dup3\n        /* \"#utility.yul\":10642:10660   */\n      add\n        /* \"#utility.yul\":10634:10660   */\n      swap1\n      pop\n        /* \"#utility.yul\":10706:10715   */\n      dup2\n        /* \"#utility.yul\":10700:10704   */\n      dup2\n        /* \"#utility.yul\":10696:10716   */\n      sub\n        /* \"#utility.yul\":10692:10693   */\n      0x00\n        /* \"#utility.yul\":10681:10690   */\n      dup4\n        /* \"#utility.yul\":10677:10694   */\n      add\n        /* \"#utility.yul\":10670:10717   */\n      mstore\n        /* \"#utility.yul\":10734:10865   */\n      tag_253\n        /* \"#utility.yul\":10860:10864   */\n      dup2\n        /* \"#utility.yul\":10734:10865   */\n      tag_211\n      jump\t// in\n    tag_253:\n        /* \"#utility.yul\":10726:10865   */\n      swap1\n      pop\n        /* \"#utility.yul\":10624:10872   */\n      swap2\n      swap1\n      pop\n      jump\t// out\n        /* \"#utility.yul\":10878:11297   */\n    tag_122:\n      0x00\n        /* \"#utility.yul\":11082:11084   */\n      0x20\n        /* \"#utility.yul\":11071:11080   */\n      dup3\n        /* \"#utility.yul\":11067:11085   */\n      add\n        /* \"#utility.yul\":11059:11085   */\n      swap1\n      pop\n        /* \"#utility.yul\":11131:11140   */\n      dup2\n        /* \"#utility.yul\":11125:11129   */\n      dup2\n        /* \"#utility.yul\":11121:11141   */\n      sub\n        /* \"#utility.yul\":11117:11118   */\n      0x00\n        /* \"#utility.yul\":11106:11115   */\n      dup4\n        /* \"#utility.yul\":11102:11119   */\n      add\n        /* \"#utility.yul\":11095:11142   */\n      mstore\n        /* \"#utility.yul\":11159:11290   */\n      tag_255\n        /* \"#utility.yul\":11285:11289   */\n      dup2\n        /* \"#utility.yul\":11159:11290   */\n      tag_214\n      jump\t// in\n    tag_255:\n        /* \"#utility.yul\":11151:11290   */\n      swap1\n      pop\n        /* \"#utility.yul\":11049:11297   */\n      swap2\n      swap1\n      pop\n      jump\t// out\n        /* \"#utility.yul\":11303:11722   */\n    tag_141:\n      0x00\n        /* \"#utility.yul\":11507:11509   */\n      0x20\n        /* \"#utility.yul\":11496:11505   */\n      dup3\n        /* \"#utility.yul\":11492:11510   */\n      add\n        /* \"#utility.yul\":11484:11510   */\n      swap1\n      pop\n        /* \"#utility.yul\":11556:11565   */\n      dup2\n        /* \"#utility.yul\":11550:11554   */\n      dup2\n        /* \"#utility.yul\":11546:11566   */\n      sub\n        /* \"#utility.yul\":11542:11543   */\n      0x00\n        /* \"#utility.yul\":11531:11540   */\n      dup4\n        /* \"#utility.yul\":11527:11544   */\n      add\n        /* \"#utility.yul\":11520:11567   */\n      mstore\n        /* \"#utility.yul\":11584:11715   */\n      tag_257\n        /* \"#utility.yul\":11710:11714   */\n      dup2\n        /* \"#utility.yul\":11584:11715   */\n      tag_217\n      jump\t// in\n    tag_257:\n        /* \"#utility.yul\":11576:11715   */\n      swap1\n      pop\n        /* \"#utility.yul\":11474:11722   */\n      swap2\n      swap1\n      pop\n      jump\t// out\n        /* \"#utility.yul\":11728:12147   */\n    tag_91:\n      0x00\n        /* \"#utility.yul\":11932:11934   */\n      0x20\n        /* \"#utility.yul\":11921:11930   */\n      dup3\n        /* \"#utility.yul\":11917:11935   */\n      add\n        /* \"#utility.yul\":11909:11935   */\n      swap1\n      pop\n        /* \"#utility.yul\":11981:11990   */\n      dup2\n        /* \"#utility.yul\":11975:11979   */\n      dup2\n        /* \"#utility.yul\":11971:11991   */\n      sub\n        /* \"#utility.yul\":11967:11968   */\n      0x00\n        /* \"#utility.yul\":11956:11965   */\n      dup4\n        /* \"#utility.yul\":11952:11969   */\n      add\n        /* \"#utility.yul\":11945:11992   */\n      mstore\n        /* \"#utility.yul\":12009:12140   */\n      tag_259\n        /* \"#utility.yul\":12135:12139   */\n      dup2\n        /* \"#utility.yul\":12009:12140   */\n      tag_220\n      jump\t// in\n    tag_259:\n        /* \"#utility.yul\":12001:12140   */\n      swap1\n      pop\n        /* \"#utility.yul\":11899:12147   */\n      swap2\n      swap1\n      pop\n      jump\t// out\n        /* \"#utility.yul\":12153:12572   */\n    tag_102:\n      0x00\n        /* \"#utility.yul\":12357:12359   */\n      0x20\n        /* \"#utility.yul\":12346:12355   */\n      dup3\n        /* \"#utility.yul\":12342:12360   */\n      add\n        /* \"#utility.yul\":12334:12360   */\n      swap1\n      pop\n        /* \"#utility.yul\":12406:12415   */\n      dup2\n        /* \"#utility.yul\":12400:12404   */\n      dup2\n        /* \"#utility.yul\":12396:12416   */\n      sub\n        /* \"#utility.yul\":12392:12393   */\n      0x00\n        /* \"#utility.yul\":12381:12390   */\n      dup4\n        /* \"#utility.yul\":12377:12394   */\n      add\n        /* \"#utility.yul\":12370:12417   */\n      mstore\n        /* \"#utility.yul\":12434:12565   */\n      tag_261\n        /* \"#utility.yul\":12560:12564   */\n      dup2\n        /* \"#utility.yul\":12434:12565   */\n      tag_223\n      jump\t// in\n    tag_261:\n        /* \"#utility.yul\":12426:12565   */\n      swap1\n      pop\n        /* \"#utility.yul\":12324:12572   */\n      swap2\n      swap1\n      pop\n      jump\t// out\n        /* \"#utility.yul\":12578:12800   */\n    tag_34:\n      0x00\n        /* \"#utility.yul\":12709:12711   */\n      0x20\n        /* \"#utility.yul\":12698:12707   */\n      dup3\n        /* \"#utility.yul\":12694:12712   */\n      add\n        /* \"#utility.yul\":12686:12712   */\n      swap1\n      pop\n        /* \"#utility.yul\":12722:12793   */\n      tag_263\n        /* \"#utility.yul\":12790:12791   */\n      0x00\n        /* \"#utility.yul\":12779:12788   */\n      dup4\n        /* \"#utility.yul\":12775:12792   */\n      add\n        /* \"#utility.yul\":12766:12772   */\n      dup5\n        /* \"#utility.yul\":12722:12793   */\n      tag_226\n      jump\t// in\n    tag_263:\n        /* \"#utility.yul\":12676:12800   */\n      swap3\n      swap2\n      pop\n      pop\n      jump\t// out\n        /* \"#utility.yul\":12806:13020   */\n    tag_43:\n      0x00\n        /* \"#utility.yul\":12933:12935   */\n      0x20\n        /* \"#utility.yul\":12922:12931   */\n      dup3\n        /* \"#utility.yul\":12918:12936   */\n      add\n        /* \"#utility.yul\":12910:12936   */\n      swap1\n      pop\n        /* \"#utility.yul\":12946:13013   */\n      tag_265\n        /* \"#utility.yul\":13010:13011   */\n      0x00\n        /* \"#utility.yul\":12999:13008   */\n      dup4\n        /* \"#utility.yul\":12995:13012   */\n      add\n        /* \"#utility.yul\":12986:12992   */\n      dup5\n        /* \"#utility.yul\":12946:13013   */\n      tag_230\n      jump\t// in\n    tag_265:\n        /* \"#utility.yul\":12900:13020   */\n      swap3\n      swap2\n      pop\n      pop\n      jump\t// out\n        /* \"#utility.yul\":13026:13125   */\n    tag_186:\n      0x00\n        /* \"#utility.yul\":13112:13117   */\n      dup2\n        /* \"#utility.yul\":13106:13118   */\n      mload\n        /* \"#utility.yul\":13096:13118   */\n      swap1\n      pop\n        /* \"#utility.yul\":13085:13125   */\n      swap2\n      swap1\n      pop\n      jump\t// out\n        /* \"#utility.yul\":13131:13300   */\n    tag_188:\n      0x00\n        /* \"#utility.yul\":13249:13255   */\n      dup3\n        /* \"#utility.yul\":13244:13247   */\n      dup3\n        /* \"#utility.yul\":13237:13256   */\n      mstore\n        /* \"#utility.yul\":13289:13293   */\n      0x20\n        /* \"#utility.yul\":13284:13287   */\n      dup3\n        /* \"#utility.yul\":13280:13294   */\n      add\n        /* \"#utility.yul\":13265:13294   */\n      swap1\n      pop\n        /* \"#utility.yul\":13227:13300   */\n      swap3\n      swap2\n      pop\n      pop\n      jump\t// out\n        /* \"#utility.yul\":13306:13611   */\n    tag_98:\n      0x00\n        /* \"#utility.yul\":13365:13385   */\n      tag_269\n        /* \"#utility.yul\":13383:13384   */\n      dup3\n        /* \"#utility.yul\":13365:13385   */\n      tag_229\n      jump\t// in\n    tag_269:\n        /* \"#utility.yul\":13360:13385   */\n      swap2\n      pop\n        /* \"#utility.yul\":13399:13419   */\n      tag_270\n        /* \"#utility.yul\":13417:13418   */\n      dup4\n        /* \"#utility.yul\":13399:13419   */\n      tag_229\n      jump\t// in\n    tag_270:\n        /* \"#utility.yul\":13394:13419   */\n      swap3\n      pop\n        /* \"#utility.yul\":13553:13554   */\n      dup3\n        /* \"#utility.yul\":13485:13551   */\n      0xffffffffffffffffffffffffffffffffffffffffffffffffffffffffffffffff\n        /* \"#utility.yul\":13481:13555   */\n      sub\n        /* \"#utility.yul\":13478:13479   */\n      dup3\n        /* \"#utility.yul\":13475:13556   */\n      gt\n        /* \"#utility.yul\":13472:13474   */\n      iszero\n      tag_271\n      jumpi\n        /* \"#utility.yul\":13559:13577   */\n      tag_272\n      tag_273\n      jump\t// in\n    tag_272:\n        /* \"#utility.yul\":13472:13474   */\n    tag_271:\n        /* \"#utility.yul\":13603:13604   */\n      dup3\n        /* \"#utility.yul\":13600:13601   */\n      dup3\n        /* \"#utility.yul\":13596:13605   */\n      add\n        /* \"#utility.yul\":13589:13605   */\n      swap1\n      pop\n        /* \"#utility.yul\":13350:13611   */\n      swap3\n      swap2\n      pop\n      pop\n      jump\t// out\n        /* \"#utility.yul\":13617:13808   */\n    tag_94:\n      0x00\n        /* \"#utility.yul\":13677:13697   */\n      tag_275\n        /* \"#utility.yul\":13695:13696   */\n      dup3\n        /* \"#utility.yul\":13677:13697   */\n      tag_229\n      jump\t// in\n    tag_275:\n        /* \"#utility.yul\":13672:13697   */\n      swap2\n      pop\n        /* \"#utility.yul\":13711:13731   */\n      tag_276\n        /* \"#utility.yul\":13729:13730   */\n      dup4\n        /* \"#utility.yul\":13711:13731   */\n      tag_229\n      jump\t// in\n    tag_276:\n        /* \"#utility.yul\":13706:13731   */\n      swap3\n      pop\n        /* \"#utility.yul\":13750:13751   */\n      dup3\n        /* \"#utility.yul\":13747:13748   */\n      dup3\n        /* \"#utility.yul\":13744:13752   */\n      lt\n        /* \"#utility.yul\":13741:13743   */\n      iszero\n      tag_277\n      jumpi\n        /* \"#utility.yul\":13755:13773   */\n      tag_278\n      tag_273\n      jump\t// in\n    tag_278:\n        /* \"#utility.yul\":13741:13743   */\n    tag_277:\n        /* \"#utility.yul\":13800:13801   */\n      dup3\n        /* \"#utility.yul\":13797:13798   */\n      dup3\n        /* \"#utility.yul\":13793:13802   */\n      sub\n        /* \"#utility.yul\":13785:13802   */\n      swap1\n      pop\n        /* \"#utility.yul\":13662:13808   */\n      swap3\n      swap2\n      pop\n      pop\n      jump\t// out\n        /* \"#utility.yul\":13814:13910   */\n    tag_178:\n      0x00\n        /* \"#utility.yul\":13880:13904   */\n      tag_280\n        /* \"#utility.yul\":13898:13903   */\n      dup3\n        /* \"#utility.yul\":13880:13904   */\n      tag_281\n      jump\t// in\n    tag_280:\n        /* \"#utility.yul\":13869:13904   */\n      swap1\n      pop\n        /* \"#utility.yul\":13859:13910   */\n      swap2\n      swap1\n      pop\n      jump\t// out\n        /* \"#utility.yul\":13916:14006   */\n    tag_182:\n      0x00\n        /* \"#utility.yul\":13993:13998   */\n      dup2\n        /* \"#utility.yul\":13986:13999   */\n      iszero\n        /* \"#utility.yul\":13979:14000   */\n      iszero\n        /* \"#utility.yul\":13968:14000   */\n      swap1\n      pop\n        /* \"#utility.yul\":13958:14006   */\n      swap2\n      swap1\n      pop\n      jump\t// out\n        /* \"#utility.yul\":14012:14138   */\n    tag_281:\n      0x00\n        /* \"#utility.yul\":14089:14131   */\n      0xffffffffffffffffffffffffffffffffffffffff\n        /* \"#utility.yul\":14082:14087   */\n      dup3\n        /* \"#utility.yul\":14078:14132   */\n      and\n        /* \"#utility.yul\":14067:14132   */\n      swap1\n      pop\n        /* \"#utility.yul\":14057:14138   */\n      swap2\n      swap1\n      pop\n      jump\t// out\n        /* \"#utility.yul\":14144:14221   */\n    tag_229:\n      0x00\n        /* \"#utility.yul\":14210:14215   */\n      dup2\n        /* \"#utility.yul\":14199:14215   */\n      swap1\n      pop\n        /* \"#utility.yul\":14189:14221   */\n      swap2\n      swap1\n      pop\n      jump\t// out\n        /* \"#utility.yul\":14227:14313   */\n    tag_233:\n      0x00\n        /* \"#utility.yul\":14302:14306   */\n      0xff\n        /* \"#utility.yul\":14295:14300   */\n      dup3\n        /* \"#utility.yul\":14291:14307   */\n      and\n        /* \"#utility.yul\":14280:14307   */\n      swap1\n      pop\n        /* \"#utility.yul\":14270:14313   */\n      swap2\n      swap1\n      pop\n      jump\t// out\n        /* \"#utility.yul\":14319:14626   */\n    tag_190:\n        /* \"#utility.yul\":14387:14388   */\n      0x00\n        /* \"#utility.yul\":14397:14510   */\n    tag_287:\n        /* \"#utility.yul\":14411:14417   */\n      dup4\n        /* \"#utility.yul\":14408:14409   */\n      dup2\n        /* \"#utility.yul\":14405:14418   */\n      lt\n        /* \"#utility.yul\":14397:14510   */\n      iszero\n      tag_289\n      jumpi\n        /* \"#utility.yul\":14496:14497   */\n      dup1\n        /* \"#utility.yul\":14491:14494   */\n      dup3\n        /* \"#utility.yul\":14487:14498   */\n      add\n        /* \"#utility.yul\":14481:14499   */\n      mload\n        /* \"#utility.yul\":14477:14478   */\n      dup2\n        /* \"#utility.yul\":14472:14475   */\n      dup5\n        /* \"#utility.yul\":14468:14479   */\n      add\n        /* \"#utility.yul\":14461:14500   */\n      mstore\n        /* \"#utility.yul\":14433:14435   */\n      0x20\n        /* \"#utility.yul\":14430:14431   */\n      dup2\n        /* \"#utility.yul\":14426:14436   */\n      add\n        /* \"#utility.yul\":14421:14436   */\n      swap1\n      pop\n        /* \"#utility.yul\":14397:14510   */\n      jump(tag_287)\n    tag_289:\n        /* \"#utility.yul\":14528:14534   */\n      dup4\n        /* \"#utility.yul\":14525:14526   */\n      dup2\n        /* \"#utility.yul\":14522:14535   */\n      gt\n        /* \"#utility.yul\":14519:14521   */\n      iszero\n      tag_290\n      jumpi\n        /* \"#utility.yul\":14608:14609   */\n      0x00\n        /* \"#utility.yul\":14599:14605   */\n      dup5\n        /* \"#utility.yul\":14594:14597   */\n      dup5\n        /* \"#utility.yul\":14590:14606   */\n      add\n        /* \"#utility.yul\":14583:14610   */\n      mstore\n        /* \"#utility.yul\":14519:14521   */\n    tag_290:\n        /* \"#utility.yul\":14368:14626   */\n      pop\n      pop\n      pop\n      pop\n      jump\t// out\n        /* \"#utility.yul\":14632:14812   */\n    tag_273:\n        /* \"#utility.yul\":14680:14757   */\n      0x4e487b7100000000000000000000000000000000000000000000000000000000\n        /* \"#utility.yul\":14677:14678   */\n      0x00\n        /* \"#utility.yul\":14670:14758   */\n      mstore\n        /* \"#utility.yul\":14777:14781   */\n      0x11\n        /* \"#utility.yul\":14774:14775   */\n      0x04\n        /* \"#utility.yul\":14767:14782   */\n      mstore\n        /* \"#utility.yul\":14801:14805   */\n      0x24\n        /* \"#utility.yul\":14798:14799   */\n      0x00\n        /* \"#utility.yul\":14791:14806   */\n      revert\n        /* \"#utility.yul\":14818:14920   */\n    tag_192:\n      0x00\n        /* \"#utility.yul\":14910:14912   */\n      0x1f\n        /* \"#utility.yul\":14906:14913   */\n      not\n        /* \"#utility.yul\":14901:14903   */\n      0x1f\n        /* \"#utility.yul\":14894:14899   */\n      dup4\n        /* \"#utility.yul\":14890:14904   */\n      add\n        /* \"#utility.yul\":14886:14914   */\n      and\n        /* \"#utility.yul\":14876:14914   */\n      swap1\n      pop\n        /* \"#utility.yul\":14866:14920   */\n      swap2\n      swap1\n      pop\n      jump\t// out\n        /* \"#utility.yul\":14926:15048   */\n    tag_151:\n        /* \"#utility.yul\":14999:15023   */\n      tag_294\n        /* \"#utility.yul\":15017:15022   */\n      dup2\n        /* \"#utility.yul\":14999:15023   */\n      tag_178\n      jump\t// in\n    tag_294:\n        /* \"#utility.yul\":14992:14997   */\n      dup2\n        /* \"#utility.yul\":14989:15024   */\n      eq\n        /* \"#utility.yul\":14979:14981   */\n      tag_295\n      jumpi\n        /* \"#utility.yul\":15038:15039   */\n      0x00\n        /* \"#utility.yul\":15035:15036   */\n      dup1\n        /* \"#utility.yul\":15028:15040   */\n      revert\n        /* \"#utility.yul\":14979:14981   */\n    tag_295:\n        /* \"#utility.yul\":14969:15048   */\n      pop\n      jump\t// out\n        /* \"#utility.yul\":15054:15176   */\n    tag_155:\n        /* \"#utility.yul\":15127:15151   */\n      tag_297\n        /* \"#utility.yul\":15145:15150   */\n      dup2\n        /* \"#utility.yul\":15127:15151   */\n      tag_229\n      jump\t// in\n    tag_297:\n        /* \"#utility.yul\":15120:15125   */\n      dup2\n        /* \"#utility.yul\":15117:15152   */\n      eq\n        /* \"#utility.yul\":15107:15109   */\n      tag_298\n      jumpi\n        /* \"#utility.yul\":15166:15167   */\n      0x00\n        /* \"#utility.yul\":15163:15164   */\n      dup1\n        /* \"#utility.yul\":15156:15168   */\n      revert\n        /* \"#utility.yul\":15107:15109   */\n    tag_298:\n        /* \"#utility.yul\":15097:15176   */\n      pop\n      jump\t// out\n\n    auxdata: 0xa26469706673582212208859cbde94953742634eeb6eb51c02ffa58b1b76fb946c5e903d6e525394acb264736f6c63430008000033\n}\n",
    "bytecode": {
      "linkReferences": {},
      "object": "60806040523480156200001157600080fd5b50336000806101000a81548173ffffffffffffffffffffffffffffffffffffffff021916908373ffffffffffffffffffffffffffffffffffffffff1602179055506200006e3369021e19e0c9bab24000006200007460201b60201c565b6200041a565b60008054906101000a900473ffffffffffffffffffffffffffffffffffffffff1673ffffffffffffffffffffffffffffffffffffffff163373ffffffffffffffffffffffffffffffffffffffff161462000105576040517f08c379a0000000000000000000000000000000000000000000000000000000008152600401620000fc9062000334565b60405180910390fd5b600073ffffffffffffffffffffffffffffffffffffffff168273ffffffffffffffffffffffffffffffffffffffff16141562000178576040517f08c379a00000000000000000000000000000000000000000000000000000000081526004016200016f9062000312565b60405180910390fd5b80600360008282546200018c919062000384565b9250508190555080600160008473ffffffffffffffffffffffffffffffffffffffff1673ffffffffffffffffffffffffffffffffffffffff1681526020019081526020016000206000828254620001e4919062000384565b925050819055508173ffffffffffffffffffffffffffffffffffffffff16600073ffffffffffffffffffffffffffffffffffffffff167fddf252ad1be2c89b69c2b068fc378daa952ba7f163c4a11628f55a4df523b3ef836040516200024b919062000356565b60405180910390a35050565b600062000266601f8362000373565b91507f43524332303a206d696e7420746f20746865207a65726f2061646472657373006000830152602082019050919050565b6000620002a860218362000373565b91507f4f6e6c79204f776e65722063616e2063616c6c20746869732066756e6374696f60008301527f6e000000000000000000000000000000000000000000000000000000000000006020830152604082019050919050565b6200030c81620003e1565b82525050565b600060208201905081810360008301526200032d8162000257565b9050919050565b600060208201905081810360008301526200034f8162000299565b9050919050565b60006020820190506200036d600083018462000301565b92915050565b600082825260208201905092915050565b60006200039182620003e1565b91506200039e83620003e1565b9250827fffffffffffffffffffffffffffffffffffffffffffffffffffffffffffffffff03821115620003d657620003d5620003eb565b5b828201905092915050565b6000819050919050565b7f4e487b7100000000000000000000000000000000000000000000000000000000600052601160045260246000fd5b61184b806200042a6000396000f3fe608060405234801561001057600080fd5b50600436106100f55760003560e01c806342966c6811610097578063a457c2d711610066578063a457c2d714610288578063a9059cbb146102b8578063b19ab076146102e8578063dd62ed3e14610306576100f5565b806342966c681461020057806370a082311461021c5780638da5cb5b1461024c57806395d89b411461026a576100f5565b806323b872dd116100d357806323b872dd14610166578063313ce5671461019657806339509351146101b457806340c10f19146101e4576100f5565b806306fdde03146100fa578063095ea7b31461011857806318160ddd14610148575b600080fd5b610102610336565b60405161010f91906114c1565b60405180910390f35b610132600480360381019061012d9190610f75565b61036f565b60405161013f91906114a6565b60405180910390f35b610150610386565b60405161015d9190611643565b60405180910390f35b610180600480360381019061017b9190610f26565b61038c565b60405161018d91906114a6565b60405180910390f35b61019e61047f565b6040516101ab919061165e565b60405180910390f35b6101ce60048036038101906101c99190610f75565b610484565b6040516101db91906114a6565b60405180910390f35b6101fe60048036038101906101f99190610f75565b610522565b005b61021a60048036038101906102159190610fb1565b6106f9565b005b61023660048036038101906102319190610ec1565b6108b9565b6040516102439190611643565b60405180910390f35b6102546108d1565b604051610261919061148b565b60405180910390f35b6102726108f5565b60405161027f91906114c1565b60405180910390f35b6102a2600480360381019061029d9190610f75565b61092e565b6040516102af91906114a6565b60405180910390f35b6102d260048036038101906102cd9190610f75565b610a14565b6040516102df91906114a6565b60405180910390f35b6102f0610a2b565b6040516102fd9190611643565b60405180910390f35b610320600480360381019061031b9190610eea565b610a39565b60405161032d9190611643565b60405180910390f35b6040518060400160405280601381526020017f426572727920436f6e666c757820546f6b656e0000000000000000000000000081525081565b600061037c338484610a5e565b6001905092915050565b60035481565b6000610399848484610c29565b6000600260008673ffffffffffffffffffffffffffffffffffffffff1673ffffffffffffffffffffffffffffffffffffffff16815260200190815260200160002060003373ffffffffffffffffffffffffffffffffffffffff1673ffffffffffffffffffffffffffffffffffffffff1681526020019081526020016000205490508281101561045d576040517f08c379a000000000000000000000000000000000000000000000000000000000815260040161045490611603565b60405180910390fd5b6104738533858461046e91906116eb565b610a5e565b60019150509392505050565b601281565b6000610518338484600260003373ffffffffffffffffffffffffffffffffffffffff1673ffffffffffffffffffffffffffffffffffffffff16815260200190815260200160002060008873ffffffffffffffffffffffffffffffffffffffff1673ffffffffffffffffffffffffffffffffffffffff168152602001908152602001600020546105139190611695565b610a5e565b6001905092915050565b60008054906101000a900473ffffffffffffffffffffffffffffffffffffffff1673ffffffffffffffffffffffffffffffffffffffff163373ffffffffffffffffffffffffffffffffffffffff16146105b0576040517f08c379a00000000000000000000000000000000000000000000000000000000081526004016105a790611623565b60405180910390fd5b600073ffffffffffffffffffffffffffffffffffffffff168273ffffffffffffffffffffffffffffffffffffffff161415610620576040517f08c379a000000000000000000000000000000000000000000000000000000000815260040161061790611563565b60405180910390fd5b80600360008282546106329190611695565b9250508190555080600160008473ffffffffffffffffffffffffffffffffffffffff1673ffffffffffffffffffffffffffffffffffffffff16815260200190815260200160002060008282546106889190611695565b925050819055508173ffffffffffffffffffffffffffffffffffffffff16600073ffffffffffffffffffffffffffffffffffffffff167fddf252ad1be2c89b69c2b068fc378daa952ba7f163c4a11628f55a4df523b3ef836040516106ed9190611643565b60405180910390a35050565b600073ffffffffffffffffffffffffffffffffffffffff163373ffffffffffffffffffffffffffffffffffffffff161415610769576040517f08c379a0000000000000000000000000000000000000000000000000000000008152600401610760906114e3565b60405180910390fd5b6000600160003373ffffffffffffffffffffffffffffffffffffffff1673ffffffffffffffffffffffffffffffffffffffff168152602001908152602001600020549050818110156107f0576040517f08c379a00000000000000000000000000000000000000000000000000000000081526004016107e790611543565b60405180910390fd5b818103600160003373ffffffffffffffffffffffffffffffffffffffff1673ffffffffffffffffffffffffffffffffffffffff16815260200190815260200160002081905550816003600082825461084891906116eb565b92505081905550600073ffffffffffffffffffffffffffffffffffffffff163373ffffffffffffffffffffffffffffffffffffffff167fddf252ad1be2c89b69c2b068fc378daa952ba7f163c4a11628f55a4df523b3ef846040516108ad9190611643565b60405180910390a35050565b60016020528060005260406000206000915090505481565b60008054906101000a900473ffffffffffffffffffffffffffffffffffffffff1681565b6040518060400160405280600581526020017f42464c555800000000000000000000000000000000000000000000000000000081525081565b600080600260003373ffffffffffffffffffffffffffffffffffffffff1673ffffffffffffffffffffffffffffffffffffffff16815260200190815260200160002060008573ffffffffffffffffffffffffffffffffffffffff1673ffffffffffffffffffffffffffffffffffffffff168152602001908152602001600020549050828110156109f3576040517f08c379a00000000000000000000000000000000000000000000000000000000081526004016109ea906115c3565b60405180910390fd5b610a0933858584610a0491906116eb565b610a5e565b600191505092915050565b6000610a21338484610c29565b6001905092915050565b69021e19e0c9bab240000081565b6002602052816000526040600020602052806000526040600020600091509150505481565b600073ffffffffffffffffffffffffffffffffffffffff168373ffffffffffffffffffffffffffffffffffffffff161415610ace576040517f08c379a0000000000000000000000000000000000000000000000000000000008152600401610ac590611503565b60405180910390fd5b600073ffffffffffffffffffffffffffffffffffffffff168273ffffffffffffffffffffffffffffffffffffffff161415610b3e576040517f08c379a0000000000000000000000000000000000000000000000000000000008152600401610b3590611523565b60405180910390fd5b80600260008573ffffffffffffffffffffffffffffffffffffffff1673ffffffffffffffffffffffffffffffffffffffff16815260200190815260200160002060008473ffffffffffffffffffffffffffffffffffffffff1673ffffffffffffffffffffffffffffffffffffffff168152602001908152602001600020819055508173ffffffffffffffffffffffffffffffffffffffff168373ffffffffffffffffffffffffffffffffffffffff167f8c5be1e5ebec7d5bd14f71427d1e84f3dd0314c0f7b2291e5b200ac8c7c3b92583604051610c1c9190611643565b60405180910390a3505050565b600073ffffffffffffffffffffffffffffffffffffffff168373ffffffffffffffffffffffffffffffffffffffff161415610c99576040517f08c379a0000000000000000000000000000000000000000000000000000000008152600401610c9090611583565b60405180910390fd5b600073ffffffffffffffffffffffffffffffffffffffff168273ffffffffffffffffffffffffffffffffffffffff161415610d09576040517f08c379a0000000000000000000000000000000000000000000000000000000008152600401610d00906115e3565b60405180910390fd5b6000600160008573ffffffffffffffffffffffffffffffffffffffff1673ffffffffffffffffffffffffffffffffffffffff16815260200190815260200160002054905081811015610d90576040517f08c379a0000000000000000000000000000000000000000000000000000000008152600401610d87906115a3565b60405180910390fd5b818103600160008673ffffffffffffffffffffffffffffffffffffffff1673ffffffffffffffffffffffffffffffffffffffff1681526020019081526020016000208190555081600160008573ffffffffffffffffffffffffffffffffffffffff1673ffffffffffffffffffffffffffffffffffffffff1681526020019081526020016000206000828254610e259190611695565b925050819055508273ffffffffffffffffffffffffffffffffffffffff168473ffffffffffffffffffffffffffffffffffffffff167fddf252ad1be2c89b69c2b068fc378daa952ba7f163c4a11628f55a4df523b3ef84604051610e899190611643565b60405180910390a350505050565b600081359050610ea6816117e7565b92915050565b600081359050610ebb816117fe565b92915050565b600060208284031215610ed357600080fd5b6000610ee184828501610e97565b91505092915050565b60008060408385031215610efd57600080fd5b6000610f0b85828601610e97565b9250506020610f1c85828601610e97565b9150509250929050565b600080600060608486031215610f3b57600080fd5b6000610f4986828701610e97565b9350506020610f5a86828701610e97565b9250506040610f6b86828701610eac565b9150509250925092565b60008060408385031215610f8857600080fd5b6000610f9685828601610e97565b9250506020610fa785828601610eac565b9150509250929050565b600060208284031215610fc357600080fd5b6000610fd184828501610eac565b91505092915050565b610fe38161171f565b82525050565b610ff281611731565b82525050565b600061100382611679565b61100d8185611684565b935061101d818560208601611774565b611026816117d6565b840191505092915050565b600061103e602183611684565b91507f43524332303a206275726e2066726f6d20746865207a65726f2061646472657360008301527f73000000000000000000000000000000000000000000000000000000000000006020830152604082019050919050565b60006110a4602483611684565b91507f43524332303a20617070726f76652066726f6d20746865207a65726f2061646460008301527f72657373000000000000000000000000000000000000000000000000000000006020830152604082019050919050565b600061110a602283611684565b91507f43524332303a20617070726f766520746f20746865207a65726f20616464726560008301527f73730000000000000000000000000000000000000000000000000000000000006020830152604082019050919050565b6000611170602283611684565b91507f43524332303a206275726e20616d6f756e7420657863656564732062616c616e60008301527f63650000000000000000000000000000000000000000000000000000000000006020830152604082019050919050565b60006111d6601f83611684565b91507f43524332303a206d696e7420746f20746865207a65726f2061646472657373006000830152602082019050919050565b6000611216602583611684565b91507f43524332303a207472616e736665722066726f6d20746865207a65726f20616460008301527f64726573730000000000000000000000000000000000000000000000000000006020830152604082019050919050565b600061127c602683611684565b91507f43524332303a207472616e7366657220616d6f756e742065786365656473206260008301527f616c616e636500000000000000000000000000000000000000000000000000006020830152604082019050919050565b60006112e2602583611684565b91507f43524332303a2064656372656173656420616c6c6f77616e63652062656c6f7760008301527f207a65726f0000000000000000000000000000000000000000000000000000006020830152604082019050919050565b6000611348602383611684565b91507f43524332303a207472616e7366657220746f20746865207a65726f206164647260008301527f65737300000000000000000000000000000000000000000000000000000000006020830152604082019050919050565b60006113ae602883611684565b91507f43524332303a207472616e7366657220616d6f756e742065786365656473206160008301527f6c6c6f77616e63650000000000000000000000000000000000000000000000006020830152604082019050919050565b6000611414602183611684565b91507f4f6e6c79204f776e65722063616e2063616c6c20746869732066756e6374696f60008301527f6e000000000000000000000000000000000000000000000000000000000000006020830152604082019050919050565b6114768161175d565b82525050565b61148581611767565b82525050565b60006020820190506114a06000830184610fda565b92915050565b60006020820190506114bb6000830184610fe9565b92915050565b600060208201905081810360008301526114db8184610ff8565b905092915050565b600060208201905081810360008301526114fc81611031565b9050919050565b6000602082019050818103600083015261151c81611097565b9050919050565b6000602082019050818103600083015261153c816110fd565b9050919050565b6000602082019050818103600083015261155c81611163565b9050919050565b6000602082019050818103600083015261157c816111c9565b9050919050565b6000602082019050818103600083015261159c81611209565b9050919050565b600060208201905081810360008301526115bc8161126f565b9050919050565b600060208201905081810360008301526115dc816112d5565b9050919050565b600060208201905081810360008301526115fc8161133b565b9050919050565b6000602082019050818103600083015261161c816113a1565b9050919050565b6000602082019050818103600083015261163c81611407565b9050919050565b6000602082019050611658600083018461146d565b92915050565b6000602082019050611673600083018461147c565b92915050565b600081519050919050565b600082825260208201905092915050565b60006116a08261175d565b91506116ab8361175d565b9250827fffffffffffffffffffffffffffffffffffffffffffffffffffffffffffffffff038211156116e0576116df6117a7565b5b828201905092915050565b60006116f68261175d565b91506117018361175d565b925082821015611714576117136117a7565b5b828203905092915050565b600061172a8261173d565b9050919050565b60008115159050919050565b600073ffffffffffffffffffffffffffffffffffffffff82169050919050565b6000819050919050565b600060ff82169050919050565b60005b83811015611792578082015181840152602081019050611777565b838111156117a1576000848401525b50505050565b7f4e487b7100000000000000000000000000000000000000000000000000000000600052601160045260246000fd5b6000601f19601f8301169050919050565b6117f08161171f565b81146117fb57600080fd5b50565b6118078161175d565b811461181257600080fd5b5056fea26469706673582212208859cbde94953742634eeb6eb51c02ffa58b1b76fb946c5e903d6e525394acb264736f6c63430008000033",
      "opcodes": "PUSH1 0x80 PUSH1 0x40 MSTORE CALLVALUE DUP1 ISZERO PUSH3 0x11 JUMPI PUSH1 0x0 DUP1 REVERT JUMPDEST POP CALLER PUSH1 0x0 DUP1 PUSH2 0x100 EXP DUP2 SLOAD DUP2 PUSH20 0xFFFFFFFFFFFFFFFFFFFFFFFFFFFFFFFFFFFFFFFF MUL NOT AND SWAP1 DUP4 PUSH20 0xFFFFFFFFFFFFFFFFFFFFFFFFFFFFFFFFFFFFFFFF AND MUL OR SWAP1 SSTORE POP PUSH3 0x6E CALLER PUSH10 0x21E19E0C9BAB2400000 PUSH3 0x74 PUSH1 0x20 SHL PUSH1 0x20 SHR JUMP JUMPDEST PUSH3 0x41A JUMP JUMPDEST PUSH1 0x0 DUP1 SLOAD SWAP1 PUSH2 0x100 EXP SWAP1 DIV PUSH20 0xFFFFFFFFFFFFFFFFFFFFFFFFFFFFFFFFFFFFFFFF AND PUSH20 0xFFFFFFFFFFFFFFFFFFFFFFFFFFFFFFFFFFFFFFFF AND CALLER PUSH20 0xFFFFFFFFFFFFFFFFFFFFFFFFFFFFFFFFFFFFFFFF AND EQ PUSH3 0x105 JUMPI PUSH1 0x40 MLOAD PUSH32 0x8C379A000000000000000000000000000000000000000000000000000000000 DUP2 MSTORE PUSH1 0x4 ADD PUSH3 0xFC SWAP1 PUSH3 0x334 JUMP JUMPDEST PUSH1 0x40 MLOAD DUP1 SWAP2 SUB SWAP1 REVERT JUMPDEST PUSH1 0x0 PUSH20 0xFFFFFFFFFFFFFFFFFFFFFFFFFFFFFFFFFFFFFFFF AND DUP3 PUSH20 0xFFFFFFFFFFFFFFFFFFFFFFFFFFFFFFFFFFFFFFFF AND EQ ISZERO PUSH3 0x178 JUMPI PUSH1 0x40 MLOAD PUSH32 0x8C379A000000000000000000000000000000000000000000000000000000000 DUP2 MSTORE PUSH1 0x4 ADD PUSH3 0x16F SWAP1 PUSH3 0x312 JUMP JUMPDEST PUSH1 0x40 MLOAD DUP1 SWAP2 SUB SWAP1 REVERT JUMPDEST DUP1 PUSH1 0x3 PUSH1 0x0 DUP3 DUP3 SLOAD PUSH3 0x18C SWAP2 SWAP1 PUSH3 0x384 JUMP JUMPDEST SWAP3 POP POP DUP2 SWAP1 SSTORE POP DUP1 PUSH1 0x1 PUSH1 0x0 DUP5 PUSH20 0xFFFFFFFFFFFFFFFFFFFFFFFFFFFFFFFFFFFFFFFF AND PUSH20 0xFFFFFFFFFFFFFFFFFFFFFFFFFFFFFFFFFFFFFFFF AND DUP2 MSTORE PUSH1 0x20 ADD SWAP1 DUP2 MSTORE PUSH1 0x20 ADD PUSH1 0x0 KECCAK256 PUSH1 0x0 DUP3 DUP3 SLOAD PUSH3 0x1E4 SWAP2 SWAP1 PUSH3 0x384 JUMP JUMPDEST SWAP3 POP POP DUP2 SWAP1 SSTORE POP DUP2 PUSH20 0xFFFFFFFFFFFFFFFFFFFFFFFFFFFFFFFFFFFFFFFF AND PUSH1 0x0 PUSH20 0xFFFFFFFFFFFFFFFFFFFFFFFFFFFFFFFFFFFFFFFF AND PUSH32 0xDDF252AD1BE2C89B69C2B068FC378DAA952BA7F163C4A11628F55A4DF523B3EF DUP4 PUSH1 0x40 MLOAD PUSH3 0x24B SWAP2 SWAP1 PUSH3 0x356 JUMP JUMPDEST PUSH1 0x40 MLOAD DUP1 SWAP2 SUB SWAP1 LOG3 POP POP JUMP JUMPDEST PUSH1 0x0 PUSH3 0x266 PUSH1 0x1F DUP4 PUSH3 0x373 JUMP JUMPDEST SWAP2 POP PUSH32 0x43524332303A206D696E7420746F20746865207A65726F206164647265737300 PUSH1 0x0 DUP4 ADD MSTORE PUSH1 0x20 DUP3 ADD SWAP1 POP SWAP2 SWAP1 POP JUMP JUMPDEST PUSH1 0x0 PUSH3 0x2A8 PUSH1 0x21 DUP4 PUSH3 0x373 JUMP JUMPDEST SWAP2 POP PUSH32 0x4F6E6C79204F776E65722063616E2063616C6C20746869732066756E6374696F PUSH1 0x0 DUP4 ADD MSTORE PUSH32 0x6E00000000000000000000000000000000000000000000000000000000000000 PUSH1 0x20 DUP4 ADD MSTORE PUSH1 0x40 DUP3 ADD SWAP1 POP SWAP2 SWAP1 POP JUMP JUMPDEST PUSH3 0x30C DUP2 PUSH3 0x3E1 JUMP JUMPDEST DUP3 MSTORE POP POP JUMP JUMPDEST PUSH1 0x0 PUSH1 0x20 DUP3 ADD SWAP1 POP DUP2 DUP2 SUB PUSH1 0x0 DUP4 ADD MSTORE PUSH3 0x32D DUP2 PUSH3 0x257 JUMP JUMPDEST SWAP1 POP SWAP2 SWAP1 POP JUMP JUMPDEST PUSH1 0x0 PUSH1 0x20 DUP3 ADD SWAP1 POP DUP2 DUP2 SUB PUSH1 0x0 DUP4 ADD MSTORE PUSH3 0x34F DUP2 PUSH3 0x299 JUMP JUMPDEST SWAP1 POP SWAP2 SWAP1 POP JUMP JUMPDEST PUSH1 0x0 PUSH1 0x20 DUP3 ADD SWAP1 POP PUSH3 0x36D PUSH1 0x0 DUP4 ADD DUP5 PUSH3 0x301 JUMP JUMPDEST SWAP3 SWAP2 POP POP JUMP JUMPDEST PUSH1 0x0 DUP3 DUP3 MSTORE PUSH1 0x20 DUP3 ADD SWAP1 POP SWAP3 SWAP2 POP POP JUMP JUMPDEST PUSH1 0x0 PUSH3 0x391 DUP3 PUSH3 0x3E1 JUMP JUMPDEST SWAP2 POP PUSH3 0x39E DUP4 PUSH3 0x3E1 JUMP JUMPDEST SWAP3 POP DUP3 PUSH32 0xFFFFFFFFFFFFFFFFFFFFFFFFFFFFFFFFFFFFFFFFFFFFFFFFFFFFFFFFFFFFFFFF SUB DUP3 GT ISZERO PUSH3 0x3D6 JUMPI PUSH3 0x3D5 PUSH3 0x3EB JUMP JUMPDEST JUMPDEST DUP3 DUP3 ADD SWAP1 POP SWAP3 SWAP2 POP POP JUMP JUMPDEST PUSH1 0x0 DUP2 SWAP1 POP SWAP2 SWAP1 POP JUMP JUMPDEST PUSH32 0x4E487B7100000000000000000000000000000000000000000000000000000000 PUSH1 0x0 MSTORE PUSH1 0x11 PUSH1 0x4 MSTORE PUSH1 0x24 PUSH1 0x0 REVERT JUMPDEST PUSH2 0x184B DUP1 PUSH3 0x42A PUSH1 0x0 CODECOPY PUSH1 0x0 RETURN INVALID PUSH1 0x80 PUSH1 0x40 MSTORE CALLVALUE DUP1 ISZERO PUSH2 0x10 JUMPI PUSH1 0x0 DUP1 REVERT JUMPDEST POP PUSH1 0x4 CALLDATASIZE LT PUSH2 0xF5 JUMPI PUSH1 0x0 CALLDATALOAD PUSH1 0xE0 SHR DUP1 PUSH4 0x42966C68 GT PUSH2 0x97 JUMPI DUP1 PUSH4 0xA457C2D7 GT PUSH2 0x66 JUMPI DUP1 PUSH4 0xA457C2D7 EQ PUSH2 0x288 JUMPI DUP1 PUSH4 0xA9059CBB EQ PUSH2 0x2B8 JUMPI DUP1 PUSH4 0xB19AB076 EQ PUSH2 0x2E8 JUMPI DUP1 PUSH4 0xDD62ED3E EQ PUSH2 0x306 JUMPI PUSH2 0xF5 JUMP JUMPDEST DUP1 PUSH4 0x42966C68 EQ PUSH2 0x200 JUMPI DUP1 PUSH4 0x70A08231 EQ PUSH2 0x21C JUMPI DUP1 PUSH4 0x8DA5CB5B EQ PUSH2 0x24C JUMPI DUP1 PUSH4 0x95D89B41 EQ PUSH2 0x26A JUMPI PUSH2 0xF5 JUMP JUMPDEST DUP1 PUSH4 0x23B872DD GT PUSH2 0xD3 JUMPI DUP1 PUSH4 0x23B872DD EQ PUSH2 0x166 JUMPI DUP1 PUSH4 0x313CE567 EQ PUSH2 0x196 JUMPI DUP1 PUSH4 0x39509351 EQ PUSH2 0x1B4 JUMPI DUP1 PUSH4 0x40C10F19 EQ PUSH2 0x1E4 JUMPI PUSH2 0xF5 JUMP JUMPDEST DUP1 PUSH4 0x6FDDE03 EQ PUSH2 0xFA JUMPI DUP1 PUSH4 0x95EA7B3 EQ PUSH2 0x118 JUMPI DUP1 PUSH4 0x18160DDD EQ PUSH2 0x148 JUMPI JUMPDEST PUSH1 0x0 DUP1 REVERT JUMPDEST PUSH2 0x102 PUSH2 0x336 JUMP JUMPDEST PUSH1 0x40 MLOAD PUSH2 0x10F SWAP2 SWAP1 PUSH2 0x14C1 JUMP JUMPDEST PUSH1 0x40 MLOAD DUP1 SWAP2 SUB SWAP1 RETURN JUMPDEST PUSH2 0x132 PUSH1 0x4 DUP1 CALLDATASIZE SUB DUP2 ADD SWAP1 PUSH2 0x12D SWAP2 SWAP1 PUSH2 0xF75 JUMP JUMPDEST PUSH2 0x36F JUMP JUMPDEST PUSH1 0x40 MLOAD PUSH2 0x13F SWAP2 SWAP1 PUSH2 0x14A6 JUMP JUMPDEST PUSH1 0x40 MLOAD DUP1 SWAP2 SUB SWAP1 RETURN JUMPDEST PUSH2 0x150 PUSH2 0x386 JUMP JUMPDEST PUSH1 0x40 MLOAD PUSH2 0x15D SWAP2 SWAP1 PUSH2 0x1643 JUMP JUMPDEST PUSH1 0x40 MLOAD DUP1 SWAP2 SUB SWAP1 RETURN JUMPDEST PUSH2 0x180 PUSH1 0x4 DUP1 CALLDATASIZE SUB DUP2 ADD SWAP1 PUSH2 0x17B SWAP2 SWAP1 PUSH2 0xF26 JUMP JUMPDEST PUSH2 0x38C JUMP JUMPDEST PUSH1 0x40 MLOAD PUSH2 0x18D SWAP2 SWAP1 PUSH2 0x14A6 JUMP JUMPDEST PUSH1 0x40 MLOAD DUP1 SWAP2 SUB SWAP1 RETURN JUMPDEST PUSH2 0x19E PUSH2 0x47F JUMP JUMPDEST PUSH1 0x40 MLOAD PUSH2 0x1AB SWAP2 SWAP1 PUSH2 0x165E JUMP JUMPDEST PUSH1 0x40 MLOAD DUP1 SWAP2 SUB SWAP1 RETURN JUMPDEST PUSH2 0x1CE PUSH1 0x4 DUP1 CALLDATASIZE SUB DUP2 ADD SWAP1 PUSH2 0x1C9 SWAP2 SWAP1 PUSH2 0xF75 JUMP JUMPDEST PUSH2 0x484 JUMP JUMPDEST PUSH1 0x40 MLOAD PUSH2 0x1DB SWAP2 SWAP1 PUSH2 0x14A6 JUMP JUMPDEST PUSH1 0x40 MLOAD DUP1 SWAP2 SUB SWAP1 RETURN JUMPDEST PUSH2 0x1FE PUSH1 0x4 DUP1 CALLDATASIZE SUB DUP2 ADD SWAP1 PUSH2 0x1F9 SWAP2 SWAP1 PUSH2 0xF75 JUMP JUMPDEST PUSH2 0x522 JUMP JUMPDEST STOP JUMPDEST PUSH2 0x21A PUSH1 0x4 DUP1 CALLDATASIZE SUB DUP2 ADD SWAP1 PUSH2 0x215 SWAP2 SWAP1 PUSH2 0xFB1 JUMP JUMPDEST PUSH2 0x6F9 JUMP JUMPDEST STOP JUMPDEST PUSH2 0x236 PUSH1 0x4 DUP1 CALLDATASIZE SUB DUP2 ADD SWAP1 PUSH2 0x231 SWAP2 SWAP1 PUSH2 0xEC1 JUMP JUMPDEST PUSH2 0x8B9 JUMP JUMPDEST PUSH1 0x40 MLOAD PUSH2 0x243 SWAP2 SWAP1 PUSH2 0x1643 JUMP JUMPDEST PUSH1 0x40 MLOAD DUP1 SWAP2 SUB SWAP1 RETURN JUMPDEST PUSH2 0x254 PUSH2 0x8D1 JUMP JUMPDEST PUSH1 0x40 MLOAD PUSH2 0x261 SWAP2 SWAP1 PUSH2 0x148B JUMP JUMPDEST PUSH1 0x40 MLOAD DUP1 SWAP2 SUB SWAP1 RETURN JUMPDEST PUSH2 0x272 PUSH2 0x8F5 JUMP JUMPDEST PUSH1 0x40 MLOAD PUSH2 0x27F SWAP2 SWAP1 PUSH2 0x14C1 JUMP JUMPDEST PUSH1 0x40 MLOAD DUP1 SWAP2 SUB SWAP1 RETURN JUMPDEST PUSH2 0x2A2 PUSH1 0x4 DUP1 CALLDATASIZE SUB DUP2 ADD SWAP1 PUSH2 0x29D SWAP2 SWAP1 PUSH2 0xF75 JUMP JUMPDEST PUSH2 0x92E JUMP JUMPDEST PUSH1 0x40 MLOAD PUSH2 0x2AF SWAP2 SWAP1 PUSH2 0x14A6 JUMP JUMPDEST PUSH1 0x40 MLOAD DUP1 SWAP2 SUB SWAP1 RETURN JUMPDEST PUSH2 0x2D2 PUSH1 0x4 DUP1 CALLDATASIZE SUB DUP2 ADD SWAP1 PUSH2 0x2CD SWAP2 SWAP1 PUSH2 0xF75 JUMP JUMPDEST PUSH2 0xA14 JUMP JUMPDEST PUSH1 0x40 MLOAD PUSH2 0x2DF SWAP2 SWAP1 PUSH2 0x14A6 JUMP JUMPDEST PUSH1 0x40 MLOAD DUP1 SWAP2 SUB SWAP1 RETURN JUMPDEST PUSH2 0x2F0 PUSH2 0xA2B JUMP JUMPDEST PUSH1 0x40 MLOAD PUSH2 0x2FD SWAP2 SWAP1 PUSH2 0x1643 JUMP JUMPDEST PUSH1 0x40 MLOAD DUP1 SWAP2 SUB SWAP1 RETURN JUMPDEST PUSH2 0x320 PUSH1 0x4 DUP1 CALLDATASIZE SUB DUP2 ADD SWAP1 PUSH2 0x31B SWAP2 SWAP1 PUSH2 0xEEA JUMP JUMPDEST PUSH2 0xA39 JUMP JUMPDEST PUSH1 0x40 MLOAD PUSH2 0x32D SWAP2 SWAP1 PUSH2 0x1643 JUMP JUMPDEST PUSH1 0x40 MLOAD DUP1 SWAP2 SUB SWAP1 RETURN JUMPDEST PUSH1 0x40 MLOAD DUP1 PUSH1 0x40 ADD PUSH1 0x40 MSTORE DUP1 PUSH1 0x13 DUP2 MSTORE PUSH1 0x20 ADD PUSH32 0x426572727920436F6E666C757820546F6B656E00000000000000000000000000 DUP2 MSTORE POP DUP2 JUMP JUMPDEST PUSH1 0x0 PUSH2 0x37C CALLER DUP5 DUP5 PUSH2 0xA5E JUMP JUMPDEST PUSH1 0x1 SWAP1 POP SWAP3 SWAP2 POP POP JUMP JUMPDEST PUSH1 0x3 SLOAD DUP2 JUMP JUMPDEST PUSH1 0x0 PUSH2 0x399 DUP5 DUP5 DUP5 PUSH2 0xC29 JUMP JUMPDEST PUSH1 0x0 PUSH1 0x2 PUSH1 0x0 DUP7 PUSH20 0xFFFFFFFFFFFFFFFFFFFFFFFFFFFFFFFFFFFFFFFF AND PUSH20 0xFFFFFFFFFFFFFFFFFFFFFFFFFFFFFFFFFFFFFFFF AND DUP2 MSTORE PUSH1 0x20 ADD SWAP1 DUP2 MSTORE PUSH1 0x20 ADD PUSH1 0x0 KECCAK256 PUSH1 0x0 CALLER PUSH20 0xFFFFFFFFFFFFFFFFFFFFFFFFFFFFFFFFFFFFFFFF AND PUSH20 0xFFFFFFFFFFFFFFFFFFFFFFFFFFFFFFFFFFFFFFFF AND DUP2 MSTORE PUSH1 0x20 ADD SWAP1 DUP2 MSTORE PUSH1 0x20 ADD PUSH1 0x0 KECCAK256 SLOAD SWAP1 POP DUP3 DUP2 LT ISZERO PUSH2 0x45D JUMPI PUSH1 0x40 MLOAD PUSH32 0x8C379A000000000000000000000000000000000000000000000000000000000 DUP2 MSTORE PUSH1 0x4 ADD PUSH2 0x454 SWAP1 PUSH2 0x1603 JUMP JUMPDEST PUSH1 0x40 MLOAD DUP1 SWAP2 SUB SWAP1 REVERT JUMPDEST PUSH2 0x473 DUP6 CALLER DUP6 DUP5 PUSH2 0x46E SWAP2 SWAP1 PUSH2 0x16EB JUMP JUMPDEST PUSH2 0xA5E JUMP JUMPDEST PUSH1 0x1 SWAP2 POP POP SWAP4 SWAP3 POP POP POP JUMP JUMPDEST PUSH1 0x12 DUP2 JUMP JUMPDEST PUSH1 0x0 PUSH2 0x518 CALLER DUP5 DUP5 PUSH1 0x2 PUSH1 0x0 CALLER PUSH20 0xFFFFFFFFFFFFFFFFFFFFFFFFFFFFFFFFFFFFFFFF AND PUSH20 0xFFFFFFFFFFFFFFFFFFFFFFFFFFFFFFFFFFFFFFFF AND DUP2 MSTORE PUSH1 0x20 ADD SWAP1 DUP2 MSTORE PUSH1 0x20 ADD PUSH1 0x0 KECCAK256 PUSH1 0x0 DUP9 PUSH20 0xFFFFFFFFFFFFFFFFFFFFFFFFFFFFFFFFFFFFFFFF AND PUSH20 0xFFFFFFFFFFFFFFFFFFFFFFFFFFFFFFFFFFFFFFFF AND DUP2 MSTORE PUSH1 0x20 ADD SWAP1 DUP2 MSTORE PUSH1 0x20 ADD PUSH1 0x0 KECCAK256 SLOAD PUSH2 0x513 SWAP2 SWAP1 PUSH2 0x1695 JUMP JUMPDEST PUSH2 0xA5E JUMP JUMPDEST PUSH1 0x1 SWAP1 POP SWAP3 SWAP2 POP POP JUMP JUMPDEST PUSH1 0x0 DUP1 SLOAD SWAP1 PUSH2 0x100 EXP SWAP1 DIV PUSH20 0xFFFFFFFFFFFFFFFFFFFFFFFFFFFFFFFFFFFFFFFF AND PUSH20 0xFFFFFFFFFFFFFFFFFFFFFFFFFFFFFFFFFFFFFFFF AND CALLER PUSH20 0xFFFFFFFFFFFFFFFFFFFFFFFFFFFFFFFFFFFFFFFF AND EQ PUSH2 0x5B0 JUMPI PUSH1 0x40 MLOAD PUSH32 0x8C379A000000000000000000000000000000000000000000000000000000000 DUP2 MSTORE PUSH1 0x4 ADD PUSH2 0x5A7 SWAP1 PUSH2 0x1623 JUMP JUMPDEST PUSH1 0x40 MLOAD DUP1 SWAP2 SUB SWAP1 REVERT JUMPDEST PUSH1 0x0 PUSH20 0xFFFFFFFFFFFFFFFFFFFFFFFFFFFFFFFFFFFFFFFF AND DUP3 PUSH20 0xFFFFFFFFFFFFFFFFFFFFFFFFFFFFFFFFFFFFFFFF AND EQ ISZERO PUSH2 0x620 JUMPI PUSH1 0x40 MLOAD PUSH32 0x8C379A000000000000000000000000000000000000000000000000000000000 DUP2 MSTORE PUSH1 0x4 ADD PUSH2 0x617 SWAP1 PUSH2 0x1563 JUMP JUMPDEST PUSH1 0x40 MLOAD DUP1 SWAP2 SUB SWAP1 REVERT JUMPDEST DUP1 PUSH1 0x3 PUSH1 0x0 DUP3 DUP3 SLOAD PUSH2 0x632 SWAP2 SWAP1 PUSH2 0x1695 JUMP JUMPDEST SWAP3 POP POP DUP2 SWAP1 SSTORE POP DUP1 PUSH1 0x1 PUSH1 0x0 DUP5 PUSH20 0xFFFFFFFFFFFFFFFFFFFFFFFFFFFFFFFFFFFFFFFF AND PUSH20 0xFFFFFFFFFFFFFFFFFFFFFFFFFFFFFFFFFFFFFFFF AND DUP2 MSTORE PUSH1 0x20 ADD SWAP1 DUP2 MSTORE PUSH1 0x20 ADD PUSH1 0x0 KECCAK256 PUSH1 0x0 DUP3 DUP3 SLOAD PUSH2 0x688 SWAP2 SWAP1 PUSH2 0x1695 JUMP JUMPDEST SWAP3 POP POP DUP2 SWAP1 SSTORE POP DUP2 PUSH20 0xFFFFFFFFFFFFFFFFFFFFFFFFFFFFFFFFFFFFFFFF AND PUSH1 0x0 PUSH20 0xFFFFFFFFFFFFFFFFFFFFFFFFFFFFFFFFFFFFFFFF AND PUSH32 0xDDF252AD1BE2C89B69C2B068FC378DAA952BA7F163C4A11628F55A4DF523B3EF DUP4 PUSH1 0x40 MLOAD PUSH2 0x6ED SWAP2 SWAP1 PUSH2 0x1643 JUMP JUMPDEST PUSH1 0x40 MLOAD DUP1 SWAP2 SUB SWAP1 LOG3 POP POP JUMP JUMPDEST PUSH1 0x0 PUSH20 0xFFFFFFFFFFFFFFFFFFFFFFFFFFFFFFFFFFFFFFFF AND CALLER PUSH20 0xFFFFFFFFFFFFFFFFFFFFFFFFFFFFFFFFFFFFFFFF AND EQ ISZERO PUSH2 0x769 JUMPI PUSH1 0x40 MLOAD PUSH32 0x8C379A000000000000000000000000000000000000000000000000000000000 DUP2 MSTORE PUSH1 0x4 ADD PUSH2 0x760 SWAP1 PUSH2 0x14E3 JUMP JUMPDEST PUSH1 0x40 MLOAD DUP1 SWAP2 SUB SWAP1 REVERT JUMPDEST PUSH1 0x0 PUSH1 0x1 PUSH1 0x0 CALLER PUSH20 0xFFFFFFFFFFFFFFFFFFFFFFFFFFFFFFFFFFFFFFFF AND PUSH20 0xFFFFFFFFFFFFFFFFFFFFFFFFFFFFFFFFFFFFFFFF AND DUP2 MSTORE PUSH1 0x20 ADD SWAP1 DUP2 MSTORE PUSH1 0x20 ADD PUSH1 0x0 KECCAK256 SLOAD SWAP1 POP DUP2 DUP2 LT ISZERO PUSH2 0x7F0 JUMPI PUSH1 0x40 MLOAD PUSH32 0x8C379A000000000000000000000000000000000000000000000000000000000 DUP2 MSTORE PUSH1 0x4 ADD PUSH2 0x7E7 SWAP1 PUSH2 0x1543 JUMP JUMPDEST PUSH1 0x40 MLOAD DUP1 SWAP2 SUB SWAP1 REVERT JUMPDEST DUP2 DUP2 SUB PUSH1 0x1 PUSH1 0x0 CALLER PUSH20 0xFFFFFFFFFFFFFFFFFFFFFFFFFFFFFFFFFFFFFFFF AND PUSH20 0xFFFFFFFFFFFFFFFFFFFFFFFFFFFFFFFFFFFFFFFF AND DUP2 MSTORE PUSH1 0x20 ADD SWAP1 DUP2 MSTORE PUSH1 0x20 ADD PUSH1 0x0 KECCAK256 DUP2 SWAP1 SSTORE POP DUP2 PUSH1 0x3 PUSH1 0x0 DUP3 DUP3 SLOAD PUSH2 0x848 SWAP2 SWAP1 PUSH2 0x16EB JUMP JUMPDEST SWAP3 POP POP DUP2 SWAP1 SSTORE POP PUSH1 0x0 PUSH20 0xFFFFFFFFFFFFFFFFFFFFFFFFFFFFFFFFFFFFFFFF AND CALLER PUSH20 0xFFFFFFFFFFFFFFFFFFFFFFFFFFFFFFFFFFFFFFFF AND PUSH32 0xDDF252AD1BE2C89B69C2B068FC378DAA952BA7F163C4A11628F55A4DF523B3EF DUP5 PUSH1 0x40 MLOAD PUSH2 0x8AD SWAP2 SWAP1 PUSH2 0x1643 JUMP JUMPDEST PUSH1 0x40 MLOAD DUP1 SWAP2 SUB SWAP1 LOG3 POP POP JUMP JUMPDEST PUSH1 0x1 PUSH1 0x20 MSTORE DUP1 PUSH1 0x0 MSTORE PUSH1 0x40 PUSH1 0x0 KECCAK256 PUSH1 0x0 SWAP2 POP SWAP1 POP SLOAD DUP2 JUMP JUMPDEST PUSH1 0x0 DUP1 SLOAD SWAP1 PUSH2 0x100 EXP SWAP1 DIV PUSH20 0xFFFFFFFFFFFFFFFFFFFFFFFFFFFFFFFFFFFFFFFF AND DUP2 JUMP JUMPDEST PUSH1 0x40 MLOAD DUP1 PUSH1 0x40 ADD PUSH1 0x40 MSTORE DUP1 PUSH1 0x5 DUP2 MSTORE PUSH1 0x20 ADD PUSH32 0x42464C5558000000000000000000000000000000000000000000000000000000 DUP2 MSTORE POP DUP2 JUMP JUMPDEST PUSH1 0x0 DUP1 PUSH1 0x2 PUSH1 0x0 CALLER PUSH20 0xFFFFFFFFFFFFFFFFFFFFFFFFFFFFFFFFFFFFFFFF AND PUSH20 0xFFFFFFFFFFFFFFFFFFFFFFFFFFFFFFFFFFFFFFFF AND DUP2 MSTORE PUSH1 0x20 ADD SWAP1 DUP2 MSTORE PUSH1 0x20 ADD PUSH1 0x0 KECCAK256 PUSH1 0x0 DUP6 PUSH20 0xFFFFFFFFFFFFFFFFFFFFFFFFFFFFFFFFFFFFFFFF AND PUSH20 0xFFFFFFFFFFFFFFFFFFFFFFFFFFFFFFFFFFFFFFFF AND DUP2 MSTORE PUSH1 0x20 ADD SWAP1 DUP2 MSTORE PUSH1 0x20 ADD PUSH1 0x0 KECCAK256 SLOAD SWAP1 POP DUP3 DUP2 LT ISZERO PUSH2 0x9F3 JUMPI PUSH1 0x40 MLOAD PUSH32 0x8C379A000000000000000000000000000000000000000000000000000000000 DUP2 MSTORE PUSH1 0x4 ADD PUSH2 0x9EA SWAP1 PUSH2 0x15C3 JUMP JUMPDEST PUSH1 0x40 MLOAD DUP1 SWAP2 SUB SWAP1 REVERT JUMPDEST PUSH2 0xA09 CALLER DUP6 DUP6 DUP5 PUSH2 0xA04 SWAP2 SWAP1 PUSH2 0x16EB JUMP JUMPDEST PUSH2 0xA5E JUMP JUMPDEST PUSH1 0x1 SWAP2 POP POP SWAP3 SWAP2 POP POP JUMP JUMPDEST PUSH1 0x0 PUSH2 0xA21 CALLER DUP5 DUP5 PUSH2 0xC29 JUMP JUMPDEST PUSH1 0x1 SWAP1 POP SWAP3 SWAP2 POP POP JUMP JUMPDEST PUSH10 0x21E19E0C9BAB2400000 DUP2 JUMP JUMPDEST PUSH1 0x2 PUSH1 0x20 MSTORE DUP2 PUSH1 0x0 MSTORE PUSH1 0x40 PUSH1 0x0 KECCAK256 PUSH1 0x20 MSTORE DUP1 PUSH1 0x0 MSTORE PUSH1 0x40 PUSH1 0x0 KECCAK256 PUSH1 0x0 SWAP2 POP SWAP2 POP POP SLOAD DUP2 JUMP JUMPDEST PUSH1 0x0 PUSH20 0xFFFFFFFFFFFFFFFFFFFFFFFFFFFFFFFFFFFFFFFF AND DUP4 PUSH20 0xFFFFFFFFFFFFFFFFFFFFFFFFFFFFFFFFFFFFFFFF AND EQ ISZERO PUSH2 0xACE JUMPI PUSH1 0x40 MLOAD PUSH32 0x8C379A000000000000000000000000000000000000000000000000000000000 DUP2 MSTORE PUSH1 0x4 ADD PUSH2 0xAC5 SWAP1 PUSH2 0x1503 JUMP JUMPDEST PUSH1 0x40 MLOAD DUP1 SWAP2 SUB SWAP1 REVERT JUMPDEST PUSH1 0x0 PUSH20 0xFFFFFFFFFFFFFFFFFFFFFFFFFFFFFFFFFFFFFFFF AND DUP3 PUSH20 0xFFFFFFFFFFFFFFFFFFFFFFFFFFFFFFFFFFFFFFFF AND EQ ISZERO PUSH2 0xB3E JUMPI PUSH1 0x40 MLOAD PUSH32 0x8C379A000000000000000000000000000000000000000000000000000000000 DUP2 MSTORE PUSH1 0x4 ADD PUSH2 0xB35 SWAP1 PUSH2 0x1523 JUMP JUMPDEST PUSH1 0x40 MLOAD DUP1 SWAP2 SUB SWAP1 REVERT JUMPDEST DUP1 PUSH1 0x2 PUSH1 0x0 DUP6 PUSH20 0xFFFFFFFFFFFFFFFFFFFFFFFFFFFFFFFFFFFFFFFF AND PUSH20 0xFFFFFFFFFFFFFFFFFFFFFFFFFFFFFFFFFFFFFFFF AND DUP2 MSTORE PUSH1 0x20 ADD SWAP1 DUP2 MSTORE PUSH1 0x20 ADD PUSH1 0x0 KECCAK256 PUSH1 0x0 DUP5 PUSH20 0xFFFFFFFFFFFFFFFFFFFFFFFFFFFFFFFFFFFFFFFF AND PUSH20 0xFFFFFFFFFFFFFFFFFFFFFFFFFFFFFFFFFFFFFFFF AND DUP2 MSTORE PUSH1 0x20 ADD SWAP1 DUP2 MSTORE PUSH1 0x20 ADD PUSH1 0x0 KECCAK256 DUP2 SWAP1 SSTORE POP DUP2 PUSH20 0xFFFFFFFFFFFFFFFFFFFFFFFFFFFFFFFFFFFFFFFF AND DUP4 PUSH20 0xFFFFFFFFFFFFFFFFFFFFFFFFFFFFFFFFFFFFFFFF AND PUSH32 0x8C5BE1E5EBEC7D5BD14F71427D1E84F3DD0314C0F7B2291E5B200AC8C7C3B925 DUP4 PUSH1 0x40 MLOAD PUSH2 0xC1C SWAP2 SWAP1 PUSH2 0x1643 JUMP JUMPDEST PUSH1 0x40 MLOAD DUP1 SWAP2 SUB SWAP1 LOG3 POP POP POP JUMP JUMPDEST PUSH1 0x0 PUSH20 0xFFFFFFFFFFFFFFFFFFFFFFFFFFFFFFFFFFFFFFFF AND DUP4 PUSH20 0xFFFFFFFFFFFFFFFFFFFFFFFFFFFFFFFFFFFFFFFF AND EQ ISZERO PUSH2 0xC99 JUMPI PUSH1 0x40 MLOAD PUSH32 0x8C379A000000000000000000000000000000000000000000000000000000000 DUP2 MSTORE PUSH1 0x4 ADD PUSH2 0xC90 SWAP1 PUSH2 0x1583 JUMP JUMPDEST PUSH1 0x40 MLOAD DUP1 SWAP2 SUB SWAP1 REVERT JUMPDEST PUSH1 0x0 PUSH20 0xFFFFFFFFFFFFFFFFFFFFFFFFFFFFFFFFFFFFFFFF AND DUP3 PUSH20 0xFFFFFFFFFFFFFFFFFFFFFFFFFFFFFFFFFFFFFFFF AND EQ ISZERO PUSH2 0xD09 JUMPI PUSH1 0x40 MLOAD PUSH32 0x8C379A000000000000000000000000000000000000000000000000000000000 DUP2 MSTORE PUSH1 0x4 ADD PUSH2 0xD00 SWAP1 PUSH2 0x15E3 JUMP JUMPDEST PUSH1 0x40 MLOAD DUP1 SWAP2 SUB SWAP1 REVERT JUMPDEST PUSH1 0x0 PUSH1 0x1 PUSH1 0x0 DUP6 PUSH20 0xFFFFFFFFFFFFFFFFFFFFFFFFFFFFFFFFFFFFFFFF AND PUSH20 0xFFFFFFFFFFFFFFFFFFFFFFFFFFFFFFFFFFFFFFFF AND DUP2 MSTORE PUSH1 0x20 ADD SWAP1 DUP2 MSTORE PUSH1 0x20 ADD PUSH1 0x0 KECCAK256 SLOAD SWAP1 POP DUP2 DUP2 LT ISZERO PUSH2 0xD90 JUMPI PUSH1 0x40 MLOAD PUSH32 0x8C379A000000000000000000000000000000000000000000000000000000000 DUP2 MSTORE PUSH1 0x4 ADD PUSH2 0xD87 SWAP1 PUSH2 0x15A3 JUMP JUMPDEST PUSH1 0x40 MLOAD DUP1 SWAP2 SUB SWAP1 REVERT JUMPDEST DUP2 DUP2 SUB PUSH1 0x1 PUSH1 0x0 DUP7 PUSH20 0xFFFFFFFFFFFFFFFFFFFFFFFFFFFFFFFFFFFFFFFF AND PUSH20 0xFFFFFFFFFFFFFFFFFFFFFFFFFFFFFFFFFFFFFFFF AND DUP2 MSTORE PUSH1 0x20 ADD SWAP1 DUP2 MSTORE PUSH1 0x20 ADD PUSH1 0x0 KECCAK256 DUP2 SWAP1 SSTORE POP DUP2 PUSH1 0x1 PUSH1 0x0 DUP6 PUSH20 0xFFFFFFFFFFFFFFFFFFFFFFFFFFFFFFFFFFFFFFFF AND PUSH20 0xFFFFFFFFFFFFFFFFFFFFFFFFFFFFFFFFFFFFFFFF AND DUP2 MSTORE PUSH1 0x20 ADD SWAP1 DUP2 MSTORE PUSH1 0x20 ADD PUSH1 0x0 KECCAK256 PUSH1 0x0 DUP3 DUP3 SLOAD PUSH2 0xE25 SWAP2 SWAP1 PUSH2 0x1695 JUMP JUMPDEST SWAP3 POP POP DUP2 SWAP1 SSTORE POP DUP3 PUSH20 0xFFFFFFFFFFFFFFFFFFFFFFFFFFFFFFFFFFFFFFFF AND DUP5 PUSH20 0xFFFFFFFFFFFFFFFFFFFFFFFFFFFFFFFFFFFFFFFF AND PUSH32 0xDDF252AD1BE2C89B69C2B068FC378DAA952BA7F163C4A11628F55A4DF523B3EF DUP5 PUSH1 0x40 MLOAD PUSH2 0xE89 SWAP2 SWAP1 PUSH2 0x1643 JUMP JUMPDEST PUSH1 0x40 MLOAD DUP1 SWAP2 SUB SWAP1 LOG3 POP POP POP POP JUMP JUMPDEST PUSH1 0x0 DUP2 CALLDATALOAD SWAP1 POP PUSH2 0xEA6 DUP2 PUSH2 0x17E7 JUMP JUMPDEST SWAP3 SWAP2 POP POP JUMP JUMPDEST PUSH1 0x0 DUP2 CALLDATALOAD SWAP1 POP PUSH2 0xEBB DUP2 PUSH2 0x17FE JUMP JUMPDEST SWAP3 SWAP2 POP POP JUMP JUMPDEST PUSH1 0x0 PUSH1 0x20 DUP3 DUP5 SUB SLT ISZERO PUSH2 0xED3 JUMPI PUSH1 0x0 DUP1 REVERT JUMPDEST PUSH1 0x0 PUSH2 0xEE1 DUP5 DUP3 DUP6 ADD PUSH2 0xE97 JUMP JUMPDEST SWAP2 POP POP SWAP3 SWAP2 POP POP JUMP JUMPDEST PUSH1 0x0 DUP1 PUSH1 0x40 DUP4 DUP6 SUB SLT ISZERO PUSH2 0xEFD JUMPI PUSH1 0x0 DUP1 REVERT JUMPDEST PUSH1 0x0 PUSH2 0xF0B DUP6 DUP3 DUP7 ADD PUSH2 0xE97 JUMP JUMPDEST SWAP3 POP POP PUSH1 0x20 PUSH2 0xF1C DUP6 DUP3 DUP7 ADD PUSH2 0xE97 JUMP JUMPDEST SWAP2 POP POP SWAP3 POP SWAP3 SWAP1 POP JUMP JUMPDEST PUSH1 0x0 DUP1 PUSH1 0x0 PUSH1 0x60 DUP5 DUP7 SUB SLT ISZERO PUSH2 0xF3B JUMPI PUSH1 0x0 DUP1 REVERT JUMPDEST PUSH1 0x0 PUSH2 0xF49 DUP7 DUP3 DUP8 ADD PUSH2 0xE97 JUMP JUMPDEST SWAP4 POP POP PUSH1 0x20 PUSH2 0xF5A DUP7 DUP3 DUP8 ADD PUSH2 0xE97 JUMP JUMPDEST SWAP3 POP POP PUSH1 0x40 PUSH2 0xF6B DUP7 DUP3 DUP8 ADD PUSH2 0xEAC JUMP JUMPDEST SWAP2 POP POP SWAP3 POP SWAP3 POP SWAP3 JUMP JUMPDEST PUSH1 0x0 DUP1 PUSH1 0x40 DUP4 DUP6 SUB SLT ISZERO PUSH2 0xF88 JUMPI PUSH1 0x0 DUP1 REVERT JUMPDEST PUSH1 0x0 PUSH2 0xF96 DUP6 DUP3 DUP7 ADD PUSH2 0xE97 JUMP JUMPDEST SWAP3 POP POP PUSH1 0x20 PUSH2 0xFA7 DUP6 DUP3 DUP7 ADD PUSH2 0xEAC JUMP JUMPDEST SWAP2 POP POP SWAP3 POP SWAP3 SWAP1 POP JUMP JUMPDEST PUSH1 0x0 PUSH1 0x20 DUP3 DUP5 SUB SLT ISZERO PUSH2 0xFC3 JUMPI PUSH1 0x0 DUP1 REVERT JUMPDEST PUSH1 0x0 PUSH2 0xFD1 DUP5 DUP3 DUP6 ADD PUSH2 0xEAC JUMP JUMPDEST SWAP2 POP POP SWAP3 SWAP2 POP POP JUMP JUMPDEST PUSH2 0xFE3 DUP2 PUSH2 0x171F JUMP JUMPDEST DUP3 MSTORE POP POP JUMP JUMPDEST PUSH2 0xFF2 DUP2 PUSH2 0x1731 JUMP JUMPDEST DUP3 MSTORE POP POP JUMP JUMPDEST PUSH1 0x0 PUSH2 0x1003 DUP3 PUSH2 0x1679 JUMP JUMPDEST PUSH2 0x100D DUP2 DUP6 PUSH2 0x1684 JUMP JUMPDEST SWAP4 POP PUSH2 0x101D DUP2 DUP6 PUSH1 0x20 DUP7 ADD PUSH2 0x1774 JUMP JUMPDEST PUSH2 0x1026 DUP2 PUSH2 0x17D6 JUMP JUMPDEST DUP5 ADD SWAP2 POP POP SWAP3 SWAP2 POP POP JUMP JUMPDEST PUSH1 0x0 PUSH2 0x103E PUSH1 0x21 DUP4 PUSH2 0x1684 JUMP JUMPDEST SWAP2 POP PUSH32 0x43524332303A206275726E2066726F6D20746865207A65726F20616464726573 PUSH1 0x0 DUP4 ADD MSTORE PUSH32 0x7300000000000000000000000000000000000000000000000000000000000000 PUSH1 0x20 DUP4 ADD MSTORE PUSH1 0x40 DUP3 ADD SWAP1 POP SWAP2 SWAP1 POP JUMP JUMPDEST PUSH1 0x0 PUSH2 0x10A4 PUSH1 0x24 DUP4 PUSH2 0x1684 JUMP JUMPDEST SWAP2 POP PUSH32 0x43524332303A20617070726F76652066726F6D20746865207A65726F20616464 PUSH1 0x0 DUP4 ADD MSTORE PUSH32 0x7265737300000000000000000000000000000000000000000000000000000000 PUSH1 0x20 DUP4 ADD MSTORE PUSH1 0x40 DUP3 ADD SWAP1 POP SWAP2 SWAP1 POP JUMP JUMPDEST PUSH1 0x0 PUSH2 0x110A PUSH1 0x22 DUP4 PUSH2 0x1684 JUMP JUMPDEST SWAP2 POP PUSH32 0x43524332303A20617070726F766520746F20746865207A65726F206164647265 PUSH1 0x0 DUP4 ADD MSTORE PUSH32 0x7373000000000000000000000000000000000000000000000000000000000000 PUSH1 0x20 DUP4 ADD MSTORE PUSH1 0x40 DUP3 ADD SWAP1 POP SWAP2 SWAP1 POP JUMP JUMPDEST PUSH1 0x0 PUSH2 0x1170 PUSH1 0x22 DUP4 PUSH2 0x1684 JUMP JUMPDEST SWAP2 POP PUSH32 0x43524332303A206275726E20616D6F756E7420657863656564732062616C616E PUSH1 0x0 DUP4 ADD MSTORE PUSH32 0x6365000000000000000000000000000000000000000000000000000000000000 PUSH1 0x20 DUP4 ADD MSTORE PUSH1 0x40 DUP3 ADD SWAP1 POP SWAP2 SWAP1 POP JUMP JUMPDEST PUSH1 0x0 PUSH2 0x11D6 PUSH1 0x1F DUP4 PUSH2 0x1684 JUMP JUMPDEST SWAP2 POP PUSH32 0x43524332303A206D696E7420746F20746865207A65726F206164647265737300 PUSH1 0x0 DUP4 ADD MSTORE PUSH1 0x20 DUP3 ADD SWAP1 POP SWAP2 SWAP1 POP JUMP JUMPDEST PUSH1 0x0 PUSH2 0x1216 PUSH1 0x25 DUP4 PUSH2 0x1684 JUMP JUMPDEST SWAP2 POP PUSH32 0x43524332303A207472616E736665722066726F6D20746865207A65726F206164 PUSH1 0x0 DUP4 ADD MSTORE PUSH32 0x6472657373000000000000000000000000000000000000000000000000000000 PUSH1 0x20 DUP4 ADD MSTORE PUSH1 0x40 DUP3 ADD SWAP1 POP SWAP2 SWAP1 POP JUMP JUMPDEST PUSH1 0x0 PUSH2 0x127C PUSH1 0x26 DUP4 PUSH2 0x1684 JUMP JUMPDEST SWAP2 POP PUSH32 0x43524332303A207472616E7366657220616D6F756E7420657863656564732062 PUSH1 0x0 DUP4 ADD MSTORE PUSH32 0x616C616E63650000000000000000000000000000000000000000000000000000 PUSH1 0x20 DUP4 ADD MSTORE PUSH1 0x40 DUP3 ADD SWAP1 POP SWAP2 SWAP1 POP JUMP JUMPDEST PUSH1 0x0 PUSH2 0x12E2 PUSH1 0x25 DUP4 PUSH2 0x1684 JUMP JUMPDEST SWAP2 POP PUSH32 0x43524332303A2064656372656173656420616C6C6F77616E63652062656C6F77 PUSH1 0x0 DUP4 ADD MSTORE PUSH32 0x207A65726F000000000000000000000000000000000000000000000000000000 PUSH1 0x20 DUP4 ADD MSTORE PUSH1 0x40 DUP3 ADD SWAP1 POP SWAP2 SWAP1 POP JUMP JUMPDEST PUSH1 0x0 PUSH2 0x1348 PUSH1 0x23 DUP4 PUSH2 0x1684 JUMP JUMPDEST SWAP2 POP PUSH32 0x43524332303A207472616E7366657220746F20746865207A65726F2061646472 PUSH1 0x0 DUP4 ADD MSTORE PUSH32 0x6573730000000000000000000000000000000000000000000000000000000000 PUSH1 0x20 DUP4 ADD MSTORE PUSH1 0x40 DUP3 ADD SWAP1 POP SWAP2 SWAP1 POP JUMP JUMPDEST PUSH1 0x0 PUSH2 0x13AE PUSH1 0x28 DUP4 PUSH2 0x1684 JUMP JUMPDEST SWAP2 POP PUSH32 0x43524332303A207472616E7366657220616D6F756E7420657863656564732061 PUSH1 0x0 DUP4 ADD MSTORE PUSH32 0x6C6C6F77616E6365000000000000000000000000000000000000000000000000 PUSH1 0x20 DUP4 ADD MSTORE PUSH1 0x40 DUP3 ADD SWAP1 POP SWAP2 SWAP1 POP JUMP JUMPDEST PUSH1 0x0 PUSH2 0x1414 PUSH1 0x21 DUP4 PUSH2 0x1684 JUMP JUMPDEST SWAP2 POP PUSH32 0x4F6E6C79204F776E65722063616E2063616C6C20746869732066756E6374696F PUSH1 0x0 DUP4 ADD MSTORE PUSH32 0x6E00000000000000000000000000000000000000000000000000000000000000 PUSH1 0x20 DUP4 ADD MSTORE PUSH1 0x40 DUP3 ADD SWAP1 POP SWAP2 SWAP1 POP JUMP JUMPDEST PUSH2 0x1476 DUP2 PUSH2 0x175D JUMP JUMPDEST DUP3 MSTORE POP POP JUMP JUMPDEST PUSH2 0x1485 DUP2 PUSH2 0x1767 JUMP JUMPDEST DUP3 MSTORE POP POP JUMP JUMPDEST PUSH1 0x0 PUSH1 0x20 DUP3 ADD SWAP1 POP PUSH2 0x14A0 PUSH1 0x0 DUP4 ADD DUP5 PUSH2 0xFDA JUMP JUMPDEST SWAP3 SWAP2 POP POP JUMP JUMPDEST PUSH1 0x0 PUSH1 0x20 DUP3 ADD SWAP1 POP PUSH2 0x14BB PUSH1 0x0 DUP4 ADD DUP5 PUSH2 0xFE9 JUMP JUMPDEST SWAP3 SWAP2 POP POP JUMP JUMPDEST PUSH1 0x0 PUSH1 0x20 DUP3 ADD SWAP1 POP DUP2 DUP2 SUB PUSH1 0x0 DUP4 ADD MSTORE PUSH2 0x14DB DUP2 DUP5 PUSH2 0xFF8 JUMP JUMPDEST SWAP1 POP SWAP3 SWAP2 POP POP JUMP JUMPDEST PUSH1 0x0 PUSH1 0x20 DUP3 ADD SWAP1 POP DUP2 DUP2 SUB PUSH1 0x0 DUP4 ADD MSTORE PUSH2 0x14FC DUP2 PUSH2 0x1031 JUMP JUMPDEST SWAP1 POP SWAP2 SWAP1 POP JUMP JUMPDEST PUSH1 0x0 PUSH1 0x20 DUP3 ADD SWAP1 POP DUP2 DUP2 SUB PUSH1 0x0 DUP4 ADD MSTORE PUSH2 0x151C DUP2 PUSH2 0x1097 JUMP JUMPDEST SWAP1 POP SWAP2 SWAP1 POP JUMP JUMPDEST PUSH1 0x0 PUSH1 0x20 DUP3 ADD SWAP1 POP DUP2 DUP2 SUB PUSH1 0x0 DUP4 ADD MSTORE PUSH2 0x153C DUP2 PUSH2 0x10FD JUMP JUMPDEST SWAP1 POP SWAP2 SWAP1 POP JUMP JUMPDEST PUSH1 0x0 PUSH1 0x20 DUP3 ADD SWAP1 POP DUP2 DUP2 SUB PUSH1 0x0 DUP4 ADD MSTORE PUSH2 0x155C DUP2 PUSH2 0x1163 JUMP JUMPDEST SWAP1 POP SWAP2 SWAP1 POP JUMP JUMPDEST PUSH1 0x0 PUSH1 0x20 DUP3 ADD SWAP1 POP DUP2 DUP2 SUB PUSH1 0x0 DUP4 ADD MSTORE PUSH2 0x157C DUP2 PUSH2 0x11C9 JUMP JUMPDEST SWAP1 POP SWAP2 SWAP1 POP JUMP JUMPDEST PUSH1 0x0 PUSH1 0x20 DUP3 ADD SWAP1 POP DUP2 DUP2 SUB PUSH1 0x0 DUP4 ADD MSTORE PUSH2 0x159C DUP2 PUSH2 0x1209 JUMP JUMPDEST SWAP1 POP SWAP2 SWAP1 POP JUMP JUMPDEST PUSH1 0x0 PUSH1 0x20 DUP3 ADD SWAP1 POP DUP2 DUP2 SUB PUSH1 0x0 DUP4 ADD MSTORE PUSH2 0x15BC DUP2 PUSH2 0x126F JUMP JUMPDEST SWAP1 POP SWAP2 SWAP1 POP JUMP JUMPDEST PUSH1 0x0 PUSH1 0x20 DUP3 ADD SWAP1 POP DUP2 DUP2 SUB PUSH1 0x0 DUP4 ADD MSTORE PUSH2 0x15DC DUP2 PUSH2 0x12D5 JUMP JUMPDEST SWAP1 POP SWAP2 SWAP1 POP JUMP JUMPDEST PUSH1 0x0 PUSH1 0x20 DUP3 ADD SWAP1 POP DUP2 DUP2 SUB PUSH1 0x0 DUP4 ADD MSTORE PUSH2 0x15FC DUP2 PUSH2 0x133B JUMP JUMPDEST SWAP1 POP SWAP2 SWAP1 POP JUMP JUMPDEST PUSH1 0x0 PUSH1 0x20 DUP3 ADD SWAP1 POP DUP2 DUP2 SUB PUSH1 0x0 DUP4 ADD MSTORE PUSH2 0x161C DUP2 PUSH2 0x13A1 JUMP JUMPDEST SWAP1 POP SWAP2 SWAP1 POP JUMP JUMPDEST PUSH1 0x0 PUSH1 0x20 DUP3 ADD SWAP1 POP DUP2 DUP2 SUB PUSH1 0x0 DUP4 ADD MSTORE PUSH2 0x163C DUP2 PUSH2 0x1407 JUMP JUMPDEST SWAP1 POP SWAP2 SWAP1 POP JUMP JUMPDEST PUSH1 0x0 PUSH1 0x20 DUP3 ADD SWAP1 POP PUSH2 0x1658 PUSH1 0x0 DUP4 ADD DUP5 PUSH2 0x146D JUMP JUMPDEST SWAP3 SWAP2 POP POP JUMP JUMPDEST PUSH1 0x0 PUSH1 0x20 DUP3 ADD SWAP1 POP PUSH2 0x1673 PUSH1 0x0 DUP4 ADD DUP5 PUSH2 0x147C JUMP JUMPDEST SWAP3 SWAP2 POP POP JUMP JUMPDEST PUSH1 0x0 DUP2 MLOAD SWAP1 POP SWAP2 SWAP1 POP JUMP JUMPDEST PUSH1 0x0 DUP3 DUP3 MSTORE PUSH1 0x20 DUP3 ADD SWAP1 POP SWAP3 SWAP2 POP POP JUMP JUMPDEST PUSH1 0x0 PUSH2 0x16A0 DUP3 PUSH2 0x175D JUMP JUMPDEST SWAP2 POP PUSH2 0x16AB DUP4 PUSH2 0x175D JUMP JUMPDEST SWAP3 POP DUP3 PUSH32 0xFFFFFFFFFFFFFFFFFFFFFFFFFFFFFFFFFFFFFFFFFFFFFFFFFFFFFFFFFFFFFFFF SUB DUP3 GT ISZERO PUSH2 0x16E0 JUMPI PUSH2 0x16DF PUSH2 0x17A7 JUMP JUMPDEST JUMPDEST DUP3 DUP3 ADD SWAP1 POP SWAP3 SWAP2 POP POP JUMP JUMPDEST PUSH1 0x0 PUSH2 0x16F6 DUP3 PUSH2 0x175D JUMP JUMPDEST SWAP2 POP PUSH2 0x1701 DUP4 PUSH2 0x175D JUMP JUMPDEST SWAP3 POP DUP3 DUP3 LT ISZERO PUSH2 0x1714 JUMPI PUSH2 0x1713 PUSH2 0x17A7 JUMP JUMPDEST JUMPDEST DUP3 DUP3 SUB SWAP1 POP SWAP3 SWAP2 POP POP JUMP JUMPDEST PUSH1 0x0 PUSH2 0x172A DUP3 PUSH2 0x173D JUMP JUMPDEST SWAP1 POP SWAP2 SWAP1 POP JUMP JUMPDEST PUSH1 0x0 DUP2 ISZERO ISZERO SWAP1 POP SWAP2 SWAP1 POP JUMP JUMPDEST PUSH1 0x0 PUSH20 0xFFFFFFFFFFFFFFFFFFFFFFFFFFFFFFFFFFFFFFFF DUP3 AND SWAP1 POP SWAP2 SWAP1 POP JUMP JUMPDEST PUSH1 0x0 DUP2 SWAP1 POP SWAP2 SWAP1 POP JUMP JUMPDEST PUSH1 0x0 PUSH1 0xFF DUP3 AND SWAP1 POP SWAP2 SWAP1 POP JUMP JUMPDEST PUSH1 0x0 JUMPDEST DUP4 DUP2 LT ISZERO PUSH2 0x1792 JUMPI DUP1 DUP3 ADD MLOAD DUP2 DUP5 ADD MSTORE PUSH1 0x20 DUP2 ADD SWAP1 POP PUSH2 0x1777 JUMP JUMPDEST DUP4 DUP2 GT ISZERO PUSH2 0x17A1 JUMPI PUSH1 0x0 DUP5 DUP5 ADD MSTORE JUMPDEST POP POP POP POP JUMP JUMPDEST PUSH32 0x4E487B7100000000000000000000000000000000000000000000000000000000 PUSH1 0x0 MSTORE PUSH1 0x11 PUSH1 0x4 MSTORE PUSH1 0x24 PUSH1 0x0 REVERT JUMPDEST PUSH1 0x0 PUSH1 0x1F NOT PUSH1 0x1F DUP4 ADD AND SWAP1 POP SWAP2 SWAP1 POP JUMP JUMPDEST PUSH2 0x17F0 DUP2 PUSH2 0x171F JUMP JUMPDEST DUP2 EQ PUSH2 0x17FB JUMPI PUSH1 0x0 DUP1 REVERT JUMPDEST POP JUMP JUMPDEST PUSH2 0x1807 DUP2 PUSH2 0x175D JUMP JUMPDEST DUP2 EQ PUSH2 0x1812 JUMPI PUSH1 0x0 DUP1 REVERT JUMPDEST POP JUMP INVALID LOG2 PUSH5 0x6970667358 0x22 SLT KECCAK256 DUP9 MSIZE 0xCB 0xDE SWAP5 SWAP6 CALLDATACOPY TIMESTAMP PUSH4 0x4EEB6EB5 SHR MUL SELFDESTRUCT 0xA5 DUP12 SHL PUSH23 0xFB946C5E903D6E525394ACB264736F6C63430008000033 "
    },
    "gasEstimates": {
      "creation": {
        "codeDepositCost": "1243800",
        "executionCost": "infinite",
        "totalCost": "infinite"
      },
      "external": {
        "allowance(address,address)": "infinite",
        "approve(address,uint256)": "infinite",
        "balanceOf(address)": "1559",
        "burn(uint256)": "infinite",
        "decimals()": "380",
        "decreaseAllowance(address,uint256)": "infinite",
        "devTreasury()": "395",
        "increaseAllowance(address,uint256)": "infinite",
        "mint(address,uint256)": "infinite",
        "name()": "infinite",
        "owner()": "1278",
        "symbol()": "infinite",
        "totalSupply()": "1197",
        "transfer(address,uint256)": "infinite",
        "transferFrom(address,address,uint256)": "infinite"
      },
      "internal": {
        "_approve(address,address,uint256)": "infinite",
        "_transfer(address,address,uint256)": "infinite"
      }
    },
    "methodIdentifiers": {
      "allowance(address,address)": "dd62ed3e",
      "approve(address,uint256)": "095ea7b3",
      "balanceOf(address)": "70a08231",
      "burn(uint256)": "42966c68",
      "decimals()": "313ce567",
      "decreaseAllowance(address,uint256)": "a457c2d7",
      "devTreasury()": "b19ab076",
      "increaseAllowance(address,uint256)": "39509351",
      "mint(address,uint256)": "40c10f19",
      "name()": "06fdde03",
      "owner()": "8da5cb5b",
      "symbol()": "95d89b41",
      "totalSupply()": "18160ddd",
      "transfer(address,uint256)": "a9059cbb",
      "transferFrom(address,address,uint256)": "23b872dd"
    }
  },
  "storageLayout": {
    "storage": [
      {
        "astId": 15,
        "contract": "./contracts/BFLUX.sol:BFLUX",
        "label": "owner",
        "offset": 0,
        "slot": "0",
        "type": "t_address"
      },
      {
        "astId": 19,
        "contract": "./contracts/BFLUX.sol:BFLUX",
        "label": "balanceOf",
        "offset": 0,
        "slot": "1",
        "type": "t_mapping(t_address,t_uint256)"
      },
      {
        "astId": 25,
        "contract": "./contracts/BFLUX.sol:BFLUX",
        "label": "allowance",
        "offset": 0,
        "slot": "2",
        "type": "t_mapping(t_address,t_mapping(t_address,t_uint256))"
      },
      {
        "astId": 27,
        "contract": "./contracts/BFLUX.sol:BFLUX",
        "label": "totalSupply",
        "offset": 0,
        "slot": "3",
        "type": "t_uint256"
      }
    ],
    "types": {
      "t_address": {
        "encoding": "inplace",
        "label": "address",
        "numberOfBytes": "20"
      },
      "t_mapping(t_address,t_mapping(t_address,t_uint256))": {
        "encoding": "mapping",
        "key": "t_address",
        "label": "mapping(address => mapping(address => uint256))",
        "numberOfBytes": "32",
        "value": "t_mapping(t_address,t_uint256)"
      },
      "t_mapping(t_address,t_uint256)": {
        "encoding": "mapping",
        "key": "t_address",
        "label": "mapping(address => uint256)",
        "numberOfBytes": "32",
        "value": "t_uint256"
      },
      "t_uint256": {
        "encoding": "inplace",
        "label": "uint256",
        "numberOfBytes": "32"
      }
    }
  },
  "userdoc": {
    "kind": "user",
    "methods": {},
    "version": 1
  }
}